:1000000080315228080008007E1480310B1F092817
:100010000A2850282100111E0E280F281B28200016
:10002000111E132814281B28210060088A005F086D
:100030000A00803150282100911E1F2820282C28DA
:100040002000911E242825282C2821005E088A00E3
:100050005D080A00803150282100921D3028312887
:1000600037282000921D35283628372850282100AF
:10007000911D3B283C2842282000911D4028412802
:10008000422850282100111C4628472850282000CB
:10009000111C4B284C2850288F31B727803150280D
:1000A0007E10090080315428463084008F3085004E
:1000B00068308600003087000030FF0006308F3146
:1000C0009E278031403084008F308500E5308600E7
:1000D000003087000030FF0006308F319E278031CE
:1000E000D4308400203085001C30FE000130FF0039
:1000F0008F3192278031FA01FB01553084000030A6
:1001000085001330FE000030FF008F3192278031D0
:10011000A0308400003085003530FE000030FF0044
:100120008F319227803120308400013085002030CB
:10013000FE000030FF008F31922780317E102000BA
:100140008F31862FD230860021308700010883311D
:100150008023803173082000B1007208B00031089C
:10016000A900D2308600213087000108AA00AB0127
:10017000D830AC002030AD002A082C07AE002B0888
:100180002D3DAF002E0886002F088700290881002A
:100190000130A900D230860021308700290881076C
:1001A000D2308600213087000108A900AA01D8308A
:1001B000AB002030AC0029082B07AD002A082C3DED
:1001C000AE002D0886002E0887003008810001301F
:1001D000A900D23086002130870029088107D43059
:1001E000860020308700413102300102031CF928CB
:1001F000FA28FC2822008E162000B201B30114292F
:10020000D8302000A9002030AA0032082907860033
:1002100033082A3D8700010886311F2680310130CE
:100220002000B2070030B33DD23086002130870075
:100230003308803AA90080302902031D21290108D2
:100240003202031C242925290029D43086002030BD
:100250008700413102300102031C2F293029662911
:100260008F3108278031003A03193729382930297E
:10027000E630860021308700403F2000B400413F37
:10028000B500423FB600433FB70001302000A9004F
:100290000030AA000030AB000030AC002908B402E6
:1002A0002A08B53B2B08B63B2C08B73B340A031D84
:1002B0006329350A031D6329360A031D6329370A9A
:1002C000031D63296429452922008E12D23086003D
:1002D0002130870081018F3167278031E23086002D
:1002E000213087007208C03F7308C13F7408C23FC5
:1002F0007508C33FD8308600213087000130810760
:1003000041310318810A08002100EB00EA30860021
:100310002130870020004B08C03F4C08C13F6408D3
:100320002100EC006C08031D9629972999290030BB
:10033000532AD33086002130870001086C06031948
:10034000A229A329B929D3308600213087006C085F
:1003500081008F3167278131DE30860021308700B0
:100360007208C03F7308C13F7408C23F7508C33F9D
:100370009729DE30860021308700403F2000CD00E5
:10038000413FCE00423FCF00433FD0008F3167272F
:10039000813172082000D1007308D2007408D300A4
:1003A0007508D4004D08D1024E08D23B4F08D33B0C
:1003B0005008D43B5408031DE8295308031DE829BD
:1003C0005208031DE829033051020318E829E929DE
:1003D000EA299729D33086002130870081018331B3
:1003E000DF2381312100ED00D730860020308700E7
:1003F0006D0881006D08803A793E0318002A012AB1
:10040000042A21006D08532AD4308600203087004A
:10041000D43084002030850004310008010603191F
:10042000122A132A142A97298231FB2281312100B2
:10043000EE006E0803191D2A1E2A332A6E0A0319BC
:10044000222A232A2A2A6E088531F5258131803116
:10045000A2208131D73086002030870021006E082D
:1004600081006E08532A8F3167278131E230860080
:10047000213087007208C03F7308C13F7408C23F33
:100480007508C33FD4308600203087004331810196
:1004900021006B082000B800B9014B08BA00823176
:1004A00054228131012A0800D43086002030870090
:1004B000463101082000BB00BC013B08BC00BB0169
:1004C000D43086002030870047313B080104C60045
:1004D0003C08C700D430860020308700493101082D
:1004E000C8004835BB00DA308600203087003B0862
:1004F0008100D23086002130870003308100470818
:10050000CA004608C900E62A4A08BC004908BB00E0
:10051000BB35BC0D3B08380786003C08393D8700D9
:10052000403FBD00413FBE003E08BF00D2308600C4
:10053000213087000108C000C101D830C20020303E
:10054000C30040084207C4004108433DC5004408B9
:100550008600450887003F0881000130BB00D2308B
:100560008600213087003B0881074A08BC00490803
:10057000BB00BB35BC0D3B08380786003C08393D45
:1005800087000108BD00D2308600213087000108B5
:10059000BE00BF01D830C0002030C1003E08400777
:1005A000C2003F08413DC30042088600430887005F
:1005B0003D0881000130BB00D23086002130870029
:1005C0003B0881070130C9070030CA3D480846078B
:1005D000BB0047080318470ABC003C084A02031D39
:1005E000F32A3B084902031CF62AF72A842A8031A1
:1005F000A22082310800D230860021308700010815
:100600002000A900AA01D730AB002030AC00290897
:100610002B0786002A082C3D87000108AD00AE019B
:10062000D2308600213087000108AF00B001D630FB
:10063000B1002030B2002F08310786003008323D6B
:1006400087000108B300B4013308B400B3012D08DA
:100650003304B6002E083404B700D23086002130AF
:1006600087000108FE3E8331802382312000370855
:100670007306031D3D2B360872060319402B412BD0
:100680004C2BDA3086002130870001308107413160
:100690000318810AFF307F2BB801B901B901D430AA
:1006A00086002030870045313908003E84009030B4
:1006B0000318013E850000080106031D602B612B15
:1006C000642BB801B80A6E2B0130A9002908B907BC
:1006D00008303902031C6D2B6E2B4F2B3808031D7D
:1006E000722B732B7E2BDA3086002130870001308D
:1006F000810741310318810A01307F2B0030080047
:100700002000A000FF30A700FF30A800A501A50130
:10071000C02B2508F400F501D830F6002030F70092
:100720007408760786007508773D8700270801065C
:10073000A7002808A800A601A60A01302705A300E3
:1007400000302805A4000130A836A70C890BA42B83
:10075000230824040319AD2BAE2BB22B0130A706BE
:10076000A030A8060130F4007408A607093026025C
:10077000031CBB2BBC2B9D2B0130F4007408A50778
:1007800020082502031CC52BC62B892B2808F50041
:100790002708F4007508F400F5017408A100750835
:1007A000A2002708F500F40121087404A70022081C
:1007B0007504A8002808F3002708F2000800F401D7
:1007C000D2308600213087008101162C86317126B7
:1007D00083312000A000D23086002130870001083C
:1007E000A100A201D830A3002030A40021082307D3
:1007F000A5002208243DA6002508860026088700BB
:10080000200881000130A000D2308600213087000E
:1008100020088107D230860021308700FA3001029B
:10082000031C132C142C162CF401F40A2000640869
:10083000031D1B2C1C2CE62BD63086002130870094
:100840000130810741310318810A74080319292CEA
:100850002A2C352CDA3086002130870001308107C0
:1008600041310318810AFD303A2CD2308600213004
:100870008700010808002000E2018F3167278431DA
:1008800021004D0872022000B20021004E08733B87
:100890002000B30021004F08743B2000B400210069
:1008A0005008753B2000B5003508031D622C340844
:1008B000031D622CD03032020730333B031C612C05
:1008C000622C8C2C8F316727843175082100D00071
:1008D0007408CF007308CE007208CD002000E2013A
:1008E000E20A84318D2484312000DA1B782C792CA3
:1008F000822C0230593E860087014131811F812CB4
:10090000822C8C2C0030D9008030DA000030DB00E3
:100910008030DC000230E20008006C302000A000D3
:100920000230A1000030A20088308531CB2584310F
:100930008F316727843175082000B1007408B0003A
:100940007308AF007208AE008F3167278431200032
:100950002E087202A4002F08733BA5003008743BD8
:10096000A6003108753BA7002708031DC32C2608E5
:10097000031DC32C2508031DC32C02302402031CB5
:10098000C22CC32CA42C2830F6000630F70000300F
:10099000F800893087312327843120002808DA00C5
:1009A0002908D9002B08DC002C08DB000800F40023
:1009B000F501F50A21003C19DE2CDF2C152D7408F9
:1009C000B600BC103C153C100E30BA00F430B40038
:1009D0000130B500BC150030A0000030A100AC0112
:1009E0000030A2000030A300AD010030A4000030B0
:1009F000A500AE010030A6000030A700AF01003016
:100A0000A8000030A900B0010030F2000030F3006F
:100A10008F311C2784318E31F12684318F31C427E8
:100A200084318E31FD268431F50175080800F2000D
:100A3000D4308600203087007208C03FD530860051
:100A40002030870002308100DC30860021308700B2
:100A5000E830C03F0330C13FE630860021308700D8
:100A60000030C03FC13FC23FC33FD230860021307B
:100A700087008101D3308600213087008101DA3080
:100A80008600213087000030C03FC13FD83086004B
:100A9000213087000030C03FC13FD6308600213072
:100AA00087000030C03FC13F080021009112923002
:100AB000F2000530F3008F31342785312100111207
:100AC000E030F2000630F3008F313A2785310830EC
:100AD00023009F0090309D0024309E00CF309B006B
:100AE0009C010230F2000030F3008F31282785315D
:100AF0000430F2000F30F3008F312E2785310030A3
:100B0000F2000F30F3008F31222785312000E301FE
:100B1000E701E6011030E500FB01FA01E4012100E4
:100B2000911608007B08BD3E8600870181012300E5
:100B30001D1D9B2D9C2DA72D7B08BD3E860087018A
:100B4000811421005C088A005B080A0085312300BB
:100B50009D1CAB2DAC2DB72D7B08BD3E86008701BB
:100B6000011521005A088A0059080A0085317B08BE
:100B7000BD3E8600870101080319BF2DC02DC72D7A
:100B8000210058088A0057080A008531CA2D87318C
:100B90009027853108002000A3002000230884311D
:100BA000D7248531003A0319D62DD72DCD2D20001D
:100BB0002208F3002108F20020088F31D127853167
:100BC0000030F600F7000030F800F9008F317B2785
:100BD00085318F31112785318731C1278531013A20
:100BE0000319F32DF42DEC2D0800F300D43086000A
:100BF0002030870045310108F400D43086002030D1
:100C000087000108F200D830860020308700720883
:100C100081007408803EF200D930860020308700C1
:100C200072088100DA308600203087007308810066
:100C3000D230860021308700033081000800F300A5
:100C4000200065080319252E262E202E2100111ABA
:100C50002A2E2B2E2F2E730823009A00452E1112B8
:100C600020006708303E860001308700730881004D
:100C70000130F2007208E70710306702031C412EB2
:100C8000422E432EE7010130E50221001116080033
:100C9000003020000C1801302100E400003020005A
:100CA0008C1801302100E300003020000C190130C5
:100CB0002100E200003020008C1901302100E10009
:100CC00008306105F20004306205F300023063056C
:100CD000F400640801397404730472042000EE0007
:100CE0000800200064080319762E772E712E7A08EA
:100CF000BD3E860087010108E3007A08203E860099
:100D0000013087000108F3000130F2007208FA0791
:100D100010307A02031C8D2E8E2E8F2EFA012100A8
:100D2000911201302000E40221009116730808009E
:100D3000F5007208730403199E2E9F2EAE2E753592
:100D4000A03E860087017208C03F7308C13F750846
:100D5000AC3E8600870174088100BB2E7535A03E2D
:100D6000860087010030C03F0030C13F7508AC3EAF
:100D70008600870181010800C92E22008E140E14FE
:100D8000DF2E22008E100E14DF2E22008E140E1085
:100D9000DF2E20006208F200F301F21BF303730858
:100DA000003A0319D42EDF2E7208003A0319BD2E23
:100DB000013A0319C12E033A0319C52EDF2E08008C
:100DC0001030200065020318E62EE72E002F66087B
:100DD000303E860001308700010823009A00013070
:100DE000F00070082000E60710306602031CF92EA0
:100DF000FA2EFB2EE6010130F0007008E507022F05
:100E00002100111208000034003400340034003492
:100E10000034003400340034003400340034003432
:100E20000034003400340034003400340034003422
:100E30000034003400340034003400340034003412
:100E4000003400340034F90079088431D724873124
:100E5000003A03192C2F2D2F242F7808F300770840
:100E6000F20076088F31D12787318F310C278731F7
:100E70008731C1278731013A03193F2F402F382F7F
:100E80000800220090018C018D0140308E00083056
:100E900021009000FF308C00FF308D009C308E00D0
:100EA0003F3023008D0030308C00240090018D01F4
:100EB0002100951722009D01080020005A082100FA
:100EC000D200200059082100D10020005C08210038
:100ED000D40020005B082100D30002302000CB00AA
:100EE0000030CC00D1308131842187310800F200FC
:100EF000F301F30A2100BC187E2F7F2F8E2FBC1424
:100F0000F30172080319852F862F892FBA01BA0AB7
:100F10008B2F0230BA008E31FA2687317308080011
:100F20007B08203E860001308700230019088100DD
:100F30000130F0007008FB0710307B02031CA12F6A
:100F4000A22FA32FFB010130F00070082000E4075E
:100F5000080020009901E0309700C0309600111081
:100F60001708DE001608DD00210011140330F2001E
:100F70000030F3008F311627873141302000980070
:100F80000800F201F20A2100BC18C72FC82FD72F82
:100F90003C11FF30B6008E31F12687318E31F726B5
:100FA00087318E31F426873121003B08F200720828
:100FB000080020006108031DDE2FDF2FE72F6E08D9
:100FC0008531172587312000E101E10AEA2F8731B9
:100FD0005D278731080000302000D8000030D7009E
:100FE0000030D6000030D5005330F2000F30F3004F
:100FF0008F3116278731080016302100970008002E
:101DDC00200018140800200091110800240095120E
:101DEC00080021009111080024001614080021009D
:101DFC0091150800873190278F31080023001D12A0
:101E0C001D16080023001E0C013908000130873113
:101E1C0077278F3108000030873177278F31080002
:101E2C0073082100D6007208D50008007308200042
:101E3C00E0007208DF00080073082100D800720867
:101E4C00D700080073082100DC007208DB000800D2
:101E5C0073082100DA007208D90008007308210009
:101E6C00DE007208DD00080073082100E000720833
:101E7C00DF0008002434163424340B342C34103492
:101E8C002C340D342C3406342434003470302100BE
:101E9C009900980122009601080001302000D50716
:101EAC000030D63D0030D73D0030D83D080086319B
:101EBC0048268F318E31EE268F318731EB278F31CB
:101ECC00080020005808F5005708F4005608F300E5
:101EDC005508F200080084313B248F318731D92713
:101EEC008F318631BC268F3108007708F3007608D5
:101EFC00F2007808F4000230863198268F31080001
:101F0C008F31DF278F318F315D278F318F317127E3
:101F1C008F318C2F803152286400800101310130C7
:101F2C00FE020030FF3B7F087E04031D932F00341C
:101F3C00FE0012001E000130FE020030FF3B7F0845
:101F4C007E04031D9F2F00342100550856040319ED
:101F5C00B02FB12FB62F56088A0055080A008F31C2
:101F6C000800200011105E08F1005D08F0008F31B0
:101F7C00EF278F318F31AA278F3108002400951A53
:101F8C00C82FC92FD02F940108309500960113301B
:101F9C00920095160800F4002100BC1DD62FD72FF7
:101FAC00DE2F7408B7007308B9007208B800BC11B2
:101FBC000800873141278F318F314C278F31873182
:101FCC00FC278F318731A9278F31853155258F31EA
:101FDC0008002000181DF32FF42FFB2F1810710888
:101FEC009700700896001814FF2F7108970070085E
:101FFC0096000800013402340334043405340634EA
:04200C000F34103449
:020000040001F9
:08000000FF3FFF3FFF3FFF3F00
:04000E00EC3FDF3EA6
:00000001FF
