:0400000080315528CE
:100008007E1480310B1F09280A2853282100111E4D
:100018000E280F281A282000111E132814281A2821
:1000280061088A0060080A00803153282100911E67
:100038001E281F282A282000911E232824282A2821
:100048005F088A005E080A00803153282100921D4B
:100058002E282F283A282000921D332834283A28A1
:1000680044088A0043080A00803153282100911D62
:100078003E283F2845282000911D4328442845282C
:1000880034282100111C49284A2853282000111C13
:100098004E284F28532883315B23803153287E1004
:1000A800090080315728753084008330850062301C
:1000B8008600003087000030FF000C308331812338
:1000C8008031D4308400203085001C30FE0001309F
:1000D800FF0083318D238031FC01FD012030840035
:1000E800003085003630FE000030FF0083318D235C
:1000F8008031A0308400003085003030FE000030B0
:10010800FF0083318D2380317E1020008331DE2B68
:10011800843108248031003A031993289428C2288E
:10012800A128843131248031DE2884312C24803187
:10013800DE28843122248031DE2820002F08F700B1
:100148000630203E86008701413F8A00403F0A0072
:100158008031F800F9017908003A0319B4289D287C
:100168007808013A03199D28033A03199528013A9A
:1001780003199928073A03199D289D2820003C1047
:100188001730203E86008701403F84008501810AA0
:10019800000884313B24803101302000B80200304F
:1001A800B93B38083904031DDA28DB28DD28063076
:1001B800DE280330080020003708860087018431D4
:1001C8005E24803181000130F80078082000B707EC
:1001D8000130B8020030B93B380839040319F52852
:1001E800F628FB2884314824803105302129BC15A4
:1001F8000529843113248031212984311824803140
:1002080021292C08F70021088A0020080A008131DA
:10021800F800F9017908003A031913290129780827
:10022800013A03190129033A0319FD28013A031970
:10023800FD28073A03190129012908002100911214
:1002480064302000EE000130EF008331F02381316B
:10025800210011123E302000EE000230EF00833101
:10026800EA238131083023009F0090309D0024301C
:100278009E00CF309B009C016F302000EE000430C0
:10028800EF008331FC23813150302000EE00043030
:10029800EF008331F623813154302000EE00043022
:1002A800EF008431022481312000C901CD01CC0145
:1002B8001030CB00FD01FC01CA0121009116080095
:1002C8007D08A03E86008701810123001D1D6D2940
:1002D8006E2979297D08A03E8600870181142000B7
:1002E8005D088A005C080A00813123009D1C7D2975
:1002F8007E2989297D08A03E8600870101152000F6
:100308005B088A005A080A0081317D08A03E8600F1
:100318008701010803199129922999292000590870
:100328008A0058080A0081319C298231CD22813106
:1003380008002000BC15AD29843127248131C92942
:1003480084315B2481310330C929843122248131ED
:10035800C9292C08F70021088A0020080A008131E1
:10036800F800F9017908003A0319BB29A929780886
:10037800013A0319A929033A0319A029013A0319D3
:10038800A029073A0319A429A92908008431582467
:10039800813120003C1CD129D229DD29843108244F
:1003A8008131003A0319D929DA29DD290F302000D3
:1003B800BA0020003A08FA00FB01FA35FB0D60305C
:1003C8007A07840002307B3D80388500013F8A002F
:1003D800003F0A0081312000BA00080020003C10CC
:1003E8000230BB00FF29843127248131192A843146
:1003F80022248131192A2E08F7000430203E860075
:100408008701413F8A00403F0A008231F800F90124
:100418007908003A0319112AFB297808023A0319C6
:10042800F729013A0319F729FB290800F300700896
:1004380071040319202A212A302A7335203E8600A8
:1004480087017008C03F7108C13F73082C3E8600C1
:100458008701720881003D2A7335203E8600870196
:100468006C30C03F0430C13F73082C3E86008701C2
:1004780081010800103020004B020318442A452A45
:100488005D2A4C08C03E86008701010823009A00B7
:100498000130F00070082000CC0710304C02031C1B
:1004A800562A572A582ACC010130F0007008CB0789
:1004B8005F2A21001112080036340434B73403349B
:1004C800C83403348C340034DF340034D734033474
:1004D8009D340134313404342C3404342734043446
:1004E800223404341D3404341834043413340434EA
:1004F8000E340434F2340134220090018C018D0151
:1005080040308E00083021009000FF308C00FF3012
:100518008D009C308E003F3023008D0030308C00E1
:10052800240090018D012100951722009D010800EB
:1005380020009901E0309700C0309600111017088C
:10054800C2001608C100210011146E302000EE0010
:100558000430EF008331E4238231413020009800D9
:100568000800770886008701403FF000413FF1000E
:100578007708023E86008701010883314D238231C6
:100588000030F400F500F6018331992382310230FE
:1005980008007D08B03E8600870123001908810005
:1005A8000130F0007008FD0710307D02031CDD2AC1
:1005B800DE2ADF2AFD010130F00070082000CA079A
:1005C80008008331AE238231823180228231833127
:1005D800D023823184314024823182319C2282317D
:1005E80081312221823108002000181DFC2AFD2AB1
:1005F800042B181071089700700896001814082B1F
:10060800710897007008960008000130F00000306B
:10061800F100770883314D2383310030F400F50071
:10062800F601833199238331043008000230F00049
:100638000030F100770883314D2383310030F40016
:10064800F500F60183319923833102300800013027
:10065800F0000030F100770883314D2383310030FA
:10066800F400F500F6018331992383310230080044
:100678000230F0000030F100770883314D238331D8
:100688000030F400F500F6018331992383310430FA
:100698000800F2002000BC1D522B532B5A2B720865
:1006A800B7007108B9007008B800BC110800200034
:1006B80011104208F1004108F0008231F82283311C
:1006C8008331682383310800200056085704031932
:1006D8006E2B6F2B742B57088A0056080A0083313B
:1006E80008002434163424340B342C3410342C34BD
:1006F8000D342C34063424340034FE0012001E005D
:100708000130FE020030FF3B7F087E04031D822B70
:1007180000346400800101310130FE020030FF3BEB
:100728007F087E04031D8E2B00347508F1007408C1
:10073800F0007608F200003082311A228331080076
:1007480001302000BD070030BE3D0030BF3D003005
:10075800C03D08002400940108309500960113302C
:1007680092009512080020003C140314360D8431C1
:100778003B24833105300800013402340334043447
:10078800053406340F34103420003C1436358431D7
:100798003B24833103300800703021009900980110
:1007A80022009601080020003C1084316124833126
:1007B800043008008231E5228331E12B803155284D
:1007C80020006F08D7006E08D600080020006F08C8
:1007D800E1006E08E000080020006F08DF006E08E6
:1007E800DE00080020006F08DB006E08DA00080051
:1007F80020006F08DD006E08DC00080020006F088C
:10080800D9006E08D80008002400160E890C890C3F
:10081800013908002000BC10BB010E3008008431EB
:100828004C2484310930080084314C2484310A3046
:100838000800843148248431053008008431642458
:100848008431003008008431672484310130080085
:10085800843167248431023008008431672484316C
:10086800013008002000BC10BB010E300800F00069
:100878007008240091000800163021009700080035
:100888008131CA2184310800240096121616080006
:10089800240096161616080023001D121D160800BF
:1008A8008231CD22843108002000911108002000F7
:1008B8009115080024001108080024009615080066
:1008C80024001615080024009614080005300800B6
:0808D8000130080008000800CF
:020000040001F9
:08000000FF3FFF3FFF3FFF3F00
:04000E00EC3FDF3EA6
:00000001FF
