:1000000080315728053008007E1480310B1F0928E5
:100010000A2855282100111E0E280F281B28200011
:10002000111E132814281B28210058088A0057087D
:100030000A00803155282100911E1F2820282C28D5
:100040002000911E242825282C28210056088A00EB
:1000500055080A00803155282100921D302831288A
:100060003C282000921D352836283C2864088A0048
:1000700063080A00803155282100911D402841283D
:1000800047282000911D452846284728362821006A
:10009000111C4B284C2855282000111C5028512891
:1000A00055288D31E025803155287E10090080319A
:1000B0005928C73084008D308500DD30860000303F
:1000C00087000030FF000C308D31BB258031D430EB
:1000D0008400203085001C30FE000130FF008D318F
:1000E000AF258031FC01FD015F30840000308500C8
:1000F0001030FE000030FF008D31AF258031A03080
:100100008400003085002D30FE000030FF008D316E
:10011000AF25803120308400013085003030FE0072
:100120000030FF008D31AF2580317E1020008D31F1
:10013000A32DD23086002130870001088331D423DB
:10014000803120002108B7002008B6003708AF0032
:10015000D2308600213087000108B000B101D830CC
:10016000B2002030B30030083207B4003108333D0C
:10017000B50034088600350887002F08810001305B
:10018000AF00D2308600213087002F088107D2309F
:100190008600213087000108AF00B001D830B100DF
:1001A0002030B2002F083107B3003008323DB400D0
:1001B0003308860034088700360881000130AF001C
:1001C000D2308600213087002F088107D430860086
:1001D00020308700413102300102031CF028F12851
:1001E000F32822008E162000B801B9010B29D8305F
:1001F0002000AF002030B00038082F0786003908F3
:10020000303D8700010887313727803101302000D9
:10021000B8070030B93DD230860021308700390858
:10022000803AAF0080302F02031D182901083802E0
:10023000031C1B291C29F728D43086002030870096
:10024000413102300102031C262927295D298C3106
:10025000C0248031003A03192E292F292729E6309E
:10026000860021308700403F2000BA00413FBB009C
:10027000423FBC00433FBD0001302000AF000030D2
:10028000B0000030B1000030B2002F08BA023008D0
:10029000BB3B3108BC3B3208BD3B3A0A031D5A291F
:1002A0003B0A031D5A293C0A031D5A293D0A031D16
:1002B0005A295B293C2922008E12D2308600213037
:1002C000870081018E315D268031E2308600213049
:1002D000870020002008C03F2108C13F2208C23FFC
:1002E0002308C33FD83086002130870001308107C2
:1002F00041310318810A08002000DB00EA30860043
:10030000213087005108C03F5208C13F6908DC0016
:100310005C08031D8C298D298F290030482AD33091
:1003200086002130870001085C0603199829992965
:10033000B029D3308600213087005C0881008E31DF
:100340005D268131DE3086002130870020002008C4
:10035000C03F2108C13F2208C23F2308C33F8D2967
:10036000DE30860021308700403FD300413FD4007B
:10037000423FD500433FD6008E315D2681312000BB
:100380002008D7002108D8002208D9002308DA0065
:100390005308D7025408D83B5508D93B5608DA3BD6
:1003A0005A08031DDE295908031DDE295808031DBC
:1003B000DE29033057020318DE29DF29E0298D29C1
:1003C000D33086002130870081018431332481318C
:1003D0002000DD00D7308600203087005D088100D6
:1003E0005D08803A793E0318F629F729FA2920009A
:1003F0005D08482AD430860020308700D43084003D
:10040000203085000431000801060319082A092A52
:100410000A2A8D298231F02281312000DE005E0817
:100420000319132A142A292A5E0A0319182A192AD9
:10043000202A5E0887310C27813180319920813153
:10044000D73086002030870020005E0881005E08DB
:10045000482A8E315D268131E230860021308700C6
:1004600020002008C03F2108C13F2208C23F2308C6
:10047000C33FD430860020308700433181015B08C0
:10048000BE00BF015108C000823149228131F729E5
:100490000800D43086002030870046310108200053
:1004A000C100C2014108C200C101D4308600203021
:1004B0008700473141080104CC004208CD00D43008
:1004C00086002030870049310108CE004E35C1003A
:1004D000DA3086002030870041088100D230860063
:1004E00021308700033081004D08D0004C08CF0038
:1004F000DB2A5008C2004F08C100C135C20D4108B7
:100500003E07860042083F3D8700403FC300413F11
:10051000C4004408C500D23086002130870001089D
:10052000C600C701D830C8002030C90046084807B7
:10053000CA004708493DCB004A0886004B0887009F
:10054000450881000130C100D2308600213087008B
:10055000410881075008C2004F08C100C135C20DD3
:1005600041083E07860042083F3D87000108C3005E
:10057000D2308600213087000108C400C501D83080
:10058000C6002030C70044084607C8004508473D5C
:10059000C9004808860049088700430881000130E7
:1005A000C100D23086002130870041088107013028
:1005B000CF070030D03D4E084C07C1004D0803184E
:1005C0004D0AC20042085002031DE82A41084F02AA
:1005D000031CEB2AEC2A792A803199208231080009
:1005E000D23086002130870001082000AF00B00122
:1005F000D730B1002030B2002F0831078600300814
:10060000323D87000108B300B401D23086002130AA
:1006100087000108B500B601D630B7002030B80019
:100620003508370786003608383D87000108B900CD
:10063000BA013908BA00B90133083904BC003408DA
:100640003A04BD00D2308600213087000108FE3E0A
:100650008331D423823120003D082106031D322B33
:100660003C0820060319352B362B412BDA30860047
:10067000213087000130810741310318810AFF30A2
:10068000742BBE01BF01BF01D4308600203087002B
:1006900045313F08203E840090300318013E85001C
:1006A00000080106031D552B562B592BBE01BE0A0F
:1006B000632B0130AF002F08BF0708303F02031C37
:1006C000622B632B442B3E08031D672B682B732B77
:1006D000DA3086002130870001308107413103186C
:1006E000810A0130742B00300800E7302000A80098
:1006F0000230A9000030AA0088308631E12683311B
:100700008E315D26833120002308B9002208B8000D
:100710002108B7002008B6008E315D268331200005
:1007200036082002AC003708213BAD003808223BD8
:10073000AE003908233BAF002F08031DAB2B2E085A
:10074000031DAB2B2D08031DAB2B02302C02031C09
:10075000AA2BAB2B8C2B30302000A4000630A50038
:100760000030A60089308F31742783312000300893
:100770002100C800200031082100C70048082000DF
:10078000E200210047082000E10033082100C600F4
:10079000200034082100C50046082000E0002100A8
:1007A00045082000DF0008002000AA00FF30AD004F
:1007B000FF30AE00AB01AB01142C2B08A200A3014B
:1007C000D830A4002030A500220824078600230882
:1007D000253D87002D080106AD002E08AE00AC01B6
:1007E000AC0A01302D05A80000302E05A90001300B
:1007F000AE36AD0C890BF82B280829040319012CFF
:10080000022C062C0130AD06A030AE060130A2004D
:100810002208AC0709302C02031C0F2C102CF12BE2
:100820000130A2002208AB072A082B02031C192C56
:100830001A2CDD2B2E08A3002D08A2002308A200ED
:10084000A3012208A6002308A7002D08A300A201E7
:1008500026082204AD0027082304AE002E08A100BC
:100860002D08A00008002000A901D2308600213008
:10087000870081016B2C8731612784312000A20021
:10088000D2308600213087000108A300A401D830AF
:10089000A5002030A60023082507A7002408263D30
:1008A000A800270886002808870022088100013058
:1008B000A200D23086002130870022088107D23082
:1008C000860021308700FA300102031C682C692C55
:1008D0006B2CA901A90A6908031D6F2C702C3B2CF5
:1008E000D63086002130870001308107413103185E
:1008F000810A290803197D2C7E2C892CDA30860088
:10090000213087000130810741310318810AFD3011
:100910008E2CD2308600213087000108080020008C
:10092000E7018E315D2684318E315D2684312100D0
:10093000410820002002BA00210042082000213B8B
:10094000BB00210043082000223BBC0021004408DA
:100950002000233BBD003D08031DB82C3C08031DAF
:10096000B82CD0303A0207303B3B0318B82CB92CD6
:10097000BA2CE62C8E315D2684312000230821001C
:10098000C400200022082100C3002000210821000B
:10099000C200200020082100C1002000E701E70A72
:1009A0008331752384312000E21BD72CD82CDC2C1A
:1009B000E01FDB2CDC2CE62C0030E1008030E20074
:1009C0000030E1008030E2000230E70008008D31A5
:1009D00004258431003A0319EE2CEF2C1D2DFC2C3C
:1009E0008C31D2248431392D8C31D7248431392D66
:1009F0008C31E1248431392D21002F08F700063095
:100A0000A03E86008701413F8A00403F0A008531B1
:100A1000F800F9017908003A03190F2DF82C78082D
:100A2000013A0319F82C033A0319F02C013A03197F
:100A3000F42C073A0319F82CF82C21003C1017303D
:100A4000A03E86008701403F84008501810A00089E
:100A50008C31C824843101302100B8020030B93B08
:100A600038083904031D352D362D382D0630392D23
:100A7000033008002000A200A301A30A21003C19B2
:100A8000422D432D7D2D200022082100B600BC10F0
:100A90003C153C100E30BA00F430B4000130B50003
:100AA000BC158630A0000C30A100AC018630A2003D
:100AB0000C30A300AD018630A4000C30A500AE01BF
:100AC0008630A6000C30A700AF010230A80000302D
:100AD000A900B001BC302000A0000C30A1008D3175
:100AE0000A2585318C319D2485318D31ED25853167
:100AF0008C31A92485312000A3012000230808009F
:100B000021003708860087018C31912485318100CE
:100B10000130F80078082100B7070130B802003032
:100B2000B93B380839040319962D972D9C2D8C312B
:100B3000B82485310530C22DBC15A62D8C31F0248A
:100B40008531C22D8C31EB248531C22D2C08F70064
:100B500021088A0020080A008531F800F901790887
:100B6000003A0319B42DA22D7808013A0319A22DD9
:100B7000033A03199E2D013A03199E2D073A0319D2
:100B8000A22DA22D08002100911205302000A00006
:100B90000630A1008D315325853121001112953089
:100BA0002000A0000F30A1008D315C258531083078
:100BB00023009F0090309D0024309E00CF309B008A
:100BC0009C0185302000A0000C30A1008D31412512
:100BD0008531B0302000A0000C30A1008D314A25B5
:100BE0008531AC302000A0000C30A1008D313825BB
:100BF00085312000E801EE01ED011030EC00EB0141
:100C0000EA01E90121009116080020006B08203E4E
:100C1000860001308700810123001D1D102E112E3A
:100C20001E2E20006B08203E8600013087008114B4
:100C3000210054088A0053080A00863123009D1CB5
:100C4000222E232E302E20006B08203E86000130FD
:100C500087000115210052088A0051080A008631D8
:100C600020006B08203E8600013087000108031930
:100C70003A2E3B2E422E210050088A004F080A00CF
:100C80008631452E8E31EB26863108002000A000EB
:100C9000D4308600203087002008C03FD530860041
:100CA0002030870002308100DC3086002130870050
:100CB000E830C03F0330C13FE63086002130870076
:100CC0000030C03FC13FC23FC33FD2308600213019
:100CD00087008101D3308600213087008101DA301E
:100CE0008600213087000030C03FC13FD8308600E9
:100CF000213087000030C03FC13FD6308600213010
:100D000087000030C03FC13F0800003020000C18B1
:100D100001302100DC00003020008C18013021005F
:100D2000DB00003020000C1901302100DA00003017
:100D300020008C1901302100D9000830590520000D
:100D4000A000043021005A052000A100023021003B
:100D50005B052000A20021005C080139200022046C
:100D600021042004EF0008002100BC15C42E8C31A2
:100D7000DC248631E02E8C31942486310330E02E41
:100D80008C31E1248631E02E2C08F70021088A00FE
:100D900020080A008631F800F9017908003A0319A1
:100DA000D22EC02E7808013A0319C02E033A031937
:100DB000B72E013A0319B72E073A0319BB2EC02EDE
:100DC00008002000AB0020002B0885313A25863131
:100DD000003A0319EC2EED2EE32E20002A08A10084
:100DE0002908A00028088E31A52686310030200071
:100DF000A400A5000030A600A7008D3197258631FC
:100E00008C31FF2486318F311F278631013A031937
:100E10000A2F0B2F032F08002000A100D4308600DA
:100E20002030870045310108A200D43086002030F0
:100E300087000108A000D8308600203087002008F5
:100E400081002208803EA000D93086002030870033
:100E500020088100DA3086002030870021088100D8
:100E6000D230860021308700033081000800200046
:100E7000A1006C0803193D2F3E2F392F2100111AB4
:100E8000422F432F482F2000210823009A005E2F75
:100E9000111220006E08403E8600013087002108B4
:100EA00081000130A0002008EE0710306E02031C04
:100EB0005A2F5B2F5C2FEE010130EC02210011163E
:100EC0000800200069080319662F672F612F6A0840
:100ED000203E8600013087000108E8006A08303EA5
:100EE0008600013087000108A1000130A000200821
:100EF000EA0710306A02031C7E2F7F2F802FEA0141
:100F00002100911201302000E902210091162000F9
:100F1000210808008C319724873121003C1C912F37
:100F2000922F9D2F8D3104258731003A0319992F77
:100F30009A2F9D2F0F302100BA0021003A08FA00A5
:100F4000FB01FA35FB0D00307A07840010307B3D41
:100F500080388500013F8A00003F0A008731210068
:100F6000BA00080021003C100230BB00BF2F8C31BA
:100F7000DC248731D92F8C31E1248731D92F2E08F9
:100F8000F7000430A03E86008701413F8A00403FC1
:100F90000A008731F800F9017908003A0319D12FC6
:100FA000BB2F7808023A0319B72F013A0319B72F5C
:100FB000BB2F08002000A300200821040319E12F03
:100FC000E22FF12F2335A03E860087012008C03F85
:100FD0002108C13F2308AC3E86008701220881001A
:100FE000FE2F2335A03E860087018630C03F0C309F
:100FF000C13F2308AC3E860087018101080008003C
:10190A000800013008002400961408002400161567
:10191A000800240096150800240011080800200079
:10192A0091150800200091110800200018140800E1
:10193A00200091110800240095120800210091113D
:10194A0008002400161408002100911508008E31A1
:10195A00EB268C31080023001D121D1608002400F6
:10196A0096161616080024009612161608008731D5
:10197A008A278C31080023001E0C01390800163012
:10198A00210097000800F000700824009100080068
:10199A002100BC10BB010E3008008C3188248C3128
:1019AA00013008008C3188248C31023008008C31D7
:1019BA0088248C31013008008C318B248C31003022
:1019CA0008008C31B8248C31053008008C31B424DD
:1019DA008C310A3008008C31B4248C31093008006B
:1019EA002100BC10BB010E30080001308F31562790
:1019FA008C31080000308F3156278C3108002400C2
:101A0A00160E890C890C0139080020002108E4000F
:101A1A002008E300080021003C108C318E248D310F
:101A2A0004300800703021009900980122009601C4
:101A3A00080021003C1436358C31C8248D3103301E
:101A4A00080021003C140314360D8C31C8248D3152
:101A5A0005300800200021082100CE0020002008BF
:101A6A002100CD000800200021082100D00020001C
:101A7A0020082100CF000800200021082100D400FE
:101A8A00200020082100D30008002000210821009E
:101A9A00D200200020082100D100080020002108DF
:101AAA002100D600200020082100D50008002000CF
:101ABA0021082100D800200020082100D7000800B2
:101ACA002400940108309500960113309200951273
:101ADA00080001302100BD070030BE3D0030BF3D87
:101AEA000030C03D0800863185268D318C319A241C
:101AFA008D318E316E268D31080084318F248D31DF
:101B0A008E3180268D318F31DC278D3108007508A2
:101B1A00F1007408F0007608F20000308F31B8271F
:101B2A008D31080020002508A1002408A0002608FD
:101B3A00A20002308731DA278D3108008E319226D1
:101B4A008D318D3178258D318D3182258D31A92DBB
:101B5A00803157286400800101310130FE020030D3
:101B6A00FF3B7F087E04031DB02D0034FE001200E7
:101B7A001E000130FE020030FF3B7F087E04031D79
:101B8A00BC2D00342434163424340B342C34103451
:101B9A002C340D342C3406342434003421004D08FE
:101BAA004E040319D92DDA2DDF2D4E088A004D086F
:101BBA000A008D310800200011107D08F1007C0810
:101BCA00F0008E314C268D318D31D3258D310800B0
:101BDA002400951AF12DF22DF92D94010830950063
:101BEA0096011330920095160800F2002100BC1DE0
:101BFA00FF2D002E072E7208B7007108B900700871
:101C0A00B800BC1108000230F0000030F10077087B
:101C1A008D31FA258E310030F400F500F6018D3150
:101C2A008C258E31043008000130F0000030F100BC
:101C3A0077088D31FA258E310030F400F500F6016F
:101C4A008D318C258E31023008000230F0000030D0
:101C5A00F10077088D31FA258E310030F400F50055
:101C6A00F6018D318C258E31023008000130F000EA
:101C7A000030F10077088D31FA258E310030F400FA
:101C8A00F500F6018D318C258E31043008002000D4
:101C9A00181D502E512E582E1810710897007008D2
:101CAA00960018145C2E71089700700896000800B8
:101CBA00210040082000A30021003F082000A200C4
:101CCA0021003E082000A10021003D082000A000BC
:101CDA00080000302100C0000030BF000030BE0004
:101CEA000030BD006E302000A0000D30A1008D3103
:101CFA002F258E31080020006608031D852E862EAA
:101D0A008E2E6F08863146268E312000E601E60ABD
:101D1A00912E8F3105278E3108008D3165258E3140
:101D2A008F313A278E318D3117258E318C31C4246B
:101D3A008E318E31D2268E318531C3258E310800FF
:101D4A002000A2002100BC1DAB2EAC2EB92E200013
:101D5A0022082100B700200021082100B900200034
:101D6A0020082100B800BC11080077088600870106
:101D7A00403FF000413FF1007708023E86008701AC
:101D8A0001088D31FA258E310030F400F500F60194
:101D9A008D318C258E310230080020009901E03007
:101DAA009700C030960011101708FD001608FC00B5
:101DBA0021001114FF302000A0000730A1008D314E
:101DCA002F258E31413020009800080020006B0832
:101DDA00303E860001308700230019088100013057
:101DEA00F00070082000EB0710306B02031CFE2E77
:101DFA00FF2E002FEB010130F0007008E907080000
:101E0A00200062082100CA00200061082100C900E0
:101E1A00200060082100CC0020005F082100CB00D0
:101E2A0002302000D1000030D200C93081317C213B
:101E3A008F3108002000A001A00A2100BC18262F1B
:101E4A00272F372F3C11FF30B6008C319D248F315C
:101E5A008C31A3248F318C31A0248F3121003B088F
:101E6A002000A000200020080800220090018C0118
:101E7A008D0140308E00083021009000FF308C0028
:101E8A00FF308D009C308E003F3023008D003030B3
:101E9A008C00240090018D012100951722009D01DC
:101EAA0008002000A000A101A10A2100BC185E2F91
:101EBA005F2F712FBC142000A10120080319662F7F
:101ECA00672F6B2F2100BA01BA0A6E2F0230210048
:101EDA00BA008C31A6248F31200021080800200086
:101EEA00A7002000270885313A258F31003A0319C7
:101EFA007F2F802F762F20002608A1002508A0001A
:101F0A0024088E31A5268F318C31FA248F318F31F6
:101F1A001F278F31013A0319932F942F8C2F080012
:101F2A00103020006C0203189B2F9C2FB52F6D08D0
:101F3A00403E860001308700010823009A000130E4
:101F4A00F00070082000ED0710306D02031CAE2F60
:101F5A00AF2FB02FED010130F0007008EC07B72F5A
:101F6A00210011120800F300700871040319BE2F32
:101F7A00BF2FCE2F7335A03E860087017008C03F61
:101F8A007108C13F7308AC3E860087017208810060
:101F9A00DB2F7335A03E860087018630C03F0C30A8
:101FAA00C13F7308AC3E8600870181010800E92F12
:101FBA0022008E140E14FF2F22008E100E14FF2FF3
:101FCA0022008E140E10FF2F20006708A000A10126
:101FDA00A01BA1032108003A0319F42FFF2F2008A0
:101FEA00003A0319DD2F013A0319E12F033A0319C5
:101FFA00E52FFF2F0800CD340C3426340D341E345F
:10200A000D34E73404348034053410340D34B434D8
:10201A000634D2340C34D7340C34DC340C34E13486
:10202A000C34E6340C34EB340C34F0340C34F53420
:10203A000C34B23407340134023403340434053422
:06204A0006340F341034CF
:020000040001F9
:08000000FF3FFF3FFF3FFF3F00
:04000E00EC3FDF3EA6
:00000001FF
