:0400000080314828DB
:100008007E1480310B1F09280A2846282100111E5A
:100018000E280F281A282000111E132814281A2821
:100028006F088A006E080A00803146282100911E58
:100038001E281F282B282000911E232824282B281F
:10004800210027088A0026080A0080314628210056
:10005800921D2F2830283B282000921D342835284F
:100068003B2859088A0058080A0080314628210090
:10007800911D3F28402846282000911D44284528E6
:10008800462835287E10090080314A28903084009F
:100098008230850062308600003087000C30823163
:1000A800CD228031F001F101F201F301F401F501F3
:1000B800F601203084000030850042308231D3229E
:1000C8008031A83084000030850008308231D32286
:1000D80080317E1020008231D92A8231F722803186
:1000E800003A031978287928A928862883312023FB
:1000F8008031C82883311B238031C82883311123DC
:100108008031C82820003308F8003208F70006308C
:10011800203E86008701413F8A00403F0A00803127
:10012800F800F9017908003A03199B288228780811
:10013800013A03198228033A03197A28013A031964
:100148007E28073A031982288228200043103E0897
:10015800F9003D08F800BD0A0319BE0A78088600B0
:1001680079088700010883312A2380310130200073
:10017800BF020030C03B3F084004031DC428C52807
:10018800C7280630C8280330080083314D23803142
:10019800F7001D30203E86008701403F8400413F24
:1001A80085007708800001302000BD070030BE3D83
:1001B8000130BF020030C03B3F0840040319E52866
:1001C800E628EB2883313723803105301329C315FE
:1001D800F5288331022380311329833107238031A5
:1001E80013292D08F8002C08F70021088A00200898
:1001F8000A008031F700F8017808003A0319052948
:10020800F1287708013A0319F128033A0319ED2870
:10021800013A0319ED28073A0319F128F1280800D3
:10022800210091125330B0000130B1008231DF2239
:100238008131210011122D30B0000230B10082311D
:10024800A5228131083023009F0090309D00243082
:100258009E00CF309B009C015D302100B000033030
:10026800B1008231EB2281313F302100B0000330F0
:10027800B1008231E522813143302100B0000330E2
:10028800B1008231F1228131F001F601F501083027
:10029800F400F301F201F10121009116080073083E
:1002A800443E86008701810123001D1D5C295D29CC
:1002B80068297308443E86008701811421002508B7
:1002C8008A0024080A00813123009D1C6C296D29AD
:1002D80078297308443E8600870101152100230808
:1002E8008A0022080A0081317308443E860087018B
:1002F80001080319802981298829210021088A00F9
:1003080020080A0081318B29823169228131080055
:100318002000C3159C29833116238131BA298331E2
:100328004A2381310330BA29833111238131BA2913
:100338002D08F8002C08F70021088A0020080A0078
:100348008131F700F8017808003A0319AC29982997
:100358007708013A03199829033A03198F29013AB2
:1003680003198F29073A03199329982908002000AF
:1003780043100230C200C829833116238131E42991
:10038800833111238131E4293108F8003008F7005E
:100398000430203E86008701413F8A00403F0A0022
:1003A8008131F700F8017808003A0319DC29C429DB
:1003B8007708023A0319C029013A0319C029C42948
:1003C80008008331472381312000431CEC29ED29A3
:1003D800F8298231F7228131003A0319F429F529E5
:1003E800F8290F302000C10020004108FA00FB0165
:1003F800FA35FB0D0D307A07840002307B3D8038DA
:100408008500013F8A00003F0A0082312000C100B8
:10041800080025340334AE340234B734023471345E
:100428000034C9340034C63402348C3401342034E6
:1004380003341B34033416340334113403340C34BA
:1004480003340734033402340334FD340234BB3438
:100458000134083074020318322A332A4A2A7508EC
:100468004C3E86008701010823009A000130F700FE
:100478007708F50708307502031C432A442A452AE1
:10048800F5010130F7007708F4074C2A2100111212
:100498000800220090018C018D0140308E00083048
:1004A80021009000FF308C00FF308D009C308E00C2
:1004B8003F3023008D0030308C00240090018D01E6
:1004C8002100951722009D0108007308A83E8600A8
:1004D80087012300190881000130F7007708F30726
:1004E80008307302031C792A7A2A7B2AF301013027
:1004F800F7007708F107080082319C2282318231A7
:100508004D2282318231BF22823183312F238231C1
:100518008131142182310800163424340B342434F8
:100528000034243410342C340D342C3406342C3458
:10053800240094010830950096011330920095121A
:100548000800210031082000EF00210030082000B9
:10055800EE0008002000431403143C0D83312A23C5
:10056800823105300800200043143C3583312A23AA
:100578008231033008007030210099009801220070
:100588009601080020004310833150238231043043
:100598000800FE0012001E00FE0BCE2A0034640084
:1005A80080010131890BD42A0034823180228231C2
:1005B800DC2A8031482821003108A7003008A6002D
:1005C800080021003108A3003008A200080021001B
:1005D8003108A5003008A400080021003108A10056
:1005E8003008A00008002400160E890C890C013977
:1005F80008002000C310C2010E30080083313B23DD
:1006080083310930080083313B2383310A300800E5
:1006180083313723833105300800833153238331F5
:1006280000300800833156238331013008008331BC
:100638005623833102300800833156238331013039
:1006480008002000C310C2010E300800F700770828
:10065800240091000800163021009700080081311D
:10066800E52183310800240096121616080024009C
:1006780096161616080023001D121D160800823152
:10068800692283310800200091110800200091158B
:10069800080024001108080024009615080024000A
:1006A80016150800240096140800053008000130CB
:0406B800080008002E
:020000040001F9
:08000000FF3FFF3FFF3FFF3F00
:04000E00E43FFF3E8E
:00000001FF
