:1000000080315828053008007E1480310B1F0928E4
:100010000A2856282100111E0E280F281B28200010
:10002000111E132814281B2821006A088A00690859
:100030000A00803156282100911E1F2820282C28D4
:100040002000911E242825282C28210068088A00D9
:1000500067080A00803156282100921D3028312877
:100060003D282000921D352836283D2821006C08A7
:100070008A006B080A00803156282100911D412812
:10008000422848282000911D46284728482836281D
:100090002100111C4C284D2856282000111C5128E5
:1000A0005228562893319223803156287E10090019
:1000B00080315A2879308400933085005E30860084
:1000C000013087000030FF000C3093316D23803108
:1000D0003830840021308500B830FE000030FF0049
:1000E000933161238031FC01FD01E901EA01EB015B
:1000F000EC01ED01EE01EF01D73084000030850006
:100100001930FE000030FF00933161238031203030
:100110008400013085003E30FE000030FF00933146
:10012000612380317E1020009331AE2B20003108F6
:100130008039BB003135C100B01F9F28A028A128FD
:10014000411441080319A528A628B528410A031D12
:10015000AA28AB28B3280030B1000030B00000302E
:10016000AF000030AE00B017BD280030B100003045
:10017000B0000030AF000030AE0035088039B60066
:100180003608BB063535C000B41FC728C828C928A3
:10019000401440080319CD28CE28DD28400A031D4D
:1001A000D228D328DB280030B5000030B40000305E
:1001B000B3000030B200B417E5280030B5000030BD
:1001C000B4000030B3000030B20040080319E92841
:1001D000EA28EF284108031DEE28EF28F828003010
:1001E000B1000030B0000030AF000030AE00D02AC7
:1001F0002E08A000340895317B258031200021088D
:10020000C7002008C6004608B600B701B801B9010A
:100210003908BF003808BE003708BD003608BC00EA
:100220004708B600B701B801B9013908C500380858
:10023000C4003708C3003608C2002F08A0003308E6
:1002400095317B25803120002108C7002008C60099
:100250004608B600B701B801B9013608BC0737082F
:10026000BD3D3808BE3D3908BF3D4708B600B7015F
:10027000B801B9013608C2073708C33D3808C43D84
:100280003908C53D3008A000320895317B25803102
:1002900020002108C7002008C6004608B600B701A4
:1002A000B801B9013608BC073708BD3D3808BE3D66
:1002B0003908BF3D4708B600B701B801B901360893
:1002C000C2073708C33D3808C43D3908C53D08306A
:1002D000BC35BD0DBE0DBF0D890B68292F08A000D0
:1002E000320895317B25803120002108C700200885
:1002F000C6004608BC074708BD3D0030BE3DBF3DB7
:100300002E08A000330895317B258031200021087C
:10031000C7002008C6004608BC074708BD3D00309E
:10032000BE3DBF3D0830BC35BD0DBE0DBF0D890BB8
:1003300093292E08A000320895317B2580312000BA
:100340002108C7002008C6004608BC074708BD3D75
:100350000030BE3DBF3D2F08A000340895317B25FD
:10036000803120002108C7002008C6004608C207C7
:100370004708C33D0030C43DC53D3008A0003308E8
:1003800095317B25803120002108C7002008C60058
:100390004608C2074708C33D0030C43DC53D30088C
:1003A000A000340895317B25803120002108C7004A
:1003B0002008C6004608B6004708B700B801B901D2
:1003C0000830B635B70DB80DB90D890BE1293608DF
:1003D000C2073708C33D3808C43D3908C53D3C084D
:1003E000B6003D08B7003E08B8003F08B900183015
:1003F000B936B80CB70CB60C890BF8293608C20709
:100400003708C33D3808C43D3908C53D0830BC3500
:10041000BD0DBE0DBF0D890B072A41084007B60070
:10042000B701B70D3608823EC600FF30373DC70022
:10043000302A0130C235C30DC40DC50D890B1A2AEF
:10044000BF1F232A242A252A42140130BC35BD0DA2
:10045000BE0DBF0D890B262AFF30C607FF30C73DF2
:10046000C41F332A342A192AC001BF1F382A392A47
:10047000552AFF303C05B600FF303D05B700FF3080
:100480003E05B8007F303F05B9003908380437040D
:10049000360403194C2A4D2A502AC001C00A552A95
:1004A000421C532A542A552A4D2A40080319592A16
:1004B0005A2A822A0130C2070030C33D0030C43DB1
:1004C0000030C53D451C652A662A822A4208B600CE
:1004D0004308B7004408B8004508B9000130BA0025
:1004E000B937B80CB70CB60CBA0B702A3908C5006E
:1004F0003808C4003708C3003608C2000130C607F8
:100500000030C73D4708803AB60080303602031DF0
:100510008B2AFF304602031C8E2A8F2A992A7F30AD
:100520002000C5008030C4000030C3000030C2008D
:10053000C42A20004708803AB60080303602031DE6
:10054000A32A013046020318A62AA72AB22A00309D
:100550002000C5000030C4000030C3000030C200DD
:10056000BB01C42A20004608C100FF30C205FF308D
:10057000C3057F30C4050030C505411CC02AC12A0F
:10058000C22AC4174136C5003B08B6003608C50468
:100590004508B1004408B0004308AF004208AE006F
:1005A00008002100DB01DC01DD01DE0168302000F4
:1005B000A8000230A9000030AA00443088310D2084
:1005C0008231B5302000A4000630A5000030A6001E
:1005D000443095315825823121003608AD00AE01F6
:1005E000AF01B00130082000A30021002F08200037
:1005F000A20021002E082000A10021002D082000CB
:10060000A00001308C318524823120002308CB00EA
:100610002208CA002108C9002008C8004330B100E0
:100620008030B0000030AF000030AE00210035084F
:10063000B100B201B301B40134082000A3002100CD
:1006400033082000A200210032082000A100210070
:1006500031082000A00001308C3185248231200037
:100660002308B5002208B4002108B3002008B20016
:1006700080319620823120003108CF003008CE0032
:100680002F08CD002E08CC008431E22482312000D6
:100690004B082100C60020004A082100C5002000A8
:1006A00049082100C400200048082100C300C230CE
:1006B0002000CB003430CA000030C9000030C80030
:1006C0004730DF007F30DE00FF30DD000030DC002F
:1006D0004330B1002F30B0000030AF000030AE002A
:1006E000210046082000B500210045082000B40084
:1006F000210044082000B300210043082000B2007C
:1007000080319620823120003108E3003008E20079
:100710002F08E1002E08E0008D31FC2582312000F9
:100720005F08CF005E08CE005D08CD005C08CC00FD
:100730008431E224823120004B082100CA002000CD
:100740004A082100C900200049082100C8002000F3
:1007500048082100C70041302000B1002030B0001F
:100760000030AF000030AE0021004A082000B50084
:10077000210049082000B400210048082000B300EF
:10078000210047082000B2008031962082312000ED
:1007900031082100BE00200030082100BD002000EB
:1007A0002F082100BC0020002E082100BB003E08BD
:1007B0002000A30021003D082000A20021003C08E9
:1007C0002000A10021003B082000A0008A31542213
:1007D0008231200021082100DC00200020082100B7
:1007E000DB003908AD00AE01AF01B00130082000D8
:1007F000A30021002F082000A20021002E082000C5
:10080000A10021002D082000A00001308C3185249A
:10081000823120002308CB002208CA002108C90029
:100820002008C8004330B1008030B0000030AF0075
:100830000030AE0021003808B100B201B301B401AC
:1008400034082000A300210033082000A20021006A
:1008500032082000A100210031082000A000013052
:100860008C318524823120002308B5002208B40091
:100870002108B3002008B200803196208231200088
:100880003108CF003008CE002F08CD002E08CC0054
:100890008431E224823120004B082100C600200070
:1008A0004A082100C500200049082100C40020009A
:1008B00048082100C30047302000DF007F30DE0001
:1008C000FF30DD000030DC004230B100C830B00045
:1008D0000030AF000030AE00210046082000B50017
:1008E000210045082000B400210044082000B30086
:1008F000210043082000B200803196208231200080
:100900003108E3003008E2002F08E1002E08E00083
:100910008D31FC25823120005F082100CA002000B3
:100920005E082100C90020005D082100C8002000E9
:100930005C082100C70041302000B1002030B00029
:100940000030AF000030AE0021004A082000B500A2
:10095000210049082000B400210048082000B3000D
:10096000210047082000B20080319620823120000B
:1009700031082100C200200030082100C100200001
:100980002F082100C00020002E082100BF004208CF
:100990002000A300210041082000A20021004008FF
:1009A0002000A10021003F082000A0008A3154222D
:1009B0008231200021082100DE00200020082100D3
:1009C000DD00080020004B088039D8004B35DA00E4
:1009D000CA1FEB2CEC2CED2C5A145A080319F12CDD
:1009E000F22C022D5A0A031DF62CF72CFF2C003096
:1009F000CB000030CA000030C9000030C800CA1760
:100A0000CB010A2D0030CB000030CA000030C900F5
:100A10000030C8004F088039D9005908580603191A
:100A2000122D132D142D58174F35D900CE1F192D07
:100A30001A2D1B2D5914590803191F2D202D302D47
:100A4000590A031D242D252D2D2D0030CF000030F7
:100A5000CE000030CD000030CC00CE17CF01382DB5
:100A60000030CF000030CE000030CD000030CC0090
:100A70005A08590203183D2D3E2D642D581F412D53
:100A8000422D462D8030D0005008D8065A08DB0091
:100A90005908DA005B08D9004808DB004C08C80098
:100AA0005B08CC004908DB004D08C9005B08CD009D
:100AB0004A08DB004E08CA005B08CE004B08DB008A
:100AC0004F08CB005B08CF00DB015908D000D101F3
:100AD0005108D3005A085002D200031CD303530814
:100AE000803AD40080305402031D782D1A3052020F
:100AF000031C7B2D7C2DAE2D20004B084A0449049D
:100B00004804031D842D862D0130872D0030DB0025
:100B10000030CB000030CA000030C9000030C800EF
:100B20005908DA00B52D5B1C962D972D9B2D5B3651
:100B30000138DB009D2D0310DB0C481CA02DA12DDE
:100B4000A22DDB170130D000CB37CA0CC90CC80C62
:100B5000D00BA42D0130D0005008DA07200059082E
:100B60005A02031CB42DB52D932D581BB82DB92D49
:100B7000EF2D5A08031DBD2DBE2DC72D0030CB0013
:100B80000030CA000030C9000030C800E92E4C080F
:100B9000C8074D08C93D4E08CA3D4F08CB3D4B1C08
:100BA000D22DD32D7B2E5B1CD62DD72DDB2D5B3686
:100BB0000138DB00DD2D0310DB0C481CE02DE12D9E
:100BC000E22DDB170130D000CB37CA0CC90CC80CA2
:100BD000D00BE42D0130D0005008DA077B2E4B08F3
:100BE000803AD0004F08803A5002031D012E4E0873
:100BF0004A02031D012E4D084902031D012E4C0817
:100C000048020318042E052E3D2EFF30D000FF3081
:100C1000D100FF30D200FF30D30048084C02D4008E
:100C200049084D3BD5004A084E3BD6004B084F3B88
:100C3000D7005408D0075508D13D5608D23D570873
:100C4000D33D5308CB005208CA005108C9005008D0
:100C5000C8008030D0005008D806DB09DB0A5B08EA
:100C6000031D332E342E452E0130C8070030C93DF8
:100C70000030CA3D0030CB3D452E4C08C8024D081F
:100C8000C93B4E08CA3B4F08CB3B4B084A044904BA
:100C90004804031D4C2E4D2E772E5B08031D512E4C
:100CA000522E772E0030CB000030CA000030C90031
:100CB0000030C800E92E0130C835C90DCA0DCB0D72
:100CC000890B5C2EDB1F652E662E672E48145B1C7D
:100CD0006A2E6B2E6E2E0314DB0D702E0310DB0DAF
:100CE0005A080319742E752E772E0130DA02CA1FA6
:100CF0007A2E7B2E5B2ED901DB1F7F2E802E8E2E2F
:100D00005B087F390319852E862E892ED901D90AD1
:100D10008E2E481C8C2E8D2E8E2E862E5908031951
:100D2000922E932EC02E0130C8070030C93D0030EE
:100D3000CA3D0030CB3D4B1C9E2E9F2EC02E480836
:100D4000D0004908D1004A08D2004B08D300013036
:100D5000D400D337D20CD10CD00CD40BA92E53080D
:100D6000CB005208CA005108C9005008C8005A0AEE
:100D70000319BB2EBC2EC02E0130D0005008DA075C
:100D80005A0A0319C42EC52ECA2E5A08031DC92E8D
:100D9000CA2ED82E0030CB000030CA000030C90067
:100DA0000030C8005A08031DD62ED72ED82ED801E1
:100DB0005A1CDB2EDC2EDE2ECA17E22E7F30D0002E
:100DC0005008CA055A36CB00D81FE72EE82EE92E68
:100DD000CB170800D2308600213087000108893106
:100DE0008721863120002108B7002008B600370887
:100DF000AF00D2308600213087000108B000B10179
:100E00003C30B2002130B30030083207B400310862
:100E1000333DB50034088600350887002F0881006F
:100E20000130AF00D2308600213087002F088107C3
:100E3000D2308600213087000108AF00B0013C307D
:100E4000B1002130B2002F083107B3003008323D25
:100E5000B40033088600340887003608810001306A
:100E6000AF00D2308600213087002F08810738304C
:100E7000860021308700413102300102031C412FDE
:100E8000422F442F22008E162000B801B9015C2F9A
:100E90003C302000AF002130B00038082F0786001A
:100EA0003908303D870001089631412686310130EE
:100EB0002000B8070030B93DD230860021308700CD
:100EC0003908803AAF0080302F02031D692F0108D6
:100ED0003802031C6C2F6D2F482F383086002130CC
:100EE0008700413102300102031C772F782FAE2F8B
:100EF00092317A228631003A03197F2F802F782F82
:100F0000E630860021308700403F2000BA00413F94
:100F1000BB00423FBC00433FBD0001302000AF009A
:100F20000030B0000030B1000030B2002F08BA022B
:100F30003008BB3B3108BC3B3208BD3B3A0A031DBD
:100F4000AB2F3B0A031DAB2F3C0A031DAB2F3D0A01
:100F5000031DAB2FAC2F8D2F22008E12D2308600B6
:100F60002130870081019331CE238631E230860023
:100F70002130870020002008C03F2108C13F2208FF
:100F8000C23F2308C33FD83086002130870001309C
:100F9000810741310318810A0800E42F22008E14D2
:100FA0000E14FB2F031022008E1C03140318D92FDC
:100FB000DC2F22008E14DE2F22008E100E14FB2F49
:100FC00022008E140E10FB2F21006E082000A000BE
:100FD000A101A01BA1032108003A0319F02FFB2F48
:100FE0002008003A0319CE2F013A0319D22F033AF1
:100FF0000319E02FFB2F08001E3021009700080086
:101000002400951A042805280C289401083095001E
:1010100096019F309200951608002000AB0020003A
:101020002B08973173278831003A0319182819289B
:101030000F2820002808A0000130A1002A08A300E2
:101040002908A20094316324883100302000A400D4
:10105000A5000030A600A7009331492388319231C2
:10106000B52288319431E0248831013A03193928B6
:101070003A283228080092314B228831F800173084
:10108000203E860001308700403F8400413F8500BC
:101090007808800001302200B7070030B83D0130E9
:1010A000B9020030BA3B39083A04031958285928C4
:1010B0005E2892317222883105308428BD15682857
:1010C0009231A622883184289231A1228831842845
:1010D0002C08F70021088A0020080A008831F8004F
:1010E000F9017908003A0319762864287808013A4A
:1010F00003196428033A03196028013A0319602888
:10110000073A03196428642808002000A00038303A
:101110008600213087002008C03F3930860021300A
:10112000870002308100DC30860021308700E83003
:10113000C03F0330C13FE6308600213087000030D9
:10114000C03FC13FC23FC33F3830860021308700D7
:10115000413102300102031CAE28AF28B228220020
:101160008E12B42822008E16D230860021308700DD
:101170008101D3308600213087008101DA3086007A
:10118000213087000030C03FC13FD8308600213079
:1011900087000030C03FC13FD63086002130870035
:1011A0000030C03FC13F08009231BA228831003A76
:1011B0000319DB28DC280B29E928923188228831A1
:1011C0002A2992318D2288312A2992319722883119
:1011D0002A2922002F08F7000630203E8600013021
:1011E0008700413F8A00403F0A008831F800F9013A
:1011F0007908003A0319FD28E5287808013A03190F
:10120000E528033A0319DD28013A0319E128073AD2
:101210000319E528E52822003D103808F9003708B1
:10122000F800B70A0319B80A780886007908870019
:10123000010892317E22883101302200B90200304B
:10124000BA3B39083A04031D2629272929290630E3
:101250002A29033008002000A901D230860021305D
:1012600087008101632996316B2689312000A20015
:10127000D2308600213087000108A300A4013C3051
:10128000A5002130A60023082507A7002408263D35
:10129000A80027088600280887002208810001305E
:1012A000A200D23086002130870022088107D23088
:1012B00086002130870096300102031C60296129D5
:1012C0006329A901A90A6A08031D67296829332926
:1012D000D630860021308700013081074131031864
:1012E000810A29080319752976298129DA308600AF
:1012F000213087000130810741310318810AFD3018
:101300008629D2308600213087000108080020009D
:10131000AA00FF30AD00FF30AE00AB01AB01C72922
:101320002B08A200A3013C30A4002130A500220814
:10133000240786002308253D87002D080106AD00FF
:101340002E08AE00AC01AC0A01302D05A80000301B
:101350002E05A9000130AE36AD0C890BAB2928084B
:1013600029040319B429B529B9290130AD06A030E3
:10137000AE060130A2002208AC0709302C02031C83
:10138000C229C329A4290130A2002208AB072A08D8
:101390002B02031CCC29CD2990292E08A3002D084F
:1013A000A2002308A200A3012208A6002308A70088
:1013B0002D08A300A20126082204AD00270823045B
:1013C000AE002E08A1002D08A0000800003020006B
:1013D0000C180130A00000308C180130A100003042
:1013E0000C190130A20000308C190130A300200339
:1013F000031DFB29FC290E2A2108031D002A012AAE
:101400000E2A2208031D052A062A0E2A2308031D78
:101410000A2A0B2A0E2AE901E90A532A2008031D89
:10142000122A132A252A2103031D172A182A252ADE
:101430002208031D1C2A1D2A252A2308031D212AF0
:10144000222A252A0230E900532A2008031D292ACE
:101450002A2A3C2A2108031D2E2A2F2A3C2A22034D
:10146000031D332A342A3C2A2308031D382A392A2B
:101470003C2A0330E900532A2008031D402A412A50
:10148000532A2108031D452A462A532A2208031DF0
:101490004A2A4B2A532A2303031D4F2A502A532A30
:1014A0000430E900532A080003102000220D230D08
:1014B000A9002908031D5D2A5E2A672A0030A300BF
:1014C0000030A2000030A1000030A000C42A200893
:1014D000A4002108A5002208A6002308A7001F30A9
:1014E000A736A60CA50CA40C890B702A2408A8000A
:1014F000A217FF30A005FF30A105FF30A205003084
:10150000A3059630A902A91F862A872A9F2A29089F
:10151000803A973E03188D2A8E2A8F2A5E2A013040
:10152000A336A20CA10CA00C890B902A0130A400B8
:101530002408A907031D9D2A9E2A8F2AB42A203039
:101540002902031CA42AA52AAF2A5E2A0130A0354D
:10155000A10DA20DA30D890BA72A0130A90229080C
:10156000031DB32AB42AA62A28080319B82AB92ABF
:10157000C42AA009A109A209A309A00A0319A10A62
:101580000319A20A0319A30A0800D23086002130E9
:10159000870001082000AF00B0013B30B1002130CE
:1015A000B2002F08310786003008323D870001085D
:1015B000B300B401D2308600213087000108B500A5
:1015C000B6013A30B7002130B80035083707860039
:1015D0003608383D87000108B900BA013908BA0059
:1015E000B90133083904BC0034083A04BD00D230D4
:1015F0008600213087000108FE3E893187218A312B
:1016000020003D082106031D072B3C082006031976
:101610000A2B0B2B162BDA30860021308700013085
:10162000810741310318810AFF30492BBE01BF01F8
:10163000BF01383086002130870045313F08203E09
:10164000840098300318013E850000080106031D40
:101650002A2B2B2B2E2BBE01BE0A382B0130AF00BC
:101660002F08BF0708303F02031C372B382B192BDC
:101670003E08031D3C2B3D2B482BDA3086002130E1
:1016800087000130810741310318810A0130492B5D
:10169000003008009331CE238B3122005608200001
:1016A00020022100CB00220057082000213B21000E
:1016B000CC00220058082000223B2100CD0022004F
:1016C00059082000233B2100CE004B08CF004C08D6
:1016D000D0004D08D1004E08D200D301D401D5016D
:1016E000D60156082000AB00210055082000AA00B2
:1016F000210054082000A900210053082000A80060
:10170000210052082000A700210051082000A60057
:10171000210050082000A50021004F082000A4004F
:101720009731B9278B312000AB1BAF2B2B08031D42
:10173000B02B2A08031DB02B2908031DB02B280845
:10174000031DB02B2708031DB02B2608031DB02B4B
:10175000D03024020730253B031CAF2BB02BE02BED
:101760009331CE238B31200023082200D9002000A2
:1017700022082200D800200021082200D7002000E3
:1017800020082200D6002100EE01EE0A8231D1228B
:101790008B3121005B085C040319CF2BD02BD62B97
:1017A0005D085E04031DD52BD62BE02BFF30DB003C
:1017B000FF30DC00FF30DD00FF30DE000230EE00E5
:1017C00008002000CD0038308600213087004631E7
:1017D0000108CF00383086002130870047310108EA
:1017E000CE004F08CB004E08CA00383086002130AA
:1017F000870048310108D100383086002130870049
:1018000049310108D0005008CC004C35C0003E30B2
:1018100086002130870040088100D23086002130C8
:101820008700033081004B08D3004A08D200702C97
:1018300052354D07C0004008860001308700403F08
:10184000C100413FC2004208C300D23086002130AF
:1018500087000108C400C5013C30C6002130C70024
:1018600044084607C8004508473DC90048088600A7
:1018700049088700430881000130C000D23086004B
:10188000213087004008810752354D07C0004008CD
:101890008600013087000108C100D2308600213067
:1018A00087000108C200C3013C30C4002130C500DC
:1018B00042084407C6004308453DC7004608860065
:1018C00047088700410881000130C000D2308600FF
:1018D00021308700400881070130D2070030D33D16
:1018E0004C084A07C0004B0803184B0AC1004108C6
:1018F0005302031D7D2C40085202031C802C812CB6
:10190000182C8631EA268B3108002000A800280810
:1019100003198B2C8C2CA02CA31F8F2C902CA02C6B
:101920002009AA002109AB002209AC002309AD005F
:10193000AA0A0319AB0A0319AC0A0319AD0AA82CA9
:101940002308AD002208AC002108AB002008AA0043
:101950002308220421042004031DAF2CB02CB92C31
:101960000030A3000030A2000030A1000030A00031
:101970002F2D9630A900C72C0130A4002408A907F8
:101980000130AD36AC0CAB0CAA0C890BC12CFE306F
:101990002D05031DCC2CCD2CBC2CE12C0130A4003A
:1019A0002408A9070130AA070030AB3D0030AC3D48
:1019B0000030AD3D0130AD36AC0CAB0CAA0C890B40
:1019C000DB2CFF302D05031DE62CE72CCE2CF12C53
:1019D0000130A9020130AA35AB0DAC0DAD0D890B5C
:1019E000EB2CAC1BF42CF52CFB2C02302902031839
:1019F000FA2CFB2CE82C2918FE2CFF2C072DFF308D
:101A0000AA05FF30AB057F30AC05FF30AD050310F4
:101A1000A90C2908A400A501A601A7011830A43526
:101A2000A50DA60DA70D890B0F2D2408AA042508C6
:101A3000AB042608AC042708AD0428080319212D9F
:101A4000222D272DA31F252D262D272DAD172D083F
:101A5000A3002C08A2002B08A1002A08A00008005F
:101A60002000DE00EA308600213087005408C03FA5
:101A70005508C13F6A08DF005F08031D402D412D56
:101A8000432D0030FB2DD330860021308700010824
:101A90005F0603194C2D4D2D642DD3308600213067
:101AA00087005F0881009331CE238D31DE308600C0
:101AB0002130870020002008C03F2108C13F2208B4
:101AC000C23F2308C33F412DDE308600213087000E
:101AD000403FD600413FD700423FD800433FD900A6
:101AE0009331CE238D3120002008DA002108DB005D
:101AF0002208DC002308DD005608DA025708DB3B29
:101B00005808DC3B5908DD3B5D08031D922D5C083D
:101B1000031D922D5B08031D922D04305A020318F9
:101B2000922D932D942D412DD330860021308700A6
:101B3000810189312B218D312000E0003B3086006E
:101B40002130870060088100073060020318A92D4A
:101B5000AA2DAD2D20006008FB2D383086002130E5
:101B600087003830840021308500043100080106E8
:101B70000319BB2DBC2DBD2D412D8A31C5228D31C0
:101B80002000E10061080319C62DC72DDC2D610A74
:101B90000319CB2DCC2DD32D6108963196268D318E
:101BA0008631EA268D313B308600213087002000C7
:101BB000610881006108FB2D9331CE238D31E23025
:101BC00086002130870020002008C03F2108C13F47
:101BD0002208C23F2308C33F3830860021308700E7
:101BE000433181015508BF005408BE005E088B31A7
:101BF000E1238D31AA2D08002000630880392100DF
:101C0000A400200063352100AB002000E21F092E54
:101C10000A2E0C2E21002B1421002B080319112E43
:101C2000122E242E2B0A031D162E172E202E0030C6
:101C30002000E3000030E2000030E1000030E0006E
:101C40002000E217E3012D2E00302000E3000030D9
:101C5000E2000030E1000030E0005F088039E4007D
:101C600064082100A40620005F352100AC0020009C
:101C7000DE1F3B2E3C2E3E2E21002C1421002C0872
:101C80000319432E442E562E2C0A031D482E492E8E
:101C9000522E00302000DF000030DE000030DD007A
:101CA0000030DC002000DE17DF015F2E0030200056
:101CB000DF000030DE000030DD000030DC005F08B7
:101CC0005E045D045C04031D662E672E822E0030C8
:101CD000E3000030E2000030E1000030E00080303E
:101CE000E2047F30E304210024082000E4006408BB
:101CF000E3046308DF006208DE006108DD006008BD
:101D0000DC00FF2F21002B08031D872E882E922E2A
:101D100000302000DF000030DE000030DD00003049
:101D2000DC00FF2F2B082000E400E5016508E70038
:101D300021002C0820006402E600031CE70366086B
:101D40007F3E2100A50000302000673D2100A60055
:101D5000200063082100A300200062082100A200E7
:101D6000200061082100A100200060082100A000DF
:101D700000302000E3000030E2000030E1000030DD
:101D8000E00000302100AA000030A9000030A800C7
:101D90000030A700AC01202F2C080319D02ED12E23
:101DA000EF2E0130A035A10DA20DA30D890BD22E6F
:101DB00001302000E035E10DE20DE30D890BD92E55
:101DC0002100AA1FE42EE52EE72E2000601401302A
:101DD0002100A735A80DA90DAA0D890BE82E20001A
:101DE0005F0821002302031D052F20005E0821004B
:101DF0002202031D052F20005D0821002102031D82
:101E0000052F20005C0821002002031C082F092F49
:101E10001A2F2A1720005C082100A00220005D086C
:101E20002100A13B20005E082100A23B20005F08AA
:101E30002100A33B01302000E40064082100AC072E
:101E40001A302C02031C252F262FCC2E2308220407
:101E50002104200403192D2F2E2F4A2F27144A2F37
:101E60000130E035E10DE20DE30D890B312F21004A
:101E7000AA1F3B2F3C2F3E2F200060140130210071
:101E8000A735A80DA90DAA0D890B3F2FFF30A50777
:101E9000FF30A63D2000E21F4E2F4F2F302F210094
:101EA000AC01AA1F542F552F792FFF302705200092
:101EB000E400FF30210028052000E500FF3021006C
:101EC00029052000E6007F3021002A052000E700D8
:101ED000670866046504640403196F2F702F742F5C
:101EE0002100AC01AC0A792F601C772F782F792F55
:101EF000702F21002C0803197E2F7F2FA92F01306E
:101F00002000E0070030E13D0030E23D0030E33DDD
:101F1000631C8B2F8C2FA92F6008E4006108E5005B
:101F20006208E6006308E7000130E800E737E60CE6
:101F3000E50CE40CE80B962F6708E3006608E20066
:101F40006508E1006408E00001302100A5070030C9
:101F5000A63D21002608803A2000E400803064027B
:101F6000031DB52FFF3021002502031CB82FB92F08
:101F7000C72FFF302100A5000030A6000030200050
:101F8000E3000030E2000030E1000030E00021001A
:101F90002608803A2000E40080306402031DD32F1D
:101FA0000130210025020318D62FD72FE52F21005D
:101FB000A501A60100302000E3000030E20000305F
:101FC000E1000030E0002100A40121002508AB0061
:101FD0002B1CEB2FEC2FEF2F2000E217F42F7F307C
:101FE0002000E4006408E20521002B362000E30015
:101FF000210024082000E4006408E304792E08008E
:10247C00080008000130080024009614080024000D
:10248C0016150800240096150800240011080800F1
:10249C00200091150800200091110800200018144C
:1024AC00080020009111080024009512080021005A
:1024BC009111080024001614080021009115080041
:1024CC00943192249231080023001D121D1608002D
:1024DC0024009616161608002400961216160800EC
:1024EC009531C7259231080023001E0C01390800D4
:1024FC00F00070082400910008002200BD10BC01FF
:10250C000E30080092314222923101300800923193
:10251C004222923102300800923142229231013033
:10252C00080092314522923100300800923172221B
:10253C0092310530080092316E2292310A30080037
:10254C0092316E229231093008002200BD10BC017C
:10255C000E300800013095311725923108000030FB
:10256C0095311725923108002400160E890C890C20
:10257C000139080022003D1092314822923104307A
:10258C00080022003D14363592317E229231033000
:10259C00080022003D140314360D92317E22923134
:1025AC0005300800200021082100E0002000200850
:1025BC002100DF000800200021082100EC00200091
:1025CC0020082100EB000800200021082100E20077
:1025DC00200020082100E100080020002108210033
:1025EC00E600200020082100E5000800200021085A
:1025FC002100E400200020082100E3000800200056
:10260C0021082100E800200020082100E700080034
:10261C00200021082100EA00200020082100E90008
:10262C000800240094010830950096019F30920018
:10263C009512080001302100D7070030D83D00303A
:10264C00D93D0030DA3D08008931E62193319231D1
:10265C00542293319331DF23933108008B314A2379
:10266C00933194313D2493318731CD279331080038
:10267C007508F1007408F0007608F200003095310E
:10268C009F259331080020002508A1002408A000F4
:10269C002608A200023096311826933108007030BB
:1026AC002100990098012200960121001A1F5F2B2E
:1026BC00602B5B2B08006400800101310130FE02AD
:1026CC000030FF3B7F087E04031D622B0034FE00AC
:1026DC0012001E000130FE020030FF3B7F087E041A
:1026EC00031D6E2B00342434163424340B34243460
:1026FC0000342C3410342C340D342C34063421009A
:10270C005F08600403198B2B8C2B912B60088A00BB
:10271C005F080A0093310800200011107D08F100B9
:10272C007C08F0009331BD23933193318523933191
:10273C0008002200BD1DA32BA42BAD2B7108B800E3
:10274C007008B7007308BA007208B900BD11080010
:10275C0094315024933193312A2393318B170B17D7
:10276C006400933134239331B62B803158282000E8
:10277C00181DC12BC22BC92B18107108970070089B
:10278C0096001814CD2B710897007008960008005D
:10279C0021005A082000A300210059082000A200A3
:1027AC00210058082000A100210057082000A0009B
:1027BC00080000302100DA000030D9000030D800C9
:1027CC000030D70020302000A0001330A10092313F
:1027DC00D822933108007708F000F1010230F200A2
:1027EC000030F30093319F2393310030F400F50057
:1027FC00F60193313E239331043008007708F00042
:10280C00F1010130F2000030F30093319F23943139
:10281C000030F400F500F60193313E239431023080
:10282C0008007708F000F1010230F2000030F300EC
:10283C0093319F2394310030F400F500F60193316D
:10284C003E239431023008007708F000F10101308A
:10285C00F2000030F30093319F2394310030F400E8
:10286C00F500F60193313E23943104300800210029
:10287C006D08031D422C432C4C2C20006908883118
:10288C00852094312100ED01ED0A4F2C9431C624A2
:10289C00943108009331172394319431FB249431F3
:1028AC009331552394318731FC27943194317A2418
:1028BC00943197312F27943108002200BD1D672CCD
:1028CC00682C792C200021082200B8002000200858
:1028DC002200B700200023082200BA0020002208A2
:1028EC002200B900BD110800200099018330970027
:1028FC00960111101708FD001608FC002100111498
:10290C003F302000A0001230A1009231D822943127
:10291C00413020009800080020006C08463E8600DC
:10292C00013087002300190881000130F000700885
:10293C002000EC0708306C02031CA52CA62CA72C3D
:10294C00EC010130F0007008EA0708007708023E3D
:10295C00860087010108F000F101770886008701E5
:10296C00403FF200413FF30093319F2394310030FC
:10297C00F400F500F60193313E2394310230080047
:10298C0021005C082200DD0021005B082200DC0035
:10299C0021005E082200DB0021005D082200DA0025
:1029AC0002302000D4000030D5005A308D31302553
:1029BC00943108002000A001A00A2200BD18E72CC9
:1029CC00E82CF82C3D11FF30B6009231572294318F
:1029DC0092315D22943192315A22943122003C087A
:1029EC002000A000200020080800220090018C018B
:1029FC008D0163308E00083021009000FF308C0078
:102A0C00FF308D009C308E003F3023008D00303025
:102A1C008C00240090018D012100951722009D014E
:102A2C0008002000A000A101A10A2200BD181F2D42
:102A3C00202D322DBD142000A10120080319272DB3
:102A4C00282D2C2D2200BB01BB0A2F2D0230220079
:102A5C00BB0092316022953120002108080008301B
:102A6C0020006D0203183B2D3C2D552D6E084E3E5B
:102A7C00860001308700010823009A000130F00025
:102A8C0070082000EE0708306E02031C4E2D4F2DEF
:102A9C00502DEE010130F0007008ED07572D21008C
:102AAC00111208002000A700200027089731732777
:102ABC009531003A0319632D642D5A2D20002408FA
:102ACC00A000A1012608A3002508A20094316324CC
:102ADC0095319231B02295319431E0249531013AFF
:102AEC000319792D7A2D722D08002000A800A4015D
:102AFC00A5012008A200A3012208A6002308A70014
:102B0C00281C892D8A2D8E2D2608A4072708A53D63
:102B1C000130A635A70D890B8F2D0310A80C2808A2
:102B2C00031D992D9A2D862D2508A1002408A0009F
:102B3C000800F300700871040319A52DA62DB72DFC
:102B4C007335203E8600013087007008C03F710845
:102B5C00C13F73082C3E860001308700720881004B
:102B6C00C62D7335203E8600013087004030C03FB3
:102B7C001230C13F73082C3E860001308700810162
:102B8C00080092315122953122003D1CCE2DCF2DC3
:102B9C00DA2D9231BA229531003A0319D62DD72D60
:102BAC00DA2D0F302200BB0022003B08FA00FB019B
:102BBC00FA35FB0D00307A07840018307B3D8038E5
:102BCC008500013F8A00003F0A0095312200BB00BE
:102BDC00080022003D100230BC00FC2D92319222E4
:102BEC009531172E923197229531172E2E08F7001A
:102BFC000430203E860001308700413F8A00403F70
:102C0C000A009631F800F9017908003A03190F2EE1
:102C1C00F82D7808023A0319F42D013A0319F42D12
:102C2C00F82D08002000A3002008210403191F2EF2
:102C3C00202E312E2335203E8600013087002008BF
:102C4C00C03F2108C13F23082C3E8600013087007D
:102C5C0022088100402E2335203E8600013087005B
:102C6C004030C03F1230C13F23082C3E860001305B
:102C7C008700810108002000A1006D080319472E70
:102C8C00482E432E2100111A4C2E4D2E522E200070
:102C9C00210823009A00682E111220006F084E3E66
:102CAC00860001308700210881000130A000200837
:102CBC00EF0708306F02031C642E652E662EEF01A1
:102CCC000130ED0221001116080020006A080319DA
:102CDC00702E712E6B2E6B083E3E860001308700E5
:102CEC0001082100EF0020006B08463E86000130F1
:102CFC0087000108A1000130A0002008EB07083074
:102D0C006B02031C8A2E8B2E8C2EEB012100911250
:102D1C0001302000EA022100911620002108080051
:102D2C002000A10038308600213087004531010891
:102D3C00A20038308600213087000108A0003C300A
:102D4C00860021308700200881002208803EA000E8
:102D5C003D30860021308700200881003E308600FF
:102D6C002130870021088100D23086002130870075
:102D7C000330810008002200BD15D12E9231922221
:102D8C009631ED2E92314E2296310330ED2E92314A
:102D9C0097229631ED2E2C08F70021088A00200886
:102DAC000A009631F800F9017908003A0319DF2E70
:102DBC00CD2E7808013A0319CD2E033A0319C42EEF
:102DCC00013A0319C42E073A0319C82ECD2E080058
:102DDC0020006C083E3E86000130870081012300F4
:102DEC001D1DF92EFA2E072F20006C083E3E860082
:102DFC00013087008114210066088A0065080A00EA
:102E0C00973123009D1C0B2F0C2F192F20006C08C1
:102E1C003E3E8600013087000115210064088A00BF
:102E2C0063080A00973120006C083E3E8600013092
:102E3C00870001080319232F242F2B2F2100620850
:102E4C008A0061080A0097312E2F94319224963112
:102E5C00080021009112EE302000A0001630A100D5
:102E6C009331052397312100111235302000A00039
:102E7C001530A10093310E239731083023009F00A9
:102E8C0090309D0024309E0040309B0003309C000D
:102E9C003E302000A0001230A1009231F322973175
:102EAC006A302000A0001230A1009231FC22973130
:102EBC0066302000A0001230A1009231EA22973136
:102ECC002100EF012000EF01EE010830ED00EC01D4
:102EDC00EB01EA012100911608002000A200A301D9
:102EEC00A30A22003D197B2F7C2FB62F200022082D
:102EFC002200B600BD103D153D100E30BB00F43065
:102F0C00B4000130B500BD154030A0001230A10056
:102F1C00AC014030A2001230A300AD014030A4003F
:102F2C001230A500AE014030A6001230A700AF0150
:102F3C000230A8000030A900B00176302000A000BB
:102F4C001230A1009231E122973192315722973100
:102F5C008831002097319231632297312000A301F0
:102F6C002000230808002000AB1BD72F2B08031DC3
:102F7C00D62F2A08031DD62F2908031DD62F280863
:102F8C00031DD62F2708031DD62F2608031DD62F69
:102F9C002508031DD62F013024020318D62FD72F56
:102FAC00FF2F20002409A4002509A5002609A6004E
:102FBC002709A7002809A8002909A9002A09AA009D
:102FCC002B09AB00A40A031DFE2FA50A031DFE2F1F
:102FDC00A60A031DFE2FA70A031DFE2FA80A031D18
:102FEC00FE2FA90A031DFE2FAA0A031DFE2FAB0AF2
:102FFC00FF2F080083341234CF341234C734123408
:10300C00D43408343B340834C0341234C13416344C
:10301C00883412348D34123492341234973412347E
:10302C009C341234A1341234A6341234AB3412341E
:10303C00EF341534013402340334043405340634CB
:04304C000F341034F9
:020000040001F9
:08000000FF3FFF3FFF3FFF3F00
:04000E00FC3FDF1FB5
:00000001FF
