:0400000080315528CE
:100008007E1480310B1F09280A2853282100111E4D
:100018000E280F281A282000111E132814281A2821
:100028005C088A005B080A00803153282100911E71
:100038001E281F282A282000911E232824282A2821
:100048005A088A0059080A00803153282100921D55
:100058002E282F283A282000921D332834283A28A1
:1000680048088A0047080A00803153282100911D5A
:100078003E283F2845282000911D4328442845282C
:1000880034282100111C49284A2853282000111C13
:100098004E284F28532883316123803153287E10FE
:1000A8000900803157287B308400833085005D301B
:1000B8008600003087000030FF000C308331872332
:1000C8008031D4308400203085001C30FE0001309F
:1000D800FF00833193238031F001F101F201F30134
:1000E800F401F501F601203084000030850031303C
:1000F800FE000030FF00833193238031A03084005C
:10010800003085003030FE000030FF00833193233B
:1001180080317E1020008331E42B84310E2480311D
:10012800003A031998289928C728A6288431372423
:100138008031E328843132248031E3288431282433
:100148008031E32820002F08E9000630203E860091
:100158008701413F8A00403F0A008031F800F901D9
:100168007908003A0319B928A2287808013A03192E
:10017800A228033A03199A28013A03199E28073A34
:100188000319A228A22820003C101730203E860020
:100198008701403F84008501810A00088431412499
:1001A800803101302000B8020030B93B38083904EA
:1001B800031DDF28E028E2280630E3280330080082
:1001C800200037088600870184316424803181004B
:1001D8000130F70077082000B7070130B802003077
:1001E800B93B380839040319FA28FB280029843157
:1001F8004E24803105302629BC150A29843119245A
:100208008031262984311E24803126292C08E900D2
:1002180021088A0020080A008131F700F8017808CF
:10022800003A0319182906297708013A03190629FB
:10023800033A03190229013A03190229073A031953
:100248000629062908002100911268302000E900DB
:100258000130EA008331F623813121001112623026
:100268002000E9000230EA008331F02381310830B0
:1002780023009F0090309D0024309E00CF309B00CB
:100288009C0175302000E9000430EA008431022422
:10029800813156302000E9000430EA008331FC2324
:1002A80081315A302000E9000430EA008431082402
:1002B8008131F001F601F5011030F400F301F2018B
:1002C800F1012100911608007308A03E86008701FD
:1002D800810123001D1D712972297D297308A03E03
:1002E800860087018114200058088A0057080A00F0
:1002F800813123009D1C812982298D297308A03E04
:10030800860087010115200056088A0055080A0052
:1003180081317308A03E86008701010803199529D9
:1003280096299D29200054088A0053080A00813123
:10033800A0298231D022813108002000BC15B129C2
:1003480084312D248131CD298431612481310330D8
:10035800CD29843128248131CD292C08E9002108B0
:100368008A0020080A008131F700F8017808003A6D
:100378000319BF29AD297708013A0319AD29033AB2
:100388000319A429013A0319A429073A0319A8292A
:10039800AD29080084315E24813120003C1CD52918
:1003A800D629E12984310E248131003A0319DD2947
:1003B800DE29E1290F302000BA0020003A08FA00AF
:1003C800FB01FA35FB0D42307A07840002307B3D91
:1003D80080388500013F8A00003F0A0081312000F3
:1003E800BA00080020003C100230BB00032A843108
:1003F8002D2481311D2A8431282481311D2A2E087B
:10040800E9000430203E86008701413F8A00403FD2
:100418000A008231F700F8017808003A0319152A12
:10042800FF297708023A0319FB29013A0319FB2926
:10043800FF290800FA00770878040319242A252AD6
:10044800342A7A35203E860087017708C03F78082D
:10045800C13F7A082C3E8600870179088100412A2D
:100468007A35203E860087017230C03F0430C13F94
:100478007A082C3E86008701810108003C34043448
:10048800BD340334CE34033491340034E4340034BE
:10049800DD340334A13401343734043432340434C1
:1004A8002D34043428340434233404341E340434FE
:1004B8001934043414340434F6340134103074021A
:1004C8000318672A682A7F2A7508C03E86008701B4
:1004D800010823009A000130F7007708F50710306B
:1004E8007502031C782A792A7A2AF5010130F70067
:1004F8007708F407812A21001112080022009001D0
:100508008C018D0140308E00083021009000FF30B2
:100518008C00FF308D009C308E003F3023008D0012
:1005280030308C00240090018D01210095172200A5
:100538009D01080020009901E0309700C030960026
:1005480011101708C6001608C500210011147430D0
:100558002000E9000430EA008331EA238231413087
:100568002000980008002000690886008701403FA5
:10057800F700413FF8006908023E8600870101083C
:100588008331532382310030FB00FC00FD018331AD
:100598009F238231023008007308B03E860087012D
:1005A8002300190881000130F7007708F30710309D
:1005B8007302031CE02AE12AE22AF3010130F70062
:1005C8007708F10708008331B4238231823182220F
:1005D80082318331D623823184314624823182317B
:1005E8009E22823181312721823108000130F700B3
:1005F8000030F8002000690883315323823100302D
:10060800FB00FC00FD0183319F2382310430080088
:100618000230F7000030F8002000690883315323C6
:1006280083310030FB00FC00FD0183319F238331BF
:10063800023008000130F7000030F8002000690897
:100648008331532383310030FB00FC00FD018331EB
:100658009F238331023008000230F7000030F80091
:10066800200069088331532383310030FB00FC00EC
:10067800FD0183319F238331043008002000181DB9
:10068800462B472B4E2B18107808970077089600B2
:100698001814522B78089700770896000800F9007C
:1006A8002000BC1D582B592B602B7908B7007808FF
:1006B800B9007708B800BC110800200011104608DE
:1006C800F8004508F70083314223833183316E23D4
:1006D800833108002000510852040319742B752B2C
:1006E8007A2B52088A0051080A0083310800163410
:1006F80024340B3424340034243410342C340D3492
:100708002C3406342C34FE0012001E000130FE0288
:100718000030FF3B7F087E04031D882B00346400F3
:10072800800101310130FE020030FF3B7F087E046A
:10073800031D942B00347C08F8007B08F7007D0823
:10074800F900003082311E22833108000130200078
:10075800BD070030BE3D0030BF3D0030C03D080041
:1007680024009401083095009601133092009512E8
:10077800080020003C140314360D843141248331D1
:1007880005300800013402340334043405340634D7
:100798000F34103420003C14363584314124833121
:1007A800033008007030210099009801220096015A
:1007B800080020003C10843167248331043008008D
:1007C8008231E7228331E72B8031552820006A08DF
:1007D800D2006908D100080020006A08DC00690816
:1007E800DB00080020006A08DA006908D900080060
:1007F80020006A08D6006908D500080020006A08A9
:10080800D8006908D700080020006A08D4006908E1
:10081800D30008002400160E890C890C0139080041
:100828002000BC10BB010E300800843152248431F2
:10083800093008008431522484310A300800843198
:100848004E2484310530080084316A248431003014
:10085800080084316D2484310130080084316D240E
:1008680084310230080084316D248431013008005D
:100878002000BC10BB010E300800F70077082400E8
:100888009100080016302100970008008131CE2120
:1008980084310800240096121616080024009616C3
:1008A8001616080023001D121D1608008231D022DA
:1008B80084310800200091110800200091150800DB
:1008C80024001108080024009615080024001615B5
:1008D80008002400961408000530080001300800BC
:0408E80008000800FC
:020000040001F9
:08000000FF3FFF3FFF3FFF3F00
:04000E00EC3FDF3EA6
:00000001FF
