:0400000080315728CC
:100008007E1480310B1F09280A2855282100111E4B
:100018000E280F281B282000111E132814281B281F
:1000280021005D088A005C080A00803155282100FB
:10003800911E1F2820282C282000911E24282528BE
:100048002C2821005B088A005A080A0080315528AC
:100058002100921D302831283C282000921D352887
:1000680036283C284C088A004B080A00803155285D
:100078002100911D4028412847282000911D45282E
:100088004628472836282100111C4B284C2855287B
:100098002000111C5028512855288331D323803142
:1000A80055287E10090080315928B63084008330E5
:1000B80085005D308600003087000030FF000F307B
:1000C8008331ED238031D4308400203085001C300A
:1000D800FE000130FF008331F9238031FC01FD016E
:1000E80020308400003085003D30FE000030FF00E5
:1000F8008331F9238031A03084000030850034300A
:10010800FE000030FF008331F92380317E1020008B
:100118008431052C843189248031003A03199528CB
:100128009628C428A3288431B2248031E028843159
:10013800AD248031E0288431A3248031E0282000D8
:100148002F08F7000630203E86008701413F8A00CD
:10015800403F0A008031F800F9017908003A031994
:10016800B6289F287808013A03199F28033A0319EB
:100178009728013A03199B28073A03199F289F28B3
:1001880020003C101730203E86008701403F840045
:100198008501810A00088431BC24803101302000A7
:1001A800B8020030B93B38083904031DDC28DD28C3
:1001B800DF280630E0280330080020005C08210012
:1001C800DE0020005B082100D10020005A08210031
:1001D800D000200059082100D30020005808210031
:1001E800D200D4308600203087005E08C03FD5306A
:1001F80086002030870002308100DC308600213004
:100208008700E830C03F0330C13FE6308600213028
:1002180087000030C03FC13FC23FC33FD230860095
:10022800213087008101D330860021308700810189
:10023800DA308600213087000030C03FC13FD83017
:100248008600213087000030C03FC13FD63086008D
:10025800213087000030C03FC13F08002000370828
:10026800860087018431DF24813181000130F80064
:1002780078082000B7070130B8020030B93B3808C9
:1002880039040319482949294E298431C92481315F
:1002980005307429BC155829843194248131742976
:1002A80084319924813174292C08F70021088A00A7
:1002B80020080A008131F800F9017908003A031989
:1002C800662954297808013A03195429033A03196D
:1002D8005029013A03195029073A03195429542976
:1002E800080021009112B7302000EE000130EF0025
:1002F8008431382481312100111295302000EE001C
:100308000230EF0084312F248131083023009F0010
:1003180090309D0024309E00CF309B009C01F0302F
:100328002000EE000430EF0084314A248131D130BE
:100338002000EE000430EF00843141248131D530B3
:100348002000EE000430EF00843153248131200076
:10035800D301D701D6011030D500D401FD01FC012D
:1003680021009116080020005408A03E860087014D
:10037800810123001D1DC129C229CE29200054084E
:10038800A03E860087018114210059088A00580878
:100398000A00813123009D1CD229D329DF2920009E
:1003A8005408A03E860087010115210057088A00DD
:1003B80056080A00813120005408A03E86008701B3
:1003C80001080319E829E929F029210055088A00BC
:1003D80054080A008131F32983310C238131080044
:1003E8002000BC15042A8431A8248131202A8431B4
:1003F800DC2481310330202A8431A3248131202A4E
:100408002C08F70021088A0020080A008231F80029
:10041800F9017908003A0319122A002A7808013AE2
:100428000319002A033A0319F729013A0319F7298E
:10043800073A0319FB29002A08008431D92482319C
:1004480020003C1C282A292A342A84318924823114
:10045800003A0319302A312A342A0F302000BA0012
:1004680020003A08FA00FB01FA35FB0DB7307A078D
:10047800840002307B3D80388500013F8A00003FC0
:100488000A0082312000BA00080020003C10023027
:10049800BB00562A8431A8248231702A8431A324CF
:1004A8008231702A2E08F7000430203E860087012A
:1004B800413F8A00403F0A008231F800F90179087B
:1004C800003A0319682A522A7808023A03194E2A70
:1004D800013A03194E2A522A0800F30070087104E1
:1004E8000319772A782A872A7335203E86008701E0
:1004F8007008C03F7108C13F73082C3E8600870111
:1005080072088100942A7335203E86008701ED30F9
:10051800C03F0430C13F73082C3E8600870181012B
:10052800080010302000550203189B2A9C2AB42A80
:100538005608C03E86008701010823009A00013052
:10054800F00070082000D60710305602031CAD2AB0
:10055800AE2AAF2AD6010130F0007008D507B62AB6
:10056800210011120800B73404345C3404346D34AB
:1005780004348E340034323401347C340434F4349A
:100588000134B2340434AD340434A8340434A3340C
:1005980004349E34043499340434943404348F3449
:1005A800043449340234220090018C018D0140301A
:1005B8008E00083021009000FF308C00FF308D0045
:1005C8009C308E003F3023008D0030308C0024009A
:1005D80090018D012100951722009D01080020003F
:1005E8009901E0309700C030960011101708CA0032
:1005F8001608C90021001114EF302000EE00043065
:10060800EF008431832482314130200098000800B3
:1006180020005408B03E8600870123001908810095
:100628000130F00070082000D40710305402031C79
:100638001E2B1F2B202BD4010130F0007008FC0763
:100648000800770886008701403FF000413FF1002D
:100658007708023E8600870101088331C52383316C
:100668000030F400F500F6018431112483310230A2
:1006780008008431262483318231D72283318431A2
:10068800752483318431C12483318231F32283314B
:10069800813175218331080000302000C00000300E
:1006A800BF000030BE000030BD001C30EE0004303A
:1006B800EF0084318324833108002000181D652B46
:1006C800662B6D2B18107108970070089600181487
:1006D800712B710897007008960008000130F0002F
:1006E8000030F10077088331C52383310030F400EE
:1006F800F500F601843111248331043008000230FA
:10070800F0000030F10077088331C52383310030D1
:10071800F400F500F6018431112483310230080019
:100728000130F0000030F10077088331C5238331B0
:100738000030F400F500F6018431112483310230D1
:1007480008000230F0000030F10077088331C5233B
:1007580083310030F400F500F6018431112483312F
:10076800043008002434163424340B342C34103468
:100778002C340D342C3406345C3458345A34243434
:100788000034F2002000BC1DCA2BCB2BD22B7208E0
:10079800B7007108B9007008B800BC110800200043
:1007A80011104A08F1004908F000833161238331B0
:1007B8008331E0238331080020006C086D0403199D
:1007C800E62BE72BEC2B6D088A006C080A008331B6
:1007D8000800FE0012001E000130FE020030FF3B40
:1007E8007F087E04031DEE2B003464008001013174
:1007F8000130FE020030FF3B7F087E04031DFA2B08
:10080800003483313D238431833150238431803156
:10081800E12084310E2C803157287508F1007408C6
:10082800F0007608F200003082317122843108002D
:1008380001302000BD070030BE3D0030BF3D003014
:10084800C03D08002400940108309500960113303B
:1008580092009512080020006F082100DD0020009A
:100868006E082100DC00080020006F082100DB0072
:1008780020006E082100DA00080020006F0821001F
:10088800D70020006E082100D600080020006F085D
:100898002100D90020006E082100D800080020009F
:1008A8006F082100D50020006E082100D400080040
:1008B80020003C140314360D8431BC2484310530E7
:1008C80008000134023403340434053406340F3488
:1008D800103420003C1436358431BC248431033074
:1008E8000800703021009900980122009601080044
:1008F80020003C108431E2248431043008002000B8
:100908006F08ED006E08EC0008002400160E890C34
:10091800890C013908002000BC10BB010E3008000A
:100928008431CD248431093008008431CD248431C8
:100938000A3008008431C924843105300800843124
:10094800E5248431003008008431E8248431013002
:1009580008008431E8248431023008008431E82416
:100968008431013008002000BC10BB010E300800A3
:10097800F00070082400910008001630210097004C
:1009880008008231212284310800240096121616AC
:100998000800240096161616080023001D121D16BE
:1009A800080083310C2384310800200091110800CD
:1009B800200091150800240011080800240096154D
:1009C80008002400161508002400961408000530B5
:0A09D80008000130080008000800C4
:020000040001F9
:08000000FF3FFF3FFF3FFF3F00
:04000E00EC3FDF3EA6
:00000001FF
