:1000000080315828053008007E1480310B1F0928E4
:100010000A2856282100111E0E280F281B28200010
:10002000111E132814281B2822006C088A006B0854
:100030000A00803156282100911E1F2820282C28D4
:100040002000911E242825282C2822006A088A00D6
:1000500069080A00803156282100921D3028312875
:100060003D282000921D352836283D2821006208B1
:100070008A0061080A00803156282100911D41281C
:10008000422848282000911D46284728482836281D
:100090002100111C4C284D2856282000111C5128E5
:1000A0005228562893319723803156287E10090014
:1000B00080315A286330840093308500E430860014
:1000C000003087000030FF000C309331572380311F
:1000D0003830840021308500B830FE000030FF0049
:1000E00093314B238031FC01FD01E901EA01EB0171
:1000F000EC01ED01EE01EF01D73084000030850006
:100100000D30FE000030FF0093314B238031203052
:100110008400013085004130FE000030FF00933143
:100120004B2380317E1020009331A52BEE30200030
:10013000A8000230A9000030AA00443096316D2694
:100140008031943108248031200023082200DC0013
:10015000200022082200DB00200021082200DA0013
:10016000200020082200D900943108248031220088
:100170005908200020022100AD0022005A0820006A
:10018000213B2100AE0022005B082000223B210021
:10019000AF0022005C082000233B2100B0003008A3
:1001A000031DDE282F08031DDE282E08031DDE2870
:1001B00002302D02031CDD28DE28B428B5302000D3
:1001C000A4000630A5000030A600443095310E256D
:1001D000803121003608AD00AE01AF01B00130081A
:1001E0002000A30021002F082000A20021002E08DB
:1001F0002000A10021002D082000A00001308C313A
:100200006E24803120002308CB002208CA00210878
:10021000C9002008C8004330B1008030B000003071
:10022000AF000030AE0021003508B100B201B301CB
:10023000B40134082000A300210033082000A200EC
:10024000210032082000A100210031082000A00078
:1002500001308C316E24803120002308B500220843
:10026000B4002108B3002008B2008231DF228031BF
:1002700020003108CF003008CE002F08CD002E0816
:10028000CC0085311A25803120004B082100C600A2
:1002900020004A082100C500200049082100C400B0
:1002A000200048082100C300C2302000CB003430B9
:1002B000CA000030C9000030C8004730DF007F307E
:1002C000DE00FF30DD000030DC004330B1002F30B5
:1002D000B0000030AF000030AE0021004608200022
:1002E000B500210045082000B4002100440820008A
:1002F000B300210043082000B2008231DF228031A8
:1003000020003108E3003008E2002F08E1002E0849
:10031000E0008D31FC25803120005F08CF005E08B1
:10032000CE005D08CD005C08CC0085311A258031F7
:1003300020004B082100CA0020004A082100C90003
:10034000200049082100C800200048082100C700FB
:1003500041302000B1002030B0000030AF0000304C
:10036000AE0021004A082000B50021004908200005
:10037000B400210048082000B300210047082000F5
:10038000B2008231DF228031200031082100BE001E
:10039000200030082100BD0020002F082100BC00F3
:1003A00020002E082100BB003E082000A3002100F1
:1003B0003D082000A20021003C082000A1002100EF
:1003C0003B082000A0008A313D2280312000210816
:1003D0002100DC00200020082100DB003908AD00EE
:1003E000AE01AF01B00130082000A30021002F08AA
:1003F0002000A20021002E082000A10021002D08CD
:100400002000A00001308C316E24803120002308B0
:10041000CB002208CA002108C9002008C8004330C8
:10042000B1008030B0000030AF000030AE002100DD
:100430003808B100B201B301B40134082000A300B0
:10044000210033082000A200210032082000A10072
:10045000210031082000A00001308C316E24803151
:1004600020002308B5002208B4002108B3002008AA
:10047000B2008231DF22803120003108CF00300805
:10048000CE002F08CD002E08CC0085311A258031F2
:1004900020004B082100C60020004A082100C500AA
:1004A000200049082100C400200048082100C300A2
:1004B00047302000DF007F30DE00FF30DD000030FD
:1004C000DC004230B100C830B0000030AF00003076
:1004D000AE00210046082000B5002100450820009C
:1004E000B400210044082000B3002100430820008C
:1004F000B2008231DF22803120003108E300300871
:10050000E2002F08E1002E08E0008D31FC2580314B
:1005100020005F082100CA0020005E082100C900F9
:1005200020005D082100C80020005C082100C700F1
:1005300041302000B1002030B0000030AF0000306A
:10054000AE0021004A082000B50021004908200023
:10055000B400210048082000B30021004708200013
:10056000B2008231DF228031200031082100C20038
:10057000200030082100C10020002F082100C00009
:1005800020002E082100BF0042082000A300210007
:1005900041082000A200210040082000A100210005
:1005A0003F082000A0008A313D2280312000210830
:1005B0002100DE00200020082100DD0008002000CE
:1005C00031088039BB003135C100B01FE82AE92A63
:1005D000EA2A411441080319EE2AEF2AFE2A410AA9
:1005E000031DF32AF42AFC2A0030B1000030B000C9
:1005F0000030AF000030AE00B017062B0030B10065
:100600000030B0000030AF000030AE003508803957
:10061000B6003608BB063535C000B41F102B112BB1
:10062000122B401440080319162B172B262B400AB7
:10063000031D1B2B1C2B242B0030B5000030B400F5
:100640000030B3000030B200B4172E2B0030B500DC
:100650000030B4000030B3000030B200400803198D
:10066000322B332B382B4108031D372B382B412BD2
:100670000030B1000030B0000030AF000030AE00FC
:10068000192D2E08A0003408953152258231200002
:100690002108C7002008C6004608B600B701B80107
:1006A000B9013908BF003808BE003708BD00360858
:1006B000BC004708B600B701B801B9013908C50048
:1006C0003808C4003708C3003608C2002F08A0004D
:1006D000330895315225823120002108C7002008B7
:1006E000C6004608B600B701B801B9013608BC0714
:1006F0003708BD3D3808BE3D3908BF3D4708B60044
:10070000B701B801B9013608C2073708C33D380838
:10071000C43D3908C53D3008A00032089531522546
:10072000823120002108C7002008C6004608B60014
:10073000B701B801B9013608BC073708BD3D380814
:10074000BE3D3908BF3D4708B600B701B801B90141
:100750003608C2073708C33D3808C43D3908C53DCF
:100760000830BC35BD0DBE0DBF0D890BB12B2F0858
:10077000A000320895315225823120002108C7009F
:100780002008C6004608BC074708BD3D0030BE3DF6
:10079000BF3D2E08A000330895315225823120003C
:1007A0002108C7002008C6004608BC074708BD3D11
:1007B0000030BE3DBF3D0830BC35BD0DBE0DBF0D88
:1007C000890BDC2B2E08A00032089531522582318E
:1007D00020002108C7002008C6004608BC074708BB
:1007E000BD3D0030BE3DBF3D2F08A000340895310F
:1007F0005225823120002108C7002008C600460883
:10080000C2074708C33D0030C43DC53D3008A000C5
:10081000330895315225823120002108C700200875
:10082000C6004608C2074708C33D0030C43DC53D69
:100830003008A0003408953152258231200021086B
:10084000C7002008C6004608B6004708B700B80130
:10085000B9010830B635B70DB80DB90D890B2A2C82
:100860003608C2073708C33D3808C43D3908C53DBE
:100870003C08B6003D08B7003E08B8003F08B90084
:100880001830B936B80CB70CB60C890B412C3608A9
:10089000C2073708C33D3808C43D3908C53D083094
:1008A000BC35BD0DBE0DBF0D890B502C4108400756
:1008B000B600B701B70D3608823EC600FF30373D9F
:1008C000C700792C0130C235C30DC40DC50D890B8D
:1008D000632CBF1F6C2C6D2C6E2C42140130BC3568
:1008E000BD0DBE0DBF0D890B6F2CFF30C607FF304D
:1008F000C73DC41F7C2C7D2C622CC001BF1F812CE6
:10090000822C9E2CFF303C05B600FF303D05B70021
:10091000FF303E05B8007F303F05B9003908380484
:10092000370436040319952C962C992CC001C00A63
:100930009E2C421C9C2C9D2C9E2C962C400803190E
:10094000A22CA32CCB2C0130C2070030C33D0030B9
:10095000C43D0030C53D451CAE2CAF2CCB2C42080D
:10096000B6004308B7004408B8004508B900013094
:10097000BA00B937B80CB70CB60CBA0BB92C390899
:10098000C5003808C4003708C3003608C20001306B
:10099000C6070030C73D4708803AB60080303602AF
:1009A000031DD42CFF304602031CD72CD82CE22C7C
:1009B0007F302000C5008030C4000030C30000300C
:1009C000C2000D2D20004708803AB6008030360264
:1009D000031DEC2C013046020318EF2CF02CFB2CED
:1009E00000302000C5000030C4000030C3000030DB
:1009F000C200BB010D2D20004608C100FF30C2051A
:100A0000FF30C3057F30C4050030C505411C092DEA
:100A10000A2D0B2DC4174136C5003B08B600360819
:100A2000C5044508B1004408B0004308AF004208BF
:100A3000AE00080020004B088039D8004B35DA00A2
:100A4000CA1F232D242D252D5A145A080319292D88
:100A50002A2D3A2D5A0A031D2E2D2F2D372D003009
:100A6000CB000030CA000030C9000030C800CA17EF
:100A7000CB01422D0030CB000030CA000030C9004D
:100A80000030C8004F088039D900590858060319AA
:100A90004A2D4B2D4C2D58174F35D900CE1F512DB7
:100AA000522D532D591459080319572D582D682DBF
:100AB000590A031D5C2D5D2D652D0030CF000030DF
:100AC000CE000030CD000030CC00CE17CF01702D0D
:100AD0000030CF000030CE000030CD000030CC0020
:100AE0005A0859020318752D762D9C2D581F792D03
:100AF0007A2D7E2D8030D0005008D8065A08DB00B1
:100B00005908DA005B08D9004808DB004C08C80027
:100B10005B08CC004908DB004D08C9005B08CD002C
:100B20004A08DB004E08CA005B08CE004B08DB0019
:100B30004F08CB005B08CF00DB015908D000D10182
:100B40005108D3005A085002D200031CD3035308A3
:100B5000803AD40080305402031DB02D1A30520266
:100B6000031CB32DB42DE62D20004B084A04490484
:100B70004804031DBC2DBE2D0130BF2D0030DB000D
:100B80000030CB000030CA000030C9000030C8007F
:100B90005908DA00ED2D5B1CCE2DCF2DD32D5B3601
:100BA0000138DB00D52D0310DB0C481CD82DD92DC6
:100BB000DA2DDB170130D000CB37CA0CC90CC80CBA
:100BC000D00BDC2D0130D0005008DA072000590886
:100BD0005A02031CEC2DED2DCB2D581BF02DF12DC1
:100BE000272E5A08031DF52DF62DFF2D0030CB00C2
:100BF0000030CA000030C9000030C800212F4C0866
:100C0000C8074D08C93D4E08CA3D4F08CB3D4B1C97
:100C10000A2E0B2EB32E5B1C0E2E0F2E132E5B36C0
:100C20000138DB00152E0310DB0C481C182E192E82
:100C30001A2EDB170130D000CB37CA0CC90CC80CF8
:100C4000D00B1C2E0130D0005008DA07B32E4B0811
:100C5000803AD0004F08803A5002031D392E4E08CA
:100C60004A02031D392E4D084902031D392E4C0836
:100C7000480203183C2E3D2E752EFF30D000FF3069
:100C8000D100FF30D200FF30D30048084C02D4001E
:100C900049084D3BD5004A084E3BD6004B084F3B18
:100CA000D7005408D0075508D13D5608D23D570803
:100CB000D33D5308CB005208CA005108C900500860
:100CC000C8008030D0005008D806DB09DB0A5B087A
:100CD000031D6B2E6C2E7D2E0130C8070030C93DE0
:100CE0000030CA3D0030CB3D7D2E4C08C8024D0877
:100CF000C93B4E08CA3B4F08CB3B4B084A0449044A
:100D00004804031D842E852EAF2E5B08031D892EFB
:100D10008A2EAF2E0030CB000030CA000030C90050
:100D20000030C800212F0130C835C90DCA0DCB0DC8
:100D3000890B942EDB1F9D2E9E2E9F2E48145B1C2C
:100D4000A22EA32EA62E0314DB0DA82E0310DB0D5E
:100D50005A080319AC2EAD2EAF2E0130DA02CA1F8D
:100D6000B22EB32E932ED901DB1FB72EB82EC62E6E
:100D70005B087F390319BD2EBE2EC12ED901D90AB9
:100D8000C62E481CC42EC52EC62EBE2E59080319C9
:100D9000CA2ECB2EF82E0130C8070030C93D0030D6
:100DA000CA3D0030CB3D4B1CD62ED72EF82E48081E
:100DB000D0004908D1004A08D2004B08D3000130C6
:100DC000D400D337D20CD10CD00CD40BE12E530865
:100DD000CB005208CA005108C9005008C8005A0A7E
:100DE0000319F32EF42EF82E0130D0005008DA0744
:100DF0005A0A0319FC2EFD2E022F5A08031D012F3B
:100E0000022F102F0030CB000030CA000030C90084
:100E10000030C8005A08031D0E2F0F2F102FD801C5
:100E20005A1C132F142F162FCA171A2F7F30D000D9
:100E30005008CA055A36CB00D81F1F2F202F212F4C
:100E4000CB1708002000DE00EA3086002130870042
:100E50005408C03F5508C13F6A08DF005F08031D02
:100E6000322F332F352F0030ED2FD3308600213035
:100E7000870001085F0603193E2F3F2F562FD330FE
:100E80008600213087005F08810094310824873173
:100E9000DE3086002130870020002008C03F210876
:100EA000C13F2208C23F2308C33F332FDE308600F4
:100EB00021308700403FD600413FD700423FD80055
:100EC000433FD90094310824873120002008DA00FC
:100ED0002108DB002208DC002308DD005608DA02C6
:100EE0005708DB3B5808DC3B5908DD3B5D08031D18
:100EF000842F5C08031D842F5B08031D842F04309E
:100F00005A020318842F852F862F332FD330860063
:100F10002130870081018931142187312000E000D0
:100F20003B30860021308700600881000730600276
:100F300003189B2F9C2F9F2F20006008ED2F383027
:100F4000860021308700383084002130850004314C
:100F5000000801060319AD2FAE2FAF2F332F8A31B2
:100F6000AE2287312000E10061080319B82FB92FA4
:100F7000CE2F610A0319BD2FBE2FC52F61089631F0
:100F8000422687318D31192587313B30860021304B
:100F900087002000610881006108ED2F943108244A
:100FA0008731E23086002130870020002008C03FD2
:100FB0002108C13F2208C23F2308C33F38308600C2
:100FC00021308700433181015508BF005408BE001D
:100FD0005E088B31CA2387319C2F08000030210026
:100FE000DA000030D9000030D8000030D7001630C9
:100FF0002000A0001330A1009231CE2287310800DA
:101000002000A30020082104031907280828192814
:101010002335203E8600013087002008C03F21088C
:10102000C13F23082C3E8600013087002208810042
:1010300028282335203E8600013087002B30C03F12
:101040001230C13F23082C3E860001308700810109
:1010500008002000AB1B47282B08031D46282A0840
:10106000031D46282908031D46282808031D462875
:101070002708031D46282608031D46282508031DAA
:101080004628013024020318462847286F282000EC
:101090002409A4002509A5002609A6002709A70000
:1010A0002809A8002909A9002A09AA002B09AB00D0
:1010B000A40A031D6E28A50A031D6E28A60A031D97
:1010C0006E28A70A031D6E28A80A031D6E28A90A08
:1010D000031D6E28AA0A031D6E28AB0A6F2808009C
:1010E0002000A00038308600213087002008C03F53
:1010F000393086002130870002308100DC308600E4
:1011000021308700E830C03F0330C13FE630860021
:10111000213087000030C03FC13FC23FC33F38305D
:10112000860021308700413102300102031C9928DA
:101130009A289D2822008E129F2822008E16D230D7
:101140008600213087008101D3308600213087005E
:101150008101DA308600213087000030C03FC13F76
:10116000D8308600213087000030C03FC13FD630E4
:101170008600213087000030C03FC13F0800923117
:10118000A9228831003A0319C628C728F628D4288E
:10119000923177228831132992317C2288311329A8
:1011A000923186228831132922002F08F700063059
:1011B000203E860001308700413F8A00403F0A0000
:1011C0008831F800F9017908003A0319E828D02895
:1011D0007808013A0319D028033A0319C828013ABC
:1011E0000319CC28073A0319D028D02822003C1034
:1011F0001730203E860001308700403F8400850183
:10120000810A000892316D22883101302200B80233
:101210000030B93B38083904031D0F291029122961
:1012200006301329033008002000A901D2308600BF
:101230002130870081014C299531EF25893120002B
:10124000A200D2308600213087000108A300A4014B
:101250003C30A5002130A60023082507A70024085C
:10126000263DA8002708860028088700220881005C
:101270000130A200D2308600213087002208810789
:10128000D23086002130870096300102031C4929A4
:101290004A294C29A901A90A6A08031D5029512984
:1012A0001C29D6308600213087000130810741316A
:1012B0000318810A290803195E295F296A29DA308F
:1012C0008600213087000130810741310318810AEF
:1012D000FD306F29D23086002130870001080800D8
:1012E0002000AA00FF30AD00FF30AE00AB01AB0123
:1012F000B0292B08A200A3013C30A4002130A50096
:101300002208240786002308253D87002D080106B2
:10131000AD002E08AE00AC01AC0A01302D05A800CE
:1013200000302E05A9000130AE36AD0C890B942992
:101330002808290403199D299E29A2290130AD06F8
:10134000A030AE060130A2002208AC0709302C0202
:10135000031CAB29AC298D290130A2002208AB0760
:101360002A082B02031CB529B62979292E08A300C7
:101370002D08A2002308A200A3012208A60023082A
:10138000A7002D08A300A20126082204AD0027080B
:101390002304AE002E08A1002D08A0000800003094
:1013A00020000C180130A00000308C180130A10082
:1013B00000300C190130A20000308C190130A3005C
:1013C0002003031DE429E529F7292108031DE92944
:1013D000EA29F7292208031DEE29EF29F729230816
:1013E000031DF329F429F729E901E90A3C2A200819
:1013F000031DFB29FC290E2A2103031D002A012AB3
:101400000E2A2208031D052A062A0E2A2308031D78
:101410000A2A0B2A0E2A0230E9003C2A2008031D62
:10142000122A132A252A2108031D172A182A252AD9
:101430002203031D1C2A1D2A252A2308031D212AF5
:10144000222A252A0430E9003C2A2008031D292AE3
:101450002A2A3C2A2108031D2E2A2F2A3C2A220848
:10146000031D332A342A3C2A2303031D382A392A30
:101470003C2A0830E9003C2A080003102000220D15
:10148000230DA9002908031D462A472A502A0030A7
:10149000A3000030A2000030A1000030A000AD2A5F
:1014A0002008A4002108A5002208A6002308A70000
:1014B0001F30A736A60CA50CA40C890B592A2408AA
:1014C000A800A217FF30A005FF30A105FF30A2053C
:1014D0000030A3059630A902A91F6F2A702A882A16
:1014E0002908803A973E0318762A772A782A472ACD
:1014F0000130A336A20CA10CA00C890B792A013073
:10150000A4002408A907031D862A872A782A9D2A71
:1015100020302902031C8D2A8E2A982A472A01305E
:10152000A035A10DA20DA30D890B902A0130A902AF
:101530002908031D9C2A9D2A8F2A28080319A12AFD
:10154000A22AAD2AA009A109A209A309A00A031988
:10155000A10A0319A20A0319A30A0800D2308600BF
:101560002130870001082000AF00B0013B30B100FE
:101570002130B2002F08310786003008323D870045
:101580000108B300B401D230860021308700010881
:10159000B500B6013A30B7002130B800350837073A
:1015A00086003608383D87000108B900BA013908BD
:1015B000BA00B90133083904BC0034083A04BD004C
:1015C000D2308600213087000108FE3E893170212B
:1015D0008A3120003D082106031DF02A3C08200620
:1015E0000319F32AF42AFF2ADA3086002130870013
:1015F0000130810741310318810AFF30322BBE01CF
:10160000BF01BF01383086002130870045313F08D7
:10161000203E840098300318013E85000008010632
:10162000031D132B142B172BBE01BE0A212B0130D7
:10163000AF002F08BF0708303F02031C202B212BCF
:10164000022B3E08031D252B262B312BDA3086007A
:10165000213087000130810741310318810A0130B0
:10166000322B00300800943108248B3122005508B9
:10167000200020022100CB00220056082000213B40
:101680002100CC00220057082000223B2100CD0081
:10169000220058082000233B2100CE004B08CF0039
:1016A0004C08D0004D08D1004E08D200D301D4011F
:1016B000D501D60156082000AB00210055082000B6
:1016C000AA00210054082000A9002100530820008E
:1016D000A800210052082000A70021005108200086
:1016E000A600210050082000A50021004F0820007E
:1016F000A400883129208B312000AB1B982B2B08AC
:10170000031D992B2A08031D992B2908031D992BCA
:101710002808031D992B2708031D992B2608031D54
:10172000992BD03024020730253B031C982B992B92
:10173000C92B943108248B31200023082200D800C3
:10174000200022082200D700200021082200D60015
:10175000200020082200D5002100E301E30A8031A7
:1017600096208B3121005B085C040319B82BB92B40
:10177000BF2B5D085E04031DBE2BBF2BC92BFF30A2
:10178000DB00FF30DC00FF30DD00FF30DE00023028
:10179000E30008002000CD003830860021308700AB
:1017A00046310108CF0038308600213087004731AC
:1017B0000108CE004F08CB004E08CA003830860022
:1017C0002130870048310108D100383086002130AF
:1017D000870049310108D0005008CC004C35C000CA
:1017E0003E3086002130870040088100D2308600DC
:1017F00021308700033081004B08D3004A08D20013
:10180000592C52354D07C000400886000130870032
:10181000403FC100413FC2004208C300D2308600B1
:10182000213087000108C400C5013C30C6002130CA
:10183000C70044084607C8004508473DC900480896
:10184000860049088700430881000130C000D2307B
:101850008600213087004008810752354D07C000BF
:1018600040088600013087000108C100D2308600A0
:10187000213087000108C200C3013C30C400213080
:10188000C50042084407C6004308453DC700460856
:10189000860047088700410881000130C000D2302F
:1018A000860021308700400881070130D2070030D0
:1018B000D33D4C084A07C0004B0803184B0AC1002F
:1018C00041085302031D662C40085202031C692C78
:1018D0006A2C012C8D3119258B3108002000A800BD
:1018E00028080319742C752C892CA31F782C792CAB
:1018F000892C2009AA002109AB002209AC00230988
:10190000AD00AA0A0319AB0A0319AC0A0319AD0A00
:10191000912C2308AD002208AC002108AB00200860
:10192000AA002308220421042004031D982C992CCA
:10193000A22C0030A3000030A2000030A100003033
:10194000A000182D9630A900B02C0130A400240866
:10195000A9070130AD36AC0CAB0CAA0C890BAA2C34
:10196000FE302D05031DB52CB62CA52CCA2C01303C
:10197000A4002408A9070130AA070030AB3D0030BD
:10198000AC3D0030AD3D0130AD36AC0CAB0CAA0C1B
:10199000890BC42CFF302D05031DCF2CD02CB72C68
:1019A000DA2C0130A9020130AA35AB0DAC0DAD0D1A
:1019B000890BD42CAC1BDD2CDE2CE42C023029024C
:1019C0000318E32CE42CD12C2918E72CE82CF02C5C
:1019D000FF30AA05FF30AB057F30AC05FF30AD0509
:1019E0000310A90C2908A400A501A601A70118301D
:1019F000A435A50DA60DA70D890BF82C2408AA0463
:101A00002508AB042608AC042708AD0428080319F0
:101A10000A2D0B2D102DA31F0E2D0F2D102DAD17E0
:101A20002D08A3002C08A2002B08A1002A08A00062
:101A30000800D230860021308700010889317021EA
:101A40008D3120002108B7002008B6003708AF000C
:101A5000D2308600213087000108B000B1013C304F
:101A6000B2002130B30030083207B4003108333DF2
:101A7000B50034088600350887002F088100013042
:101A8000AF00D2308600213087002F088107D23086
:101A90008600213087000108AF00B0013C30B10062
:101AA0002130B2002F083107B3003008323DB400B6
:101AB0003308860034088700360881000130AF0003
:101AC000D2308600213087002F0881073830860009
:101AD00021308700413102300102031C702D712D2D
:101AE000732D22008E162000B801B9018B2D3C30D9
:101AF0002000AF002130B00038082F0786003908D9
:101B0000303D87000108963118268D3101302000C4
:101B1000B8070030B93DD23086002130870039083F
:101B2000803AAF0080302F02031D982D0108380243
:101B3000031C9B2D9C2D772D38308600213087008B
:101B4000413102300102031CA62DA72DDD2D92315B
:101B500065228D31003A0319AE2DAF2DA72DE63049
:101B6000860021308700403F2000BA00413FBB0083
:101B7000423FBC00433FBD0001302000AF000030B9
:101B8000B0000030B1000030B2002F08BA023008B7
:101B9000BB3B3108BC3B3208BD3B3A0A031DDA2D82
:101BA0003B0A031DDA2D3C0A031DDA2D3D0A031DF5
:101BB000DA2DDB2DBC2D22008E12D2308600213092
:101BC00087008101943108248D31E2308600213074
:101BD000870020002008C03F2108C13F2208C23FE3
:101BE0002308C33FD83086002130870001308107A9
:101BF00041310318810A0800200063088039210060
:101C0000A400200063352100AB002000E21F092E54
:101C10000A2E0C2E21002B1421002B080319112E43
:101C2000122E242E2B0A031D162E172E202E0030C6
:101C30002000E3000030E2000030E1000030E0006E
:101C40002000E217E3012D2E00302000E3000030D9
:101C5000E2000030E1000030E0005F088039E4007D
:101C600064082100A40620005F352100AC0020009C
:101C7000DE1F3B2E3C2E3E2E21002C1421002C0872
:101C80000319432E442E562E2C0A031D482E492E8E
:101C9000522E00302000DF000030DE000030DD007A
:101CA0000030DC002000DE17DF015F2E0030200056
:101CB000DF000030DE000030DD000030DC005F08B7
:101CC0005E045D045C04031D662E672E822E0030C8
:101CD000E3000030E2000030E1000030E00080303E
:101CE000E2047F30E304210024082000E4006408BB
:101CF000E3046308DF006208DE006108DD006008BD
:101D0000DC00FF2F21002B08031D872E882E922E2A
:101D100000302000DF000030DE000030DD00003049
:101D2000DC00FF2F2B082000E400E5016508E70038
:101D300021002C0820006402E600031CE70366086B
:101D40007F3E2100A50000302000673D2100A60055
:101D5000200063082100A300200062082100A200E7
:101D6000200061082100A100200060082100A000DF
:101D700000302000E3000030E2000030E1000030DD
:101D8000E00000302100AA000030A9000030A800C7
:101D90000030A700AC01202F2C080319D02ED12E23
:101DA000EF2E0130A035A10DA20DA30D890BD22E6F
:101DB00001302000E035E10DE20DE30D890BD92E55
:101DC0002100AA1FE42EE52EE72E2000601401302A
:101DD0002100A735A80DA90DAA0D890BE82E20001A
:101DE0005F0821002302031D052F20005E0821004B
:101DF0002202031D052F20005D0821002102031D82
:101E0000052F20005C0821002002031C082F092F49
:101E10001A2F2A1720005C082100A00220005D086C
:101E20002100A13B20005E082100A23B20005F08AA
:101E30002100A33B01302000E40064082100AC072E
:101E40001A302C02031C252F262FCC2E2308220407
:101E50002104200403192D2F2E2F4A2F27144A2F37
:101E60000130E035E10DE20DE30D890B312F21004A
:101E7000AA1F3B2F3C2F3E2F200060140130210071
:101E8000A735A80DA90DAA0D890B3F2FFF30A50777
:101E9000FF30A63D2000E21F4E2F4F2F302F210094
:101EA000AC01AA1F542F552F792FFF302705200092
:101EB000E400FF30210028052000E500FF3021006C
:101EC00029052000E6007F3021002A052000E700D8
:101ED000670866046504640403196F2F702F742F5C
:101EE0002100AC01AC0A792F601C772F782F792F55
:101EF000702F21002C0803197E2F7F2FA92F01306E
:101F00002000E0070030E13D0030E23D0030E33DDD
:101F1000631C8B2F8C2FA92F6008E4006108E5005B
:101F20006208E6006308E7000130E800E737E60CE6
:101F3000E50CE40CE80B962F6708E3006608E20066
:101F40006508E1006408E00001302100A5070030C9
:101F5000A63D21002608803A2000E400803064027B
:101F6000031DB52FFF3021002502031CB82FB92F08
:101F7000C72FFF302100A5000030A6000030200050
:101F8000E3000030E2000030E1000030E00021001A
:101F90002608803A2000E40080306402031DD32F1D
:101FA0000130210025020318D62FD72FE52F21005D
:101FB000A501A60100302000E3000030E20000305F
:101FC000E1000030E0002100A40121002508AB0061
:101FD0002B1CEB2FEC2FEF2F2000E217F42F7F307C
:101FE0002000E4006408E20521002B362000E30015
:101FF000210024082000E4006408E304792E08008E
:102452000800080001300800240096140800240037
:10246200161508002400961508002400110808001B
:102472002000911508002000911108002000181476
:102482000800200091110800240095120800210084
:10249200911108002400161408002100911508006B
:1024A20094316A249231080023001D121D1608007F
:1024B2002400961616160800240096121616080016
:1024C20095319E259231080023001E0C0139080027
:1024D2002430210097000800F000700824009100C9
:1024E20008002200BC10BB010E30080092312D22E0
:1024F20092310130080092312D22923102300800CF
:1025020092312D22923101300800923130229231E3
:102512000030080092315D2292310530080092317C
:10252200592292310A3008009231592292310930EF
:1025320008002200BC10BB010E30080001309431AB
:10254200F0249231080000309431F02492310800D6
:102552002400160E890C890C0139080022003C1057
:1025620092313322923104300800703021009900F8
:10257200980122009601080022003C14363592315F
:102582006D2292310330080022003C140314360DF0
:1025920092316D229231053008002000210822007C
:1025A200E200200020082200E100080020002108AB
:1025B2002100E200200020082100E10008002000A4
:1025C20021082200E400200020082200E300080085
:1025D200200021082200E800200020082200E70055
:1025E2000800200021082200E60020002008220026
:1025F200E5000800200021082200EA00200020084F
:102602002200E9000800200021082200EC0020003E
:1026120020082200EB0008002400940108309500F5
:102622009601133092009512080001302100D7075D
:102632000030D83D0030D93D0030DA3D0800893104
:10264200CF21933192313F2293318731EE2793315B
:1026520008008B313323933194311924933196310D
:10266200C526933108007508F1007408F000760859
:10267200F2000030953176259331080020002508BC
:10268200A1002408A0002608A20002308831002000
:10269200933108006400800101310130FE020030F4
:1026A200FF3B7F087E04031D4C2B0034FE0012000A
:1026B2001E000130FE020030FF3B7F087E04031D36
:1026C200582B00342434163424340B34243400348C
:1026D2002C3410342C340D342C340634220061088E
:1026E20062040319752B762B7B2B62088A00610822
:1026F2000A00933108002400951A802B812B882B25
:102702009401083095009601133092009516080046
:10271200F2002200BC1D8E2B8F2B962B7208B70065
:102722007108B9007008B800BC110800200011102F
:1027320021006008F1005F08F0009331F723933124
:1027420093316F239331080094312A2493319331CA
:10275200202393318B170B1793312A239331AD2BFF
:10276200803158280230F0000030F10077089331B0
:10277200892393310030F400F500F60193313423BC
:102782009331043008000130F0000030F100770886
:102792009331892393310030F400F500F60193312F
:1027A20034239331023008000230F0000030F1008F
:1027B20077089331892393310030F400F500F60154
:1027C200933134239331023008000130F00000309D
:1027D200F10077089331892393310030F400F5003A
:1027E200F601933134239331043008002000181D80
:1027F200FB2BFC2B032C1810710897007008960015
:102802001814072C71089700700896000800210020
:102812005A082000A300210059082000A20021002C
:1028220058082000A100210057082000A00008003D
:102832007C08031D1D2C1E2C262C200069088831C3
:1028420070209431FC01FC0A292C943184249431A7
:10285200080093310D2394319431D4249431923170
:10286200B62294319231692294319431B92494314F
:1028720097313527943108002000A2002200BC1DA8
:10288200432C442C512C200022082200B7002000A7
:1028920021082200B900200020082200B800BC1143
:1028A2000800770886008701403FF000413FF100B1
:1028B2007708023E8600870101089331892394310B
:1028C2000030F400F500F6019331342394310230E4
:1028D200080020006C08453E860001308700230076
:1028E200190881000130F00070082000EC07083060
:1028F2006C02031C7D2C7E2C7F2CEC010130F0003D
:102902007008EA07080021005C082200DE002100AE
:102912005B082200DD0021005E082200E0002100A9
:102922005D082200DF0002302000D4000030D50014
:102932005D3087312227943108002000A001A00ACF
:102942002200BC18A52CA62CB62C3C11FF30B600D8
:10295200923142229431923148229431923145226D
:10296200943122003B082000A0002000200808002B
:1029720020009901E0309700C0309600111017082E
:102982002100E000200016082100DF0011142A3087
:102992002000A0001230A1009231CE2294314130A9
:1029A200200098000800220090018C018D01633004
:1029B2008E00083021009000FF308C00FF308D0027
:1029C2009C308E003F3023008D0030308C0024007C
:1029D20090018D012100951722009D010800200021
:1029E200A000A101A10A2200BC18F82CF92C0B2D81
:1029F200BC142000A10120080319002D012D052D72
:102A02002200BA01BA0A082D02302200BA0092311D
:102A12004B2294312000210808002000A70020004A
:102A220027089731BA279531003A0319192D1A2D23
:102A3200102D20002608A1002508A00024089431AA
:102A42003D24953192319F22953194319E249531C6
:102A5200013A03192D2D2E2D262D080008302000B5
:102A62006D020318352D362D4F2D6E084D3E860012
:102A720001308700010823009A000130F00070083D
:102A82002000EE0708306E02031C482D492D4A2D06
:102A9200EE010130F0007008ED07512D21001112F6
:102AA20008002000A800A401A5012008A200A3019B
:102AB2002208A6002308A700281C602D612D652D81
:102AC2002608A4072708A53D0130A635A70D890BC6
:102AD200662D0310A80C2808031D702D712D5D2D85
:102AE2002508A1002408A0000800F3007008710462
:102AF20003197C2D7D2D8E2D7335203E86000130ED
:102B020087007008C03F7108C13F73082C3E8600E1
:102B120001308700720881009D2D7335203E8600AA
:102B2200013087002B30C03F1230C13F73082C3E6A
:102B32008600013087008101080092313C229531E4
:102B420022003C1CA52DA62DB12D9231A922953132
:102B5200003A0319AD2DAE2DB12D0F302200BA006F
:102B620022003A08FA00FB01FA35FB0D00307A0721
:102B7200840018307B3D80388500013F8A00003F89
:102B82000A0095312200BA00080022003C100230EF
:102B9200BB00D32D923181229531EE2D92318622C6
:102BA2009531EE2D2E08F7000430203E86000130CC
:102BB2008700413F8A00403F0A009531F800F90141
:102BC2007908003A0319E62DCF2D7808023A031945
:102BD200CB2D013A0319CB2DCF2D080020006A0816
:102BE2000319F42DF52DEF2D6B083D3E86000130C3
:102BF20087000108FD006B08453E86000130870012
:102C02000108A1000130A0002008EB0708306B0288
:102C1200031C0C2E0D2E0E2EEB0121009112013001
:102C22002000EA022100911620002108080020005D
:102C3200A1006D0803191E2E1F2E1A2E2100111A33
:102C4200232E242E292E2000210823009A003F2E15
:102C5200111220006F084D3E8600013087002108C6
:102C620081000130A0002008EF0708306F02031C2A
:102C72003B2E3C2E3D2EEF010130ED0221001116BC
:102C820008002000A100383086002130870045313D
:102C92000108A20038308600213087000108A00018
:102CA2003C30860021308700200881002208803EC7
:102CB200A0003D30860021308700200881003E3090
:102CC20086002130870021088100D2308600213021
:102CD20087000330810008002000AB0020002B0891
:102CE2009731BA279631003A0319782E792E6F2E32
:102CF20020002A08A1002908A000280894313D24B8
:102D0200963100302000A400A5000030A600A700E4
:102D120093313F2396319231A422963194319E24ED
:102D22009631013A0319962E972E8F2E0800220013
:102D3200BC15A82E923181229631C42E92313922AD
:102D420096310330C42E923186229631C42E2C083D
:102D5200F70021088A0020080A009631F800F901DC
:102D62007908003A0319B62EA42E7808013A0319FD
:102D7200A42E033A03199B2E013A03199B2E073AFC
:102D820003199F2EA42E0800DC2E22008E140E148E
:102D9200F32E031022008E1C03140318D12ED42EFE
:102DA20022008E14D62E22008E100E14F32E220034
:102DB2008E140E10F32E210063082000A000A10142
:102DC200A01BA1032108003A0319E82EF32E2008C4
:102DD200003A0319C62E013A0319CA2E033A0319FF
:102DE200D82EF32E080020006C083D3E86000130EC
:102DF2008700810123001D1DFF2E002F0D2F2000B3
:102E02006C083D3E8600013087008114220068086C
:102E12008A0067080A00973123009D1C112F122F88
:102E22001F2F20006C083D3E8600013087000115EF
:102E3200220066088A0065080A00973120006C08A3
:102E42003D3E86000130870001080319292F2A2FF1
:102E5200312F220064088A0063080A009731342F58
:102E620094316A249631080021009112F430200036
:102E7200A0001630A1009231FB22973121001112DD
:102E82002F302000A0001530A10093310423973188
:102E9200083023009F0090309D0024309E00CF30E8
:102EA2009B009C0129302000A0001230A100923129
:102EB200E922973155302000A0001230A100923152
:102EC200F222973151302000A0001230A10092313D
:102ED200E0229731FD012000EF01EE010830ED0004
:102EE200EC01EB01EA0121009116080022003708EB
:102EF2008600870192313622973181000130F80035
:102F020078082200B7070130B8020030B93B380810
:102F1200390403198D2F8E2F932F92315D22973111
:102F22000530B92FBC159D2F923195229731B92FBB
:102F3200923190229731B92F2C08F70021088A008C
:102F420020080A009731F800F9017908003A0319BC
:102F5200AB2F992F7808013A0319992F033A0319D5
:102F6200952F013A0319952F073A0319992F992F93
:102F720008002000A200A301A30A22003C19C22FCC
:102F8200C32FFD2F200022082200B600BC103C15E2
:102F92003C100E30BA00F430B4000130B500BC155C
:102FA2002B30A0001230A100AC012B30A200123055
:102FB200A300AD012B30A4001230A500AE012B30CE
:102FC200A6001230A700AF010230A8000030A9000D
:102FD200B00161302000A0001230A1009231D7224E
:102FE200973192314222973193317C23973192313A
:102FF2004E2297312000A3012000230808007234DA
:103002001234C5341234BD341234BF340834773428
:103012001734AF34123498341634773412347C3483
:10302200123481341234863412348B341234903494
:103032001234953412349A341234C63415340134AD
:0E304200023403340434053406340F341034E1
:020000040001F9
:08000000FF3FFF3FFF3FFF3F00
:04000E00FC3FDF3E96
:00000001FF
