:0400000080314828DB
:100008007E1480310B1F09280A2846282100111E5A
:100018000E280F281A282000111E132814281A2821
:100028006F088A006E080A00803146282100911E58
:100038001E281F282B282000911E232824282B281F
:10004800210027088A0026080A0080314628210056
:10005800921D2F2830283B282000921D342835284F
:100068003B285D088A005C080A0080314628210088
:10007800911D3F28402846282000911D44284528E6
:10008800462835287E10090080314A2888308400A7
:100098008230850062308600003087000C30823163
:1000A800C5228031F001F101F201F301F401F501FB
:1000B800F601203084000030850042308231CB22A6
:1000C80080317E1020008231D12A8231EF228031A6
:1000D800003A031970287128A1287E288331182333
:1000E8008031C028833113238031C028833109230C
:1000F8008031C02820003308F8003208F7000630A5
:10010800203E86008701413F8A00403F0A00803137
:10011800F800F9017908003A031993287A28780831
:10012800013A03197A28033A03197228013A031984
:100138007628073A03197A287A28200043103E08BF
:10014800F9003D08F800BD0A0319BE0A78088600C0
:10015800790887000108833122238031013020008B
:10016800BF020030C03B3F084004031DBC28BD2827
:10017800BF280630C028033008008331452380316A
:10018800F7001D30203E86008701403F8400413F34
:1001980085007708800001302000BD070030BE3D93
:1001A8000130BF020030C03B3F0840040319DD287E
:1001B800DE28E32883312F23803105300B29C3152E
:1001C800ED288231FA2280310B298231FF228031D9
:1001D8000B292D08F8002C08F70021088A002008B0
:1001E8000A008031F700F8017808003A0319FD2861
:1001F800E9287708013A0319E928033A0319E52899
:10020800013A0319E528073A0319E928E9280800FB
:10021800210091124B30A8000130A9008231D72269
:100228008131210011122530A8000230A900823145
:100238009D228131083023009F0090309D0024309A
:100248009E00CF309B009C0155302100A800033050
:10025800A9008231E322813137302100A800033020
:10026800A9008231DD2281313B302100A800033012
:10027800A9008231E9228131F001F601F501083047
:10028800F400F301F201F10121009116080073084E
:10029800443E86008701810123001D1D54295529EC
:1002A80060297308443E86008701811421002508CF
:1002B8008A0024080A00813123009D1C64296529CD
:1002C80070297308443E8600870101152100230820
:1002D8008A0022080A0081317308443E860087019B
:1002E80001080319782979298029210021088A0021
:1002F80020080A0081318329823161228131080076
:100308002000C315942983310E238131B22983310A
:10031800422381310330B229833109238131B22943
:100328002D08F8002C08F70021088A0020080A0088
:100338008131F700F8017808003A0319A4299029B7
:100348007708013A03199029033A03198729013AD2
:1003580003198729073A03198B29902908002000D7
:1003680043100230C200C02983310E238131DC29B9
:10037800833109238131DC293108F8003008F7007E
:100388000430203E86008701413F8A00403F0A0032
:100398008131F700F8017808003A0319D429BC29FB
:1003A8007708023A0319B829013A0319B829BC2970
:1003B800080083313F2381312000431CE429E529CB
:1003C800F0298231EF228131003A0319EC29ED2915
:1003D800F0290F302000C10020004108FA00FB017D
:1003E800FA35FB0D05307A07840002307B3D8038F2
:1003F8008500013F8A00003F0A0082312000C100C9
:1004080008001D340334A6340234AF34023469348E
:100418000034C1340034BE34023484340134183416
:100428000334133403340E340334093403340434EA
:100438000334FF340234FA340234F5340234B3346A
:1004480001340830740203182A2A2B2A422A750814
:10045800543E86008701010823009A000130F70006
:100468007708F50708307502031C3B2A3C2A3D2A09
:10047800F5010130F7007708F407442A210011122A
:100488000800220090018C018D0140308E00083058
:1004980021009000FF308C00FF308D009C308E00D2
:1004A8003F3023008D0030308C00240090018D01F6
:1004B8002100951722009D01080073084C3E860014
:1004C80087012300190881000130F7007708F30736
:1004D80008307302031C712A722A732AF30101304F
:1004E800F7007708F10708008231942282318231BF
:1004F800452282318231B7228231833127238231EA
:1005080081310C2182310800163424340B34243410
:100518000034243410342C340D342C3406342C3468
:10052800240094010830950096011330920095122A
:100538000800210029082000EF00210028082000D9
:10054800EE0008002000431403143C0D83312223DD
:10055800823105300800200043143C3583312223C2
:100568008231033008007030210099009801220080
:10057800960108002000431083314823823104305B
:100588000800FE0012001E00FE0BC62A003464009C
:1005980080010131890BCC2A0034823178228231E2
:1005A800D42A8031482821002908A7002808A60055
:1005B800080021002908A3002808A200080021003B
:1005C8002908A5002808A400080021002908A1007E
:1005D8002808A00008002400160E890C890C01398F
:1005E80008002000C310C2010E30080083313323F5
:1005F8008231093008008331332382310A30080000
:1006080083312F2383310530080083314B23833115
:100618000030080083314E238331013008008331D4
:100628004E2383310230080083314E238331013059
:1006380008002000C310C2010E300800F700770838
:10064800240091000800163021009700080081312D
:10065800DD218331080024009612161608002400B4
:1006680096161616080023001D121D160800823162
:1006780061228331080020009111080020009115A3
:10068800080024001108080024009615080024001A
:1006980016150800240096140800053008000130DB
:0406A800080008003E
:020000040001F9
:08000000FF3FFF3FFF3FFF3F00
:04000E00E43FFF3E8E
:00000001FF
