:1000000080315828053008007E1480310B1F0928E4
:100010000A2856282100111E0E280F281B28200010
:10002000111E132814281B2822006A088A00690858
:100030000A00803156282100911E1F2820282C28D4
:100040002000911E242825282C28220068088A00D8
:1000500067080A00803156282100921D3028312877
:100060003D282000921D352836283D2821006208B1
:100070008A0061080A00803156282100911D41281C
:10008000422848282000911D46284728482836281D
:100090002100111C4C284D2856282000111C5128E5
:1000A0005228562893317A23803156287E10090031
:1000B00080315A28AC30840092308500E4308600CC
:1000C000003087000030FF00083093314623803134
:1000D000FC308400873085006B308600013087005B
:1000E0000030FF0004309331462380316A308400B1
:1000F000213085008630FE000030FF0093313A2326
:100100008031FC01FD01E901EA01EB01EC01ED01A7
:10011000EE01EF01D7308400003085000D30FE0085
:100120000030FF0093313A238031203084000130C9
:1001300085004130FE000030FF0093313A238031CA
:100140007E1020009331882BEA302000A800023076
:10015000A9000030AA00443096316D2680319331D9
:10016000EB238031200023082200DC00200022083D
:100170002200DB00200021082200DA0020002008F5
:100180002200D9009331EB2380312200590820004E
:1001900020022100AD0022005A082000213B21004E
:1001A000AE0022005B082000223B2100AF002200AD
:1001B0005C082000233B2100B0003008031DEC2820
:1001C0002F08031DEC282E08031DEC2808302D02F3
:1001D000031CEB28EC28C228B5302000A400063010
:1001E000A5000030A60044309431E5248031210080
:1001F0003608AD00AE01AF01B00130082000A30009
:1002000021002F082000A20021002E082000A100BC
:1002100021002D082000A00001308C316E24803197
:1002200020002308CB002208CA002108C9002008AA
:10023000C8004330B1008030B0000030AF00003063
:10024000AE0021003508B100B201B301B401340899
:100250002000A300210033082000A2002100320862
:100260002000A100210031082000A00001308C31C5
:100270006E24803120002308B5002208B400210834
:10028000B3002008B2008231ED2280312000310815
:10029000CF003008CE002F08CD002E08CC008531CD
:1002A0002825803120004B082100C60020004A0884
:1002B0002100C500200049082100C4002000480892
:1002C0002100C300C2302000CB003430CA0000300F
:1002D000C9000030C8004730DF007F30DE00FF304B
:1002E000DD000030DC004330B1002F30B0000030C2
:1002F000AF000030AE00210046082000B50021000C
:1003000045082000B400210044082000B30021006B
:1003100043082000B2008231ED22803120003108F4
:10032000E3003008E2002F08E1002E08E0008D31E4
:10033000FC25803120005F08CF005E08CE005D08FC
:10034000CD005C08CC0085312825803120004B0889
:100350002100CA0020004A082100C90020004908E5
:100360002100C800200048082100C70041302000BB
:10037000B1002030B0000030AF000030AE002100EE
:100380004A082000B500210049082000B4002100DF
:1003900048082000B300210047082000B200823145
:1003A000ED228031200031082100BE0020003008FD
:1003B0002100BD0020002F082100BC0020002E08D5
:1003C0002100BB003E082000A30021003D082000C2
:1003D000A20021003C082000A10021003B082000D1
:1003E000A0008931C4218031200021082100DC00D7
:1003F000200020082100DB003908AD00AE01AF016C
:10040000B00130082000A30021002F082000A20026
:1004100021002E082000A10021002D082000A000AE
:1004200001308C316E24803120002308CB0022085B
:10043000CA002108C9002008C8004330B10080303C
:10044000B0000030AF000030AE0021003808B1002D
:10045000B201B301B40134082000A3002100330825
:100460002000A200210032082000A1002100310854
:100470002000A00001308C316E2480312000230840
:10048000B5002208B4002108B3002008B200823170
:10049000ED22803120003108CF003008CE002F0837
:1004A000CD002E08CC0085312825803120004B0856
:1004B0002100C60020004A082100C500200049088C
:1004C0002100C400200048082100C300473020005C
:1004D000DF007F30DE00FF30DD000030DC00423026
:1004E000B100C830B0000030AF000030AE002100D5
:1004F00046082000B500210045082000B400210076
:1005000044082000B300210043082000B2008231DB
:10051000ED22803120003108E3003008E2002F088E
:10052000E1002E08E0008D31FC25803120005F08BD
:100530002100CA0020005E082100C90020005D08DB
:100540002100C80020005C082100C70041302000C5
:10055000B1002030B0000030AF000030AE0021000C
:100560004A082000B500210049082000B4002100FD
:1005700048082000B300210047082000B200823163
:10058000ED228031200031082100C2002000300817
:100590002100C10020002F082100C00020002E08EB
:1005A0002100BF0042082000A300210041082000D4
:1005B000A200210040082000A10021003F082000E7
:1005C000A0008931C4218031200021082100DE00F3
:1005D000200020082100DD000800200031088039BB
:1005E000BB003135C100B01FF62AF72AF82A4114A2
:1005F00041080319FC2AFD2A0C2B410A031D012B7B
:10060000022B0A2B0030B1000030B0000030AF00E8
:100610000030AE00B017142B0030B1000030B00035
:100620000030AF000030AE0035088039B600360823
:10063000BB063535C000B41F1E2B1F2B202B4014CA
:1006400040080319242B252B342B400A031D292B8A
:100650002A2B322B0030B5000030B4000030B3003C
:100660000030B200B4173C2B0030B5000030B400AD
:100670000030B3000030B20040080319402B412B7A
:10068000462B4108031D452B462B4F2B0030B10054
:100690000030B0000030AF000030AE00272D2E0833
:1006A000A000340895312925823120002108C70097
:1006B0002008C6004608B600B701B801B9013908DC
:1006C000BF003808BE003708BD003608BC00470828
:1006D000B600B701B801B9013908C5003808C4002F
:1006E0003708C3003608C2002F08A0003308953130
:1006F0002925823120002108C7002008C6004608AD
:10070000B600B701B801B9013608BC073708BD3DCE
:100710003808BE3D3908BF3D4708B600B701B801EB
:10072000B9013608C2073708C33D3808C43D390847
:10073000C53D3008A00032089531292582312000BE
:100740002108C7002008C6004608B600B701B80156
:10075000B9013608BC073708BD3D3808BE3D390829
:10076000BF3D4708B600B701B801B9013608C20756
:100770003708C33D3808C43D3908C53D0830BC358D
:10078000BD0DBE0DBF0D890BBF2B2F08A000320879
:1007900095312925823120002108C7002008C60094
:1007A0004608BC074708BD3D0030BE3DBF3D2E0892
:1007B000A000330895312925823120002108C70087
:1007C0002008C6004608BC074708BD3D0030BE3DB6
:1007D000BF3D0830BC35BD0DBE0DBF0D890BEA2BEA
:1007E0002E08A000320895312925823120002108E9
:1007F000C7002008C6004608BC074708BD3D0030BA
:10080000BE3DBF3D2F08A000340895312925823117
:1008100020002108C7002008C6004608C207470874
:10082000C33D0030C43DC53D3008A00033089531BC
:100830002925823120002108C7002008C60046086B
:10084000C2074708C33D0030C43DC53D3008A00085
:10085000340895312925823120002108C70020085D
:10086000C6004608B6004708B700B801B90108300D
:10087000B635B70DB80DB90D890B382C3608C2073F
:100880003708C33D3808C43D3908C53D3C08B600AB
:100890003D08B7003E08B8003F08B9001830B93627
:1008A000B80CB70CB60C890B4F2C3608C2073708AA
:1008B000C33D3808C43D3908C53D0830BC35BD0DC1
:1008C000BE0DBF0D890B5E2C41084007B600B70175
:1008D000B70D3608823EC600FF30373DC700872C73
:1008E0000130C235C30DC40DC50D890B712CBF1F5E
:1008F0007A2C7B2C7C2C42140130BC35BD0DBE0DF6
:10090000BF0D890B7D2CFF30C607FF30C73DC41FCC
:100910008A2C8B2C702CC001BF1F8F2C902CAC2CE0
:10092000FF303C05B600FF303D05B700FF303E0507
:10093000B8007F303F05B900390838043704360461
:100940000319A32CA42CA72CC001C00AAC2C421C58
:10095000AA2CAB2CAC2CA42C40080319B02CB12C25
:10096000D92C0130C2070030C33D0030C43D0030F7
:10097000C53D451CBC2CBD2CD92C4208B6004308F3
:10098000B7004408B8004508B9000130BA00B937CB
:10099000B80CB70CB60CBA0BC72C3908C500380810
:1009A000C4003708C3003608C2000130C607003053
:1009B000C73D4708803AB60080303602031DE22C5E
:1009C000FF304602031CE52CE62CF02C7F30200083
:1009D000C5008030C4000030C3000030C2001B2DB1
:1009E00020004708803AB60080303602031DFA2CFA
:1009F000013046020318FD2CFE2C092D003020008A
:100A0000C5000030C4000030C3000030C200BB018C
:100A10001B2D20004608C100FF30C205FF30C30572
:100A20007F30C4050030C505411C172D182D192D28
:100A3000C4174136C5003B08B6003608C504450852
:100A4000B1004408B0004308AF004208AE000800FF
:100A500020004B088039D8004B35DA00CA1F312DF1
:100A6000322D332D5A145A080319372D382D482D9D
:100A70005A0A031D3C2D3D2D452D0030CB00003082
:100A8000CA000030C9000030C800CA17CB01502D81
:100A90000030CB000030CA000030C9000030C80070
:100AA0004F088039D900590858060319582D592D77
:100AB0005A2D58174F35D900CE1F5F2D602D612D4F
:100AC000591459080319652D662D762D590A031DF1
:100AD0006A2D6B2D732D0030CF000030CE0000301A
:100AE000CD000030CC00CE17CF017E2D0030CF00DE
:100AF0000030CE000030CD000030CC005A08590242
:100B00000318832D842DAA2D581F872D882D8C2DF9
:100B10008030D0005008D8065A08DB005908DA00A7
:100B20005B08D9004808DB004C08C8005B08CC0013
:100B30004908DB004D08C9005B08CD004A08DB000E
:100B40004E08CA005B08CE004B08DB004F08CB0004
:100B50005B08CF00DB015908D000D1015108D30058
:100B60005A085002D200031CD3035308803AD40021
:100B700080305402031DBE2D1A305202031CC12DB9
:100B8000C22DF42D20004B084A0449044804031DDB
:100B9000CA2DCC2D0130CD2D0030DB000030CB0034
:100BA0000030CA000030C9000030C8005908DA001F
:100BB000FB2D5B1CDC2DDD2DE12D5B360138DB00D0
:100BC000E32D0310DB0C481CE62DE72DE82DDB1789
:100BD0000130D000CB37CA0CC90CC80CD00BEA2DA1
:100BE0000130D0005008DA07200059085A02031CCF
:100BF000FA2DFB2DD92D581BFE2DFF2D352E5A0811
:100C0000031D032E042E0D2E0030CB000030CA0031
:100C10000030C9000030C8002F2F4C08C8074D080D
:100C2000C93D4E08CA3D4F08CB3D4B1C182E192E0E
:100C3000C12E5B1C1C2E1D2E212E5B360138DB00C5
:100C4000232E0310DB0C481C262E272E282EDB1704
:100C50000130D000CB37CA0CC90CC80CD00B2A2EDF
:100C60000130D0005008DA07C12E4B08803AD0007E
:100C70004F08803A5002031D472E4E084A02031DBA
:100C8000472E4D084902031D472E4C084802031801
:100C90004A2E4B2E832EFF30D000FF30D100FF3084
:100CA000D200FF30D30048084C02D40049084D3B25
:100CB000D5004A084E3BD6004B084F3BD70054089E
:100CC000D0075508D13D5608D23D5708D33D5308AB
:100CD000CB005208CA005108C9005008C800803033
:100CE000D0005008D806DB09DB0A5B08031D792E0B
:100CF0007A2E8B2E0130C8070030C93D0030CA3D26
:100D00000030CB3D8B2E4C08C8024D08C93B4E0825
:100D1000CA3B4F08CB3B4B084A0449044804031D17
:100D2000922E932EBD2E5B08031D972E982EBD2E5E
:100D30000030CB000030CA000030C9000030C800CD
:100D40002F2F0130C835C90DCA0DCB0D890BA22E2E
:100D5000DB1FAB2EAC2EAD2E48145B1CB02EB12E7B
:100D6000B42E0314DB0DB62E0310DB0D5A08031945
:100D7000BA2EBB2EBD2E0130DA02CA1FC02EC12EE4
:100D8000A12ED901DB1FC52EC62ED42E5B087F39BC
:100D90000319CB2ECC2ECF2ED901D90AD42E481C24
:100DA000D22ED32ED42ECC2E59080319D82ED92EBC
:100DB000062F0130C8070030C93D0030CA3D003061
:100DC000CB3D4B1CE42EE52E062F4808D0004908E9
:100DD000D1004A08D2004B08D3000130D400D337E9
:100DE000D20CD10CD00CD40BEF2E5308CB005208F0
:100DF000CA005108C9005008C8005A0A0319012F37
:100E0000022F062F0130D0005008DA075A0A0319C2
:100E10000A2F0B2F102F5A08031D0F2F102F1E2FD4
:100E20000030CB000030CA000030C9000030C800DC
:100E30005A08031D1C2F1D2F1E2FD8015A1C212FAD
:100E4000222F242FCA17282F7F30D0005008CA0520
:100E50005A36CB00D81F2D2F2E2F2F2FCB1708003F
:100E60002000DE00EA308600213087005408C03FB1
:100E70005508C13F6A08DF005F08031D402F412F5E
:100E8000432F0030FB2FD33086002130870001082C
:100E90005F0603194C2F4D2F642FD330860021306D
:100EA00087005F0881009331EB238731DE308600B5
:100EB0002130870020002008C03F2108C13F2208C0
:100EC000C23F2308C33F412FDE3086002130870018
:100ED000403FD600413FD700423FD800433FD900B2
:100EE0009331EB23873120002008DA002108DB0052
:100EF0002208DC002308DD005608DA025708DB3B35
:100F00005808DC3B5908DD3B5D08031D922F5C0847
:100F1000031D922F5B08031D922F03305A02031802
:100F2000922F932F942F412FD330860021308700AA
:100F300081018931092187312000E0006D30860070
:100F40002130870060088100073060020318A92F54
:100F5000AA2FAD2F20006008FB2F6A3086002130B9
:100F600087006A30840021308500043100080106C2
:100F70000319BB2FBC2FBD2F412F8A31AE228731E1
:100F80002000E10061080319C62FC72FDC2F610A7A
:100F90000319CB2FCC2FD32F6108963142268731EE
:100FA0008D31192587316D30860021308700200072
:100FB000610881006108FB2F9331EB238731E23018
:100FC00086002130870020002008C03F2108C13F53
:100FD0002208C23F2308C33F6A30860021308700C1
:100FE000433181015508BF005408BE005E088B31B3
:100FF000CA238731AA2F08002434163424340B3432
:101000002000A000A101A10A2200BC18082809287C
:101010001B28BC142000A101200803191028112846
:1010200015282200BA01BA0A182802302200BA0094
:101030009231322288312000210808002000AB1BA9
:101040003C282B08031D3B282A08031D3B282908A0
:10105000031D3B282808031D3B282708031D3B28A8
:101060002608031D3B282508031D3B2801302402C8
:1010700003183B283C28642820002409A4002509E3
:10108000A5002609A6002709A7002809A800290904
:10109000A9002A09AA002B09AB00A40A031D632892
:1010A000A50A031D6328A60A031D6328A70A031DBA
:1010B0006328A80A031D6328A90A031D6328AA0A36
:1010C000031D6328AB0A642808002000A0006A30D2
:1010D0008600213087002008C03F6B308600213019
:1010E000870002308100DC30860021308700E83044
:1010F000C03F0330C13FE63086002130870000301A
:10110000C03FC13FC23FC33F6A30860021308700E5
:10111000413102300102031C8E288F2892282200C0
:101120008E12942822008E16D2308600213087003D
:101130008101D3308600213087008101DA308600BA
:10114000213087000030C03FC13FD83086002130B9
:1011500087000030C03FC13FD63086002130870075
:101160000030C03FC13F0800923190228831003AE0
:101170000319BB28BC28EB28C92892315E2288318C
:101180000829923163228831082992316D228831F1
:10119000082922002F08F7000630203E8600013083
:1011A0008700413F8A00403F0A008831F800F9017A
:1011B0007908003A0319DD28C5287808013A03198F
:1011C000C528033A0319BD28013A0319C128073A73
:1011D0000319C528C52822003C101730203E860080
:1011E00001308700403F84008501810A0008923168
:1011F0005422883101302200B8020030B93B38084F
:101200003904031D0429052907290630082903305C
:1012100008002000A901D23086002130870081011A
:1012200041299531C62589312000A200D23086009F
:10123000213087000108A300A4016E30A5002130F1
:10124000A60023082507A7002408263DA800270894
:10125000860028088700220881000130A200D230D1
:1012600086002130870022088107D2308600213095
:10127000870064300102031C3E293F294129A9014E
:10128000A90A6A08031D452946291129D630860076
:10129000213087000130810741310318810A290874
:1012A0000319532954295F29DA3086002130870039
:1012B0000130810741310318810AFD306429D230A1
:1012C000860021308700010808002000AA00FF30B6
:1012D000AD00FF30AE00AB01AB01A5292B08A20089
:1012E000A3016E30A4002130A50022082407860047
:1012F0002308253D87002D080106AD002E08AE000D
:10130000AC01AC0A01302D05A80000302E05A90063
:101310000130AE36AD0C890B892928082904031940
:101320009229932997290130AD06A030AE060130ED
:10133000A2002208AC0709302C02031CA029A12915
:1013400082290130A2002208AB072A082B02031CC5
:10135000AA29AB296E292E08A3002D08A200230874
:10136000A200A3012208A6002308A7002D08A300BD
:10137000A20126082204AD0027082304AE002E088F
:10138000A1002D08A000080003102000220D230D4D
:10139000A9002908031DCD29CE29D7290030A30093
:1013A0000030A2000030A1000030A000342A200844
:1013B000A4002108A5002208A6002308A7001F30CA
:1013C000A736A60CA50CA40C890BE0292408A800BC
:1013D000A217FF30A005FF30A105FF30A2050030A5
:1013E000A3059630A902A91FF629F7290F2A290873
:1013F000803A973E0318FD29FE29FF29CE290130A6
:10140000A336A20CA10CA00C890B002A0130A40069
:101410002408A907031D0D2A0E2AFF29242A20309B
:101420002902031C142A152A1F2ACE290130A035AF
:10143000A10DA20DA30D890B172A0130A9022908BD
:10144000031D232A242A162A28080319282A292AB0
:10145000342AA009A109A209A309A00A0319A10A13
:101460000319A20A0319A30A0800003020000C186F
:1014700001302100EF00003020008C1801302100E5
:10148000EE00003020000C1901302100ED0000308A
:1014900020008C1901302100EC006F03031D512A3C
:1014A000522A652A6E08031D562A572A652A6D0896
:1014B000031D5B2A5C2A652A6C08031D602A612AC9
:1014C000652A2000E901E90AAD2A6F08031D692A8F
:1014D0006A2A7D2A6E03031D6E2A6F2A7D2A6D08F3
:1014E000031D732A742A7D2A6C08031D782A792A21
:1014F0007D2A02302000E900AD2A6F08031D812AF1
:10150000822A952A6E08031D862A872A952A6D034A
:10151000031D8B2A8C2A952A6C08031D902A912A78
:10152000952A04302000E900AD2A6F08031D992A8E
:101530009A2AAD2A6E08031D9E2A9F2AAD2A6D089D
:10154000031DA32AA42AAD2A6C03031DA82AA92AD5
:10155000AD2A08302000E900AD2A0800D23086000C
:101560002130870001082000AF00B0016D30B100CC
:101570002130B2002F08310786003008323D870045
:101580000108B300B401D230860021308700010881
:10159000B500B6016C30B7002130B8003508370708
:1015A00086003608383D87000108B900BA013908BD
:1015B000BA00B90133083904BC0034083A04BD004C
:1015C000D2308600213087000108FE3E8931652136
:1015D0008A3120003D082106031DF02A3C08200620
:1015E0000319F32AF42AFF2ADA3086002130870013
:1015F0000130810741310318810AFF30322BBE01CF
:10160000BF01BF016A3086002130870045313F08A5
:10161000203E840098300318013E85000008010632
:10162000031D132B142B172BBE01BE0A212B0130D7
:10163000AF002F08BF0708303F02031C202B212BCF
:10164000022B3E08031D252B262B312BDA3086007A
:10165000213087000130810741310318810A0130B0
:10166000322B003008009331EB238B3122005508D8
:10167000200020022100CB00220056082000213B40
:101680002100CC00220057082000223B2100CD0081
:10169000220058082000233B2100CE004B08CF0039
:1016A0004C08D0004D08D1004E08D200D301D4011F
:1016B000D501D60156082000AB00210055082000B6
:1016C000AA00210054082000A9002100530820008E
:1016D000A800210052082000A70021005108200086
:1016E000A600210050082000A50021004F0820007E
:1016F000A40088311E208B312000AB1B982B2B08B7
:10170000031D992B2A08031D992B2908031D992BCA
:101710002808031D992B2708031D992B2608031D54
:10172000992BD03024020730253B031C982B992B92
:10173000C92B9331EB238B31200023082200D800E2
:10174000200022082200D700200021082200D60015
:10175000200020082200D5002100E301E30A8031A7
:10176000A4208B3121005B085C040319B82BB92B32
:10177000BF2B5D085E04031DBE2BBF2BC92BFF30A2
:10178000DB00FF30DC00FF30DD00FF30DE00023028
:10179000E30008002000CD006A3086002130870079
:1017A00046310108CF006A3086002130870047317A
:1017B0000108CE004F08CB004E08CA006A308600F0
:1017C0002130870048310108D1006A30860021307D
:1017D000870049310108D0005008CC004C35C000CA
:1017E000703086002130870040088100D2308600AA
:1017F00021308700033081004B08D3004A08D20013
:10180000592C52354D07C000400886000130870032
:10181000403FC100413FC2004208C300D2308600B1
:10182000213087000108C400C5016E30C600213098
:10183000C70044084607C8004508473DC900480896
:10184000860049088700430881000130C000D2307B
:101850008600213087004008810752354D07C000BF
:1018600040088600013087000108C100D2308600A0
:10187000213087000108C200C3016E30C40021304E
:10188000C50042084407C6004308453DC700460856
:10189000860047088700410881000130C000D2302F
:1018A000860021308700400881070130D2070030D0
:1018B000D33D4C084A07C0004B0803184B0AC1002F
:1018C00041085302031D662C40085202031C692C78
:1018D0006A2C012C8D3119258B3108002000A800BD
:1018E00028080319742C752C892CA31F782C792CAB
:1018F000892C2009AA002109AB002209AC00230988
:10190000AD00AA0A0319AB0A0319AC0A0319AD0A00
:10191000912C2308AD002208AC002108AB00200860
:10192000AA002308220421042004031D982C992CCA
:10193000A22C0030A3000030A2000030A100003033
:10194000A000182D9630A900B02C0130A400240866
:10195000A9070130AD36AC0CAB0CAA0C890BAA2C34
:10196000FE302D05031DB52CB62CA52CCA2C01303C
:10197000A4002408A9070130AA070030AB3D0030BD
:10198000AC3D0030AD3D0130AD36AC0CAB0CAA0C1B
:10199000890BC42CFF302D05031DCF2CD02CB72C68
:1019A000DA2C0130A9020130AA35AB0DAC0DAD0D1A
:1019B000890BD42CAC1BDD2CDE2CE42C023029024C
:1019C0000318E32CE42CD12C2918E72CE82CF02C5C
:1019D000FF30AA05FF30AB057F30AC05FF30AD0509
:1019E0000310A90C2908A400A501A601A70118301D
:1019F000A435A50DA60DA70D890BF82C2408AA0463
:101A00002508AB042608AC042708AD0428080319F0
:101A10000A2D0B2D102DA31F0E2D0F2D102DAD17E0
:101A20002D08A3002C08A2002B08A1002A08A00062
:101A30000800D230860021308700010889316521F5
:101A40008D3120002108B7002008B6003708AF000C
:101A5000D2308600213087000108B000B1016E301D
:101A6000B2002130B30030083207B4003108333DF2
:101A7000B50034088600350887002F088100013042
:101A8000AF00D2308600213087002F088107D23086
:101A90008600213087000108AF00B0016E30B10030
:101AA0002130B2002F083107B3003008323DB400B6
:101AB0003308860034088700360881000130AF0003
:101AC000D2308600213087002F0881076A308600D7
:101AD00021308700413102300102031C702D712D2D
:101AE000732D22008E162000B801B9018B2D6E30A7
:101AF0002000AF002130B00038082F0786003908D9
:101B0000303D87000108963118268D3101302000C4
:101B1000B8070030B93DD23086002130870039083F
:101B2000803AAF0080302F02031D982D0108380243
:101B3000031C9B2D9C2D772D6A3086002130870059
:101B4000413102300102031CA62DA72DDD2D92315B
:101B50004C228D31003A0319AE2DAF2DA72DE63062
:101B6000860021308700403F2000BA00413FBB0083
:101B7000423FBC00433FBD0001302000AF000030B9
:101B8000B0000030B1000030B2002F08BA023008B7
:101B9000BB3B3108BC3B3208BD3B3A0A031DDA2D82
:101BA0003B0A031DDA2D3C0A031DDA2D3D0A031DF5
:101BB000DA2DDB2DBC2D22008E12D2308600213092
:101BC000870081019331EB238D31E2308600213093
:101BD000870020002008C03F2108C13F2208C23FE3
:101BE0002308C33FD83086002130870001308107A9
:101BF00041310318810A0800200063088039210060
:101C0000A400200063352100AB002000E21F092E54
:101C10000A2E0C2E21002B1421002B080319112E43
:101C2000122E242E2B0A031D162E172E202E0030C6
:101C30002000E3000030E2000030E1000030E0006E
:101C40002000E217E3012D2E00302000E3000030D9
:101C5000E2000030E1000030E0005F088039E4007D
:101C600064082100A40620005F352100AC0020009C
:101C7000DE1F3B2E3C2E3E2E21002C1421002C0872
:101C80000319432E442E562E2C0A031D482E492E8E
:101C9000522E00302000DF000030DE000030DD007A
:101CA0000030DC002000DE17DF015F2E0030200056
:101CB000DF000030DE000030DD000030DC005F08B7
:101CC0005E045D045C04031D662E672E822E0030C8
:101CD000E3000030E2000030E1000030E00080303E
:101CE000E2047F30E304210024082000E4006408BB
:101CF000E3046308DF006208DE006108DD006008BD
:101D0000DC00FF2F21002B08031D872E882E922E2A
:101D100000302000DF000030DE000030DD00003049
:101D2000DC00FF2F2B082000E400E5016508E70038
:101D300021002C0820006402E600031CE70366086B
:101D40007F3E2100A50000302000673D2100A60055
:101D5000200063082100A300200062082100A200E7
:101D6000200061082100A100200060082100A000DF
:101D700000302000E3000030E2000030E1000030DD
:101D8000E00000302100AA000030A9000030A800C7
:101D90000030A700AC01202F2C080319D02ED12E23
:101DA000EF2E0130A035A10DA20DA30D890BD22E6F
:101DB00001302000E035E10DE20DE30D890BD92E55
:101DC0002100AA1FE42EE52EE72E2000601401302A
:101DD0002100A735A80DA90DAA0D890BE82E20001A
:101DE0005F0821002302031D052F20005E0821004B
:101DF0002202031D052F20005D0821002102031D82
:101E0000052F20005C0821002002031C082F092F49
:101E10001A2F2A1720005C082100A00220005D086C
:101E20002100A13B20005E082100A23B20005F08AA
:101E30002100A33B01302000E40064082100AC072E
:101E40001A302C02031C252F262FCC2E2308220407
:101E50002104200403192D2F2E2F4A2F27144A2F37
:101E60000130E035E10DE20DE30D890B312F21004A
:101E7000AA1F3B2F3C2F3E2F200060140130210071
:101E8000A735A80DA90DAA0D890B3F2FFF30A50777
:101E9000FF30A63D2000E21F4E2F4F2F302F210094
:101EA000AC01AA1F542F552F792FFF302705200092
:101EB000E400FF30210028052000E500FF3021006C
:101EC00029052000E6007F3021002A052000E700D8
:101ED000670866046504640403196F2F702F742F5C
:101EE0002100AC01AC0A792F601C772F782F792F55
:101EF000702F21002C0803197E2F7F2FA92F01306E
:101F00002000E0070030E13D0030E23D0030E33DDD
:101F1000631C8B2F8C2FA92F6008E4006108E5005B
:101F20006208E6006308E7000130E800E737E60CE6
:101F3000E50CE40CE80B962F6708E3006608E20066
:101F40006508E1006408E00001302100A5070030C9
:101F5000A63D21002608803A2000E400803064027B
:101F6000031DB52FFF3021002502031CB82FB92F08
:101F7000C72FFF302100A5000030A6000030200050
:101F8000E3000030E2000030E1000030E00021001A
:101F90002608803A2000E40080306402031DD32F1D
:101FA0000130210025020318D62FD72FE52F21005D
:101FB000A501A60100302000E3000030E20000305F
:101FC000E1000030E0002100A40121002508AB0061
:101FD0002B1CEB2FEC2FEF2F2000E217F42F7F307C
:101FE0002000E4006408E20521002B362000E30015
:101FF000210024082000E4006408E304792E08008E
:102420000800080001300800240096140800240069
:10243000161508002400961508002400110808004D
:1024400020009115080020009111080020001814A8
:1024500008002000911108002400951208002100B6
:10246000911108002400161408002100911508009D
:1024700094315F249231080023001D121D160800BC
:102480002400961616160800240096121616080048
:10249000953175259231080023001E0C0139080082
:1024A0002430210097000800F000700824009100FB
:1024B00008002200BC10BB010E300800923114222B
:1024C000923101300800923114229231023008001A
:1024D0009231142292310130080092311722923148
:1024E00000300800923144229231053008009231C8
:1024F000402292310A300800923140229231093054
:1025000008002200BC10BB010E30080001308831E9
:1025100000209231080000308831002092310800FC
:102520002400160E890C890C0139080022003C1089
:1025300092311A2292310430080070302100990043
:10254000980122009601080022003C143635923191
:102550005422923103300800243400342C341034D7
:102560002C3406342C340D3422003C140314360D64
:1025700092315422923105300800200021082200B7
:10258000E200200020082200E100080020002108CD
:102590002100E200200020082100E10008002000C6
:1025A00021082300A100200020082300A00008002B
:1025B000200021082200E600200020082200E5007B
:1025C0000800200021082200E4002000200822004A
:1025D000E3000800200021082200E8002000200875
:1025E0002200E7000800200021082200EA00200065
:1025F00020082200E900080024009401083095001A
:102600009601133092009512080001302100D7077F
:102610000030D83D0030D93D0030DA3D08008A3125
:102620003522933192312622933194310D24933106
:1026300008008B31332393319331FC23933196314E
:10264000C526933108007508F1007408F00076087B
:10265000F200003095314D25933108002000250807
:10266000A1002408A0002608A20002309531EF2521
:10267000933108006400800101310130FE02003016
:10268000FF3B7F087E04031D3B2B0034FE0012003D
:102690001E000130FE020030FF3B7F087E04031D58
:1026A000472B00342200610862040319582B592B70
:1026B0005E2B62088A0061080A009331080024003A
:1026C000951A632B642B6B2B9401083095009601AF
:1026D0001330920095160800F2002200BC1D712BE9
:1026E000722B792B7208B7007108B9007008B80016
:1026F000BC1108002000111021006008F1005F08E3
:10270000F0009331DA23933193315223933108004F
:1027100094311F24933193310F2393318B170B176F
:10272000933119239331902B803158280230F000D7
:102730000030F100770893316C2393310030F400BE
:10274000F500F60193312323933104300800013062
:10275000F0000030F100770893316C2393310030A2
:10276000F400F500F6019331232393310230080081
:102770000230F0000030F100770893316C23933180
:102780000030F400F500F601933123239331023039
:1027900008000130F0000030F100770893316C231D
:1027A00093310030F400F500F60193312323933187
:1027B000043008002000181DDE2BDF2BE62B18103C
:1027C00071089700700896001814EA2B710897009A
:1027D00070089600080021005A082000A30021007C
:1027E00059082000A200210058082000A100210063
:1027F00057082000A00008007C08031D002C012CB5
:10280000092C20006908883165209331FC01FC0AFD
:102810000C2C943179249331080000302100DA0027
:102820000030D9000030D8000030D700053020003B
:10283000A0001330A1009231BD22943108009231E2
:10284000FC2294319431C924943192319D229431E7
:102850009231502294319431AE24943197313527FE
:10286000943108002000A2002200BC1D382C392C15
:10287000462C200022082200B70020002108220058
:10288000B900200020082200B800BC110800770819
:1028900086008701403FF000413FF1007708023E8B
:1028A00086008701010893316C2394310030F400D5
:1028B000F500F60193312323943102300800200003
:1028C0006C08453E8600013087002300190881000E
:1028D0000130F00070082000EC0708306C02031C87
:1028E000722C732C742CEC010130F0007008EA0794
:1028F000080021005C082200DE0021005B082200A5
:10290000DD0021005E082200E00021005D082200B9
:10291000DF0002302000D4000030D5005D30873168
:102920003027943108002000A001A00A2200BC1822
:102930009A2C9B2CAB2C3C11FF30B60092312922F3
:10294000943192312F22943192312C2294312200F1
:102950003B082000A000200020080800200099016A
:10296000E0309700C0309600111017082100E000F9
:10297000200016082100DF00111411302000A000F3
:102980001230A1009231BD229431413020009800D4
:102990000800220090018C018D0163308E00083008
:1029A00021009000FF308C00FF308D009C308E00A5
:1029B0003F3023008D0030308C00240090018D01C9
:1029C0002100951722009D0108002000A70020008B
:1029D00027089731BA279431003A0319F02CF12CCB
:1029E000E72C20002608A1002508A0002408943127
:1029F000322494319231862294319431932494314B
:102A0000013A0319042D052DFD2C08000830200083
:102A10006D0203180C2D0D2D262D6E084D3E8600DF
:102A200001308700010823009A000130F00070088F
:102A30002000EE0708306E02031C1F2D202D212DD3
:102A4000EE010130F0007008ED07282D2100111271
:102A500008002000A800A401A5012008A200A301ED
:102A60002208A6002308A700281C372D382D3C2D4E
:102A70002608A4072708A53D0130A635A70D890B18
:102A80003D2D0310A80C2808031D472D482D342D7B
:102A90002508A1002408A0000800F30070087104B4
:102AA0000319532D542D652D7335203E86000130BA
:102AB00087007008C03F7108C13F73082C3E860034
:102AC0000130870072088100742D7335203E860026
:102AD000013087001230C03F1230C13F73082C3ED6
:102AE0008600013087008101080092312322953150
:102AF00022003C1C7C2D7D2D882D92319022953119
:102B0000003A0319842D852D882D0F302200BA003C
:102B100022003A08FA00FB01FA35FB0D00307A0773
:102B2000840018307B3D80388500013F8A00003FDB
:102B30000A0095312200BA00080022003C10023041
:102B4000BB00AA2D923168229531C52D92316D229C
:102B50009531C52D2E08F7000430203E8600013047
:102B60008700413F8A00403F0A009531F800F90193
:102B70007908003A0319BD2DA62D7808023A0319E9
:102B8000A22D013A0319A22DA62D080020006A08E3
:102B90000319CB2DCC2DC62D6B083D3E8600013090
:102BA00087000108FD006B08453E86000130870064
:102BB0000108A1000130A0002008EB0708306B02DB
:102BC000031CE32DE42DE52DEB01210091120130D2
:102BD0002000EA02210091162000210808002000B0
:102BE000A300200821040319F62DF72D082E233504
:102BF000203E8600013087002008C03F2108C13FE9
:102C000023082C3E86000130870022088100172E01
:102C10002335203E8600013087001230C03F12303D
:102C2000C13F23082C3E8600013087008101080047
:102C30002000A1006D0803191E2E1F2E1A2E210040
:102C4000111A232E242E292E2000210823009A0059
:102C50003F2E111220006F084D3E86000130870084
:102C6000210881000130A0002008EF0708306F0222
:102C7000031C3B2E3C2E3D2EEF010130ED022100C6
:102C8000111608002000A1006A308600213087005C
:102C900045310108A2006A30860021308700010812
:102CA000A0006E30860021308700200881002208B5
:102CB000803EA0006F308600213087002008810010
:102CC000703086002130870021088100D2308600D4
:102CD000213087000330810008002000AB00200075
:102CE0002B089731BA279631003A0319782E792E9E
:102CF0006F2E20002A08A1002908A000280894317E
:102D00003224963100302000A400A5000030A60037
:102D1000A70093312E23963192318B229631943134
:102D200093249631013A0319962E972E8F2E080080
:102D30002200BC15A82E923168229631C42E923101
:102D4000202296310330C42E92316D229631C42E4A
:102D50002C08F70021088A0020080A009631F800A4
:102D6000F9017908003A0319B62EA42E7808013A21
:102D70000319A42E033A03199B2E013A03199B2E23
:102D8000073A03199F2EA42E0800DC2E22008E1471
:102D90000E14F32E031022008E1C03140318D12EE0
:102DA000D42E22008E14D62E22008E100E14F32E56
:102DB00022008E140E10F32E210063082000A000C4
:102DC000A101A01BA1032108003A0319E82EF32E4C
:102DD0002008003A0319C62E013A0319CA2E033AF5
:102DE0000319D82EF32E080020006C083D3E860003
:102DF00001308700810123001D1DFF2E002F0D2FA4
:102E000020006C083D3E86000130870081142200BE
:102E100066088A0065080A00973123009D1C112F5F
:102E2000122F1F2F20006C083D3E860001308700C6
:102E30000115220064088A0063080A009731200007
:102E40006C083D3E86000130870001080319292FD8
:102E50002A2F312F230021088A0020080A009731E9
:102E6000342F94315F249631080021009112F43000
:102E70002000A0001630A1009231EA2297312100F3
:102E8000111206302000A0001530A1009231F3226B
:102E90009731083023009F0090309D0024309E0021
:102EA000CF309B009C0110302000A0001230A10008
:102EB0009231D82297313C302000A0001230A1007E
:102EC0009231E122973138302000A0001230A10069
:102ED0009231CF229731FD012000EF01EE01083041
:102EE000ED00EC01EB01EA0121009116080022003F
:102EF00037088600870192311D2297318100013009
:102F0000F80078082200B7070130B8020030B93B5A
:102F10003808390403198D2F8E2F932F92314422B4
:102F200097310530B92FBC159D2F92317C229731F6
:102F3000B92F923177229731B92F2C08F700210849
:102F40008A0020080A009731F800F9017908003A50
:102F50000319AB2F992F7808013A0319992F033AD7
:102F60000319952F013A0319952F073A0319992F41
:102F7000992F08002000A200A301A30A22003C19F7
:102F8000C22FC32FFD2F200022082200B600BC1044
:102F90003C153C100E30BA00F430B4000130B500DE
:102FA000BC151230A0001230A100AC011230A200FA
:102FB0001230A300AD011230A4001230A500AE0102
:102FC0001230A6001230A700AF010230A800003076
:102FD000A900B00148302000A0001230A1009231B9
:102FE000C622973192312922973193315F2397314D
:102FF0009231352297312000A301200023080800D8
:1030000059341234B4341234A4341234B43408347D
:103010007734173496341234983416345E341234BC
:1030200063341234683412346D341234723412340E
:10303000773412347C341234813412349D34153494
:103040000134023403340434053406340F341034AC
:020000040001F9
:08000000FF3FFF3FFF3FFF3F00
:04000E00FC3FDF3E96
:00000001FF
