:1000000080315728053008007E1480310B1F0928E5
:100010000A2855282100111E0E280F281B28200011
:10002000111E132814281B28220029088A002808DA
:100030000A00803155282100911E1F2820282C28D5
:100040002000911E242825282C28220027088A0019
:1000500026080A00803155282100921D30283128B9
:100060003C282000921D352836283C2869088A0043
:1000700068080A00803155282100911D4028412838
:1000800047282000911D452846284728362821006A
:10009000111C4B284C2855282000111C5028512891
:1000A00055288D319125803155287E1009008031E9
:1000B0005928783084008D308500E130860000308A
:1000C00087000030FF000C308D316C2580319C3072
:1000D0008400213085005430FE000030FF008D3157
:1000E00060258031F801F901FA01FB01FC015E3065
:1000F0008400003085001030FE000030FF008D319C
:1001000060258031A0308400003085004130FE0041
:100110000030FF008D31602580317E1020008D3150
:10012000B92DD23086002130870001088331DF23CA
:10013000803120002108B7002008B6003708AF0042
:10014000D2308600213087000108B000B101A03014
:10015000B2002130B30030083207B4003108333D1B
:10016000B50034088600350887002F08810001306B
:10017000AF00D2308600213087002F088107D230AF
:100180008600213087000108AF00B001A030B10027
:100190002130B2002F083107B3003008323DB400DF
:1001A0003308860034088700360881000130AF002C
:1001B000D2308600213087002F0881079C308600CE
:1001C00021308700413102300102031CE828E92870
:1001D000EB2822008E162000B801B9010329A030B7
:1001E0002000AF002130B00038082F078600390802
:1001F000303D87000108873193278031013020008E
:10020000B8070030B93DD230860021308700390868
:10021000803AAF0080302F02031D102901083802F8
:10022000031C13291429EF289C30860021308700F5
:10023000413102300102031C1E291F2955298C312E
:1002400073248031003A0319262927291F29E63013
:10025000860021308700403F2000BA00413FBB00AC
:10026000423FBC00433FBD0001302000AF000030E2
:10027000B0000030B1000030B2002F08BA023008E0
:10028000BB3B3108BC3B3208BD3B3A0A031D522937
:100290003B0A031D52293C0A031D52293D0A031D36
:1002A00052295329342922008E12D230860021305F
:1002B000870081018D3135258031E2308600213083
:1002C000870020002008C03F2108C13F2208C23F0C
:1002D0002308C33FD83086002130870001308107D2
:1002E00041310318810A08002200AE00EA3086007E
:1002F0002130870020005408C03F5508C13F7808CE
:100300002200AF002F08031D862987298929003084
:10031000432AD33086002130870001082F060319B5
:1003200092299329AA29D3308600213087002F08EB
:1003300081008D3135258131DE3086002130870006
:1003400020002008C03F2108C13F2208C23F2308E7
:10035000C33F8729DE30860021308700403F2000E0
:10036000D600413FD700423FD800433FD9008D31EE
:100370003525813120002008DA002108DB00220821
:10038000DC002308DD005608DA025708DB3B58087A
:10039000DC3B5908DD3B5D08031DD9295C08031DC2
:1003A000D9295B08031DD92903305A020318D9291A
:1003B000DA29DB298729D3308600213087008101A3
:1003C00084313E2481312200B0009F3086002130EC
:1003D000870030088100073030020318F029F12926
:1003E000F42922003008432A9C30860021308700FF
:1003F0009C30840021308500043100080106031977
:10040000022A032A042A87298231E6228131220026
:10041000B100310803190D2A0E2A232A310A0319C3
:10042000122A132A1A2A310887316827813180312C
:10043000912081319F3086002130870022003108D1
:1004400081003108432A8D3135258131E230860023
:100450002130870020002008C03F2108C13F22082A
:10046000C23F2308C33F9C308600213087004331C0
:1004700081015508BF005408BE0022002E088231B9
:1004800044228131F12908002000CC009C308600F4
:100490002130870046310108CF009C308600213092
:1004A000870047310108CE004F08CB004E08CA0034
:1004B0009C3086002130870048310108D1009C30F3
:1004C00086002130870049310108D0005008CD0056
:1004D0004D35C000A23086002130870040088100E1
:1004E000D230860021308700033081004B08D300D2
:1004F0004A08D200D12A52354C07C0004008860075
:100500008701403FC100413FC2004208C300D230D2
:100510008600213087000108C400C501A030C60054
:100520002130C70044084607C8004508473DC900B8
:100530004808860049088700430881000130C00050
:10054000D2308600213087004008810752354C07A1
:10055000C0004008860087010108C100D230860033
:10056000213087000108C200C301A030C40021303F
:10057000C50042084407C6004308453DC700460879
:10058000860047088700410881000130C000D23052
:10059000860021308700400881070130D2070030F3
:1005A000D33D4D084A07C0004B0803184B0AC10051
:1005B00041085302031DDE2A40085202031CE12AAF
:1005C000E22A7B2A8031912082310800D2308600D5
:1005D0002130870001082000AF00B0019F30B1003A
:1005E0002130B2002F08310786003008323D8700E5
:1005F0000108B300B401D230860021308700010821
:10060000B500B6019E30B7002130B8003508370775
:1006100086003608383D87000108B900BA0139085C
:10062000BA00B90133083904BC0034083A04BD00EB
:10063000D2308600213087000108FE3E8331DF235F
:10064000823120003D082106031D282B3C0820068E
:1006500003192B2B2C2B372BDA3086002130870007
:100660000130810741310318810AFF306A2BBE0136
:10067000BF01BF019C3086002130870045313F0813
:10068000203E840090300318013E850000080106DA
:10069000031D4B2B4C2B4F2BBE01BE0A592B013097
:1006A000AF002F08BF0708303F02031C582B592BFF
:1006B0003A2B3E08031D5D2B5E2B692BDA3086003A
:1006C000213087000130810741310318810A013050
:1006D0006A2B003008002000EB018D313525833175
:1006E0002100550820002002B600210056082000F5
:1006F000213BB700210057082000223BB800210011
:1007000058082000233BB9003608BA003708BB0060
:100710003808BC003908BD00BE01BF01C001C101DD
:100720004108AB004008AA003F08A9003E08A80005
:100730003D08A7003C08A6003B08A5003A08A40015
:100740008531952583312000AB1BBF2B2B08031D62
:10075000C02B2A08031DC02B2908031DC02B280805
:10076000031DC02B2708031DC02B2608031DC02B0B
:10077000D03024020730253B031CBF2BC02BDE2BBF
:100780008D3135258331200023082100D800200039
:1007900022082100D700200021082100D6002000D7
:1007A00020082100D5002000EB01EB0A84319A24B7
:1007B00083312000E201E301E401E50108002000AB
:1007C000A600FF30AD00FF30AE00AB01AB011F2C27
:1007D0002B08A200A301A030A4002130A50022080C
:1007E000240786002308253D87002D080106AD005B
:1007F0002E08AE00AC01AC0A01302D05A900003076
:100800002E05AA000130AE36AD0C890B032C290849
:100810002A0403190C2C0D2C112C0130AD06A0302C
:10082000AE060130A2002208AC0709302C02031CDE
:100830001A2C1B2CFC2B0130A2002208AB07260827
:100840002B02031C242C252CE82B2E08A3002D089A
:10085000A2002308A200A3012208A7002308A800E1
:100860002D08A300A20127082204AD0028082304B4
:10087000AE002E08A1002D08A00008002000A9014C
:10088000D2308600213087008101762C8F318E276F
:1008900084312000A200D230860021308700010878
:1008A000A300A401A030A5002130A600230825073D
:1008B000A7002408263DA8002708860028088700EE
:1008C000220881000130A200D2308600213087004A
:1008D00022088107D23086002130870032300102A1
:1008E000031C732C742C762CA901A90A7808031D0B
:1008F0007A2C7B2C462CD6308600213087000130A4
:10090000810741310318810A29080319882C892C91
:10091000942CDA3086002130870001308107413184
:100920000318810AFD30992CD230860021308700CF
:1009300001080800EB302000A8000230A9000030B8
:10094000AA00443087313D2784318D3135258431EB
:10095000200023082100DC00200022082100DB0009
:10096000200021082100DA00200020082100D90001
:100970008D31352584312100590820002002AC003A
:1009800021005A082000213BAD0021005B08200017
:10099000223BAE0021005C082000233BAF002F0863
:1009A000031DDE2C2E08031DDE2C2D08031DDE2C5E
:1009B00008302C02031CDD2CDE2CB82C303020003B
:1009C000A4000630A5000030A60044308F31032774
:1009D000843120003108E2003008E3003408E400EC
:1009E0003308E50008008C31B7248431003A03193C
:1009F000FA2CFB2C292D082D8C3185248431452D92
:100A00008C318A248431452D8C3194248431452DB8
:100A100021002F08F7000630A03E86008701413FE5
:100A20008A00403F0A008531F100F2017208003A65
:100A300003191B2D042D7108013A0319042D033AE3
:100A40000319FC2C013A0319002D073A0319042D50
:100A5000042D21003C101730A03E86008701403F46
:100A600084008501810A00088C317B2484310130A7
:100A70002100B8020030B93B38083904031D412D6C
:100A8000422D442D0630452D033008002000A000E3
:100A90009C308600213087002008C03F9D308600B2
:100AA0002130870002308100DC3086002130870051
:100AB000E830C03F0330C13FE63086002130870078
:100AC0000030C03FC13FC23FC33F9C308600213051
:100AD0008700413102300102031C6F2D702D732DF0
:100AE00022008E12752D22008E16D2308600213003
:100AF00087008101D3308600213087008101DA3000
:100B00008600213087000030C03FC13FD8308600CA
:100B1000213087000030C03FC13FD63086002130F1
:100B200087000030C03FC13F08002000AB1BB32D41
:100B30002B08031DB22D2A08031DB22D2908031D01
:100B4000B22D2808031DB22D2708031DB22D26083B
:100B5000031DB22D2508031DB22D013024020318F8
:100B6000B22DB32DDB2D20002409A4002509A500FA
:100B70002609A6002709A7002809A8002909A90015
:100B80002A09AA002B09AB00A40A031DDA2DA50A25
:100B9000031DDA2DA60A031DDA2DA70A031DDA2D7F
:100BA000A80A031DDA2DA90A031DDA2DAA0A031DBE
:100BB000DA2DAB0ADB2D08002000A200A301A30A56
:100BC00021003C19E42DE52D1F2E200022082100D4
:100BD000B600BC103C153C100E30BA00F430B40026
:100BE0000130B500BC153930A0000C30A100AC01BB
:100BF0003930A2000C30A300AD013930A4000C3014
:100C0000A500AE013930A6000C30A700AF010230BC
:100C1000A8000030A900B0016F302000A0000C3007
:100C2000A1008C31BD2485318C31502485318D312A
:100C30009E2585318C315C2485312000A301200064
:100C40002308080021003708860087018C314424DE
:100C5000863181000130F00070082100B7070130B3
:100C6000B8020030B93B380839040319382E392E40
:100C70003E2E8C316B2486310530642EBC15482EF7
:100C80008C31A3248631642E8C319E248631642ECF
:100C90002C08F70021088A0020080A008631F0009D
:100CA000F1017108003A0319562E442E7008013ADA
:100CB0000319442E033A0319402E013A0319402E1A
:100CC000073A0319442E442E080021009112A73040
:100CD0002000A0000630A1008D31062586312100BC
:100CE000111224302000A0000F30A1008D310F25FB
:100CF0008631083023009F0090309D0024309E00F4
:100D0000CF309B009C0137302000A0000C30A100A8
:100D10008C31F424863163302000A0000C30A10017
:100D20008C31FD2486315F302000A0000C30A10002
:100D30008C31EB2486312000EC01FC01FB010830F2
:100D4000ED00FA01F901F8012100911608007A0876
:100D5000BD3E86008701810123001D1DB02EB12EEE
:100D6000BC2E7A08BD3E860087018114220025082A
:100D70008A0024080A00863123009D1CC02EC12E43
:100D8000CC2E7A08BD3E860087010115220023087B
:100D90008A0022080A0086317A08BD3E8600870153
:100DA00001080319D42ED52EDC2E220021088A003A
:100DB00020080A008631DF2E8E3168268631080031
:100DC000003020000C1801302200AD00003020005F
:100DD0008C1801302200AC00003020000C190130CA
:100DE0002200AB00003020008C1901302200AA0044
:100DF00008302A052000A000043022002B05200026
:100E0000A100023022002C052000A20022002D08A3
:100E1000013920002204210420042100EF000800F1
:100E20002100BC15202F8C318F2487313C2F8C3131
:100E30004724873103303C2F8C31942487313C2F59
:100E40002C08F70021088A0020080A008731F000EA
:100E5000F1017108003A03192E2F1C2F7008013A76
:100E600003191C2F033A0319132F013A0319132FE7
:100E7000073A0319172F1C2F08002000AB00200091
:100E80002B088531DC258731003A0319482F492F7B
:100E90003F2F20002A08A1002908A00028088E3131
:100EA0005326873100302000A400A5000030A600A2
:100EB000A7008D31542587318C31B22487318E3192
:100EC000CA268731013A0319662F672F5F2F080062
:100ED0002000A1009C3086002130870045310108A8
:100EE000A2009C308600213087000108A000A030BD
:100EF000860021308700200881002208803EA00063
:100F0000A13086002130870020088100A2308600B1
:100F10002130870021088100D230860021308700EF
:100F20000330810008002000A1006D080319992FEB
:100F30009A2F952F2100111A9E2F9F2FA42F20004A
:100F4000210823009A00B92F11127C08CD3E86009B
:100F500087012000210881000130A0002008FC0743
:100F600008307C02031CB52FB62FB72FFC010130CF
:100F7000ED022100111608008C314A24873121002E
:100F80003C1CC32FC42FCF2F8C31B7248731003A9C
:100F90000319CB2FCC2FCF2F0F302100BA00210007
:100FA0003A08F300F401F335F40D003073078400C0
:100FB0001030743D80388500013F8A00003F0A00F0
:100FC00087312100BA000800220090018C018D01B8
:100FD00040308E00083021009000FF308C00FF3040
:100FE0008D009C308E003F3023008D0030308C000F
:100FF000240090018D012100951722009D01080019
:10186E000800080001300800240096140800240027
:10187E00161508002400961508002400110808000B
:10188E002000911508002000911108002000181466
:10189E000800200091110800240095120800210074
:1018AE00911108002400161408002100911508005B
:1018BE008E3168268C31080023001D121D1608007B
:1018CE002400961616160800240096121616080006
:1018DE008731BC278C31080023001E0C013908000B
:1018EE002430210097000800F000700824009100B9
:1018FE0008002100BC10BB010E3008008C313B24C7
:10190E008C31013008008C313B248C3102300800C0
:10191E008C313B248C31013008008C313E248C31CB
:10192E00003008008C316B248C31053008008C316E
:10193E0067248C310A3008008C3167248C310930D1
:10194E0008002100BC10BB010E30080001308E31A2
:10195E00E5268C31080000308E31E5268C310800EA
:10196E002400160E890C890C01390800200021086C
:10197E00E9002008E800080021003C108C314124C9
:10198E008C3104300800703021009900980122003B
:10199E009601080021003C1436358C317B248C31A5
:1019AE000330080021003C140314360D8C317B24C7
:1019BE008C3105300800200021082100EE002000A7
:1019CE0020082100ED000800200021082200A100BF
:1019DE00200020082200A00008002000210822007C
:1019EE00A500200020082200A400080020002108E5
:1019FE002200A300200020082200A20008002000E0
:101A0E0021082200A700200020082200A6000800BE
:101A1E00200021082200A900200020082200A80092
:101A2E0008002400940108309500960113309200AE
:101A3E009512080001302000DE070030DF3D003037
:101A4E00E03D0030E13D08008631E0268D318C31DD
:101A5E004D248D318E311C268D31080020006108F9
:101A6E00A3006008A2005F08A1005E08A0000800A5
:101A7E0083316B238D318E312D268D318F316A2737
:101A8E008D3108007508F1007408F0007608F20038
:101A9E0000308F3146278D31080020002508A10027
:101AAE002408A0002608A20002308F31B3278D3102
:101ABE0008006400800101310130FE020030FF3B5E
:101ACE007F087E04031D612D0034FE0012001E00EF
:101ADE000130FE020030FF3B7F087E04031D6D2D9A
:101AEE0000342434163424340B34243400342C348F
:101AFE0010342C340D342C34063421006D086E0451
:101B0E0003198A2D8B2D902D6E088A006D080A0000
:101B1E008D310800200011106708F1006608F000F2
:101B2E008E310B268D318D3184258D3108002400A8
:101B3E00951AA22DA32DAA2D940108309500960179
:101B4E001330920095160800F2002100BC1DB02D36
:101B5E00B12DB82D7208B7007108B9007008B80021
:101B6E00BC1108008E3140268D318D312B258D31E3
:101B7E008B170B178D313F258D31C12D8031572895
:101B8E000230F0000030F10077088D31AB258D3139
:101B9E000030F400F500F6018D3149258D31043009
:101BAE0008000130F0000030F10077088D31AB25D0
:101BBE008D310030F400F500F6018D3149258D315F
:101BCE00023008000230F0000030F10077088D314D
:101BDE00AB258D310030F400F500F6018D3149252D
:101BEE008D31023008000130F0000030F10077082E
:101BFE008D31AB258D310030F400F500F6018D31BD
:101C0E0049258D31043008002000181D0F2E102E8E
:101C1E00172E1810710897007008960018141B2EB6
:101C2E007108970070089600080000302000E1004F
:101C3E000030E0000030DF000030DE002130A00078
:101C4E000D30A1008C31E2248E31080020006A088C
:101C5E00031D322E332E3C2E21006F088531462572
:101C6E008E312000EA01EA0A3F2E8E31B0268E31E7
:101C7E0008008D3118258E318731E4278E318C3155
:101C8E00CA248E318C3177248E318E3197268E3147
:101C9E00863165268E3108002000A2002100BC1D71
:101CAE00592E5A2E672E200022082100B700200040
:101CBE0021082100B900200020082100B800BC1125
:101CCE0008007A08C53E86008701230019088100A6
:101CDE000130F0007008FA0708307A02031C782EE3
:101CEE00792E7A2EFA010130F0007008F8070800FC
:101CFE00770886008701403FF000413FF1007708EA
:101D0E00023E8600870101088D31AB258E310030F1
:101D1E00F400F500F6018D3149258E3102300800B0
:101D2E0020009901E0309700C0309600111017087E
:101D3E00E7001608E6002100111438302000A0003C
:101D4E000C30A1008C31E2248E31413020009800FD
:101D5E000800200063082100DE0020006208210038
:101D6E00DD00200065082100E0002000640821004D
:101D7E00DF0002302000D4000030D500DD3081318C
:101D8E0074218E3108002000A001A00A2100BC1889
:101D9E00D12ED22EE22E3C11FF30B6008C315024C3
:101DAE008E318C3156248E318C3153248E3121005C
:101DBE003B082000A0002000200808002000A00002
:101DCE00A101A10A2100BC18ED2EEE2E002FBC148D
:101DDE002000A10120080319F52EF62EFA2E21005F
:101DEE00BA01BA0AFD2E02302100BA008C315924F4
:101DFE008E312000210808002000A70020002708AF
:101E0E008531DC258F31003A03190E2F0F2F052F48
:101E1E0020002608A1002508A00024088E31532694
:101E2E008F318C31AD248F318E31CA268F31013AEC
:101E3E000319222F232F1B2F0800083020006D02BC
:101E4E0003182A2F2B2F432F7B08CD3E86008701A8
:101E5E00010823009A000130F0007008FB070830DB
:101E6E007B02031C3B2F3C2F3D2FFB010130F0006A
:101E7E0070082000ED07452F210011120800F30015
:101E8E007008710403194C2F4D2F5C2F7335A03E33
:101E9E00860087017008C03F7108C13F7308AC3ED1
:101EAE008600870172088100692F7335A03E860077
:101EBE0087013930C03F0C30C13F7308AC3E8600FD
:101ECE00870181010800772F22008E140E148D2FAA
:101EDE0022008E100E148D2F22008E140E108D2FB8
:101EEE0020006B08A000A101A01BA1032108003A4D
:101EFE000319822F8D2F2008003A03196B2F013AF8
:101F0E0003196F2F033A0319732F8D2F08007808CA
:101F1E000319922F932F8E2F7908BD3E86008701CD
:101F2E0001082000EC007908C53E860087010108F3
:101F3E00A1000130A0002008F90708307902031C27
:101F4E00A92FAA2FAB2FF901210091120130F8020F
:101F5E0091162000210808002000A300200821046B
:101F6E000319BA2FBB2FCA2F2335A03E8600870137
:101F7E002008C03F2108C13F2308AC3E86008701E0
:101F8E0022088100D72F2335A03E860087013930E5
:101F9E00C03F0C30C13F2308AC3E86008701810153
:101FAE00080021003C100230BB00E52F8C318F243D
:101FBE008F31FF2F8C3194248F31FF2F2E08F70095
:101FCE000430A03E86008701413F8A00403F0A0050
:101FDE008F31F000F1017108003A0319F72FE12F4C
:101FEE007008023A0319DD2F013A0319DD2FE12F94
:101FFE00080080340C34D9340C34D1340C34F3341E
:10200E00043422340634C3340C341034073485348B
:10201E000C348A340C348F340C3494340C3499349C
:10202E000C349E340C34A3340C34A8340C34D83411
:10203E000F340134023403340434053406340F34BF
:02204E0010344C
:020000040001F9
:08000000FF3FFF3FFF3FFF3F00
:04000E00FC3FDF3E96
:00000001FF
