:0400000080315528CE
:100008007E1480310B1F09280A2853282100111E4D
:100018000E280F281A282000111E132814281A2821
:100028006D088A006C080A00803153282100911E4F
:100038001E281F282A282000911E232824282A2821
:100048006B088A006A080A00803153282100921D33
:100058002E282F283A282000921D332834283A28A1
:1000680044088A0043080A00803153282100911D62
:100078003E283F2845282000911D4328442845282C
:1000880034282100111C49284A2853282000111C13
:100098004E284F28532883316A23803153287E10F5
:1000A8000900803157285D30840083308500553041
:1000B8008600003087000030FF000D308331842334
:1000C8008031D4308400203085001C30FE0001309F
:1000D800FF00833190238031FC01FD012030840032
:1000E800003085003530FE000030FF00833190235A
:1000F8008031A0308400003085003030FE000030B0
:10010800FF008331902380317E1020008331E12B62
:1001180084310B248031003A031993289428C2288B
:10012800A128843134248031DE2884312F24803181
:10013800DE28843125248031DE2820002F08F700AE
:100148000630203E86008701413F8A00403F0A0072
:100158008031F800F9017908003A0319B4289D287C
:100168007808013A03199D28033A03199528013A9A
:1001780003199928073A03199D289D2820003C1047
:100188001730203E86008701403F84008501810AA0
:10019800000884313E24803101302000B80200304C
:1001A800B93B38083904031DDA28DB28DD28063076
:1001B800DE280330080020003708860087018431D4
:1001C8006124803181000130F80078082000B707E9
:1001D8000130B8020030B93B380839040319F52852
:1001E800F628FB2884314B24803105302129BC15A1
:1001F8000529843116248031212984311B2480313A
:1002080021292C08F70021088A0020080A008131DA
:10021800F800F9017908003A031913290129780827
:10022800013A03190129033A0319FD28013A031970
:10023800FD28073A03190129012908002100911214
:1002480064302000EE000130EF008331F323813168
:10025800210011123F302000EE000230EF00833100
:10026800ED238131083023009F0090309D00243019
:100278009E00CF309B009C0172302000EE000430BD
:10028800EF008331FF23813153302000EE0004302A
:10029800EF008331F923813157302000EE0004301C
:1002A800EF008431052481312000C801CC01CB0145
:1002B8001030CA00C901FD01FC0121009116080097
:1002C80020004908A03E86008701810123001D1DEA
:1002D8006E296F297A2920004908A03E86008701E7
:1002E800811469088A0068080A00813123009D1C6E
:1002F8007E297F298A2920004908A03E8600870197
:10030800011567088A0066080A008131200049083B
:10031800A03E8600870101080319932994299A2988
:1003280065088A0064080A0081319D298231B62255
:10033800813108002000BC15AE2984312A2481317E
:10034800CA2984315E2481310330CA2984312524A5
:100358008131CA292C08F70021088A0020080A00E0
:100368008131F800F9017908003A0319BC29AA2952
:100378007808013A0319AA29033A0319A129013A6D
:100388000319A129073A0319A529AA2908008431C4
:100398005B24813120003C1CD229D329DE298431F9
:1003A8000B248131003A0319DA29DB29DE290F30C1
:1003B8002000BA0020003A08FA00FB01FA35FB0DCC
:1003C80061307A07840002307B3D80388500013F28
:1003D8008A00003F0A0081312000BA00080020008E
:1003E8003C100230BB00002A84312A2481311A2AA9
:1003F8008431252481311A2A2E08F7000430203E42
:1004080086008701413F8A00403F0A008231F80098
:10041800F9017908003A0319122AFC297808023AE6
:100428000319F829013A0319F829FC290800F300EF
:10043800700871040319212A222A312A7335203EB3
:10044800860087017008C03F7108C13F73082C3EC1
:1004580086008701720881003E2A7335203E860097
:1004680087016F30C03F0430C13F73082C3E8600BF
:10047800870181010800103020004A020318452A2C
:10048800462A5E2A4B08C03E8600870101082300E1
:100498009A000130F00070082000CB0710304B02A2
:1004A800031C572A582A592ACB010130F00070083A
:1004B800CA07602A21001112080039340434BA34FA
:1004C8000334CB3403348C340034DF340034DA346E
:1004D80003349E340134343404342F3404342A343D
:1004E800043425340434203404341B3404341634DE
:1004F800043411340434F3340134220090018C01A3
:100508008D0140308E00083021009000FF308C00B3
:10051800FF308D009C308E003F3023008D0030303E
:100528008C00240090018D012100951722009D0167
:10053800080020009901E0309700C03096001110A3
:100548001708C2001608C1002100111471302000DC
:10055800EE000430EF008331E72382314130200080
:100568009800080020004908B03E86008701230053
:10057800190881000130F00070082000C907103008
:100588004902031CC82AC92ACA2AC9010130F00035
:100598007008FC070800770886008701403FF000D4
:1005A800413FF1007708023E860087010108833148
:1005B8004F2382310030F400F500F60183319C238B
:1005C8008231023008008331B123823182318122A5
:1005D80082318331D3238231843143248231823181
:1005E8009D22823181312221823108002000181D8C
:1005F800FE2AFF2A062B181071089700700896002B
:1006080018140A2B7108970070089600080001302A
:10061800F0000030F100770883314F238331003038
:10062800F400F500F60183319C238331043008007F
:100638000230F0000030F100770883314F23833116
:100648000030F400F500F60183319C238331023039
:1006580008000130F0000030F100770883314F23A3
:1006680083310030F400F500F60183319C23833197
:10067800023008000230F0000030F10077088331C2
:100688004F2383310030F400F500F60183319C23B9
:10069800833104300800F2002000BC1D542B552B78
:1006A8005C2B7208B7007108B9007008B800BC115B
:1006B80008002434163424340B342C3410342C34ED
:1006C8000D342C3406340134243400342000111045
:1006D8004208F1004108F0008231FA228331833167
:1006E80077238331080020006208630403197D2BF7
:1006F8007E2B832B63088A0062080A008331080076
:10070800FE0012001E000130FE020030FF3B7F0891
:100718007E04031D852B0034640080010131013003
:10072800FE020030FF3B7F087E04031D912B00343E
:100738007508F1007408F0007608F2000030823184
:100748001B228331080001302000BD070030BE3D68
:100758000030BF3D0030C03D08002400940108303F
:1007680095009601133092009512080020003C1461
:100778000314360D84313E248331053008000134DA
:10078800023403340434053406340F3410342000A2
:100798003C14363584313E248331033008007030F0
:1007A80021009900980122009601080020003C10C1
:1007B800843164248331043008008231E722833194
:1007C800E42B8031552820006F08E3006E08E20012
:1007D800080020006F08ED006E08EC0008002000FB
:1007E8006F08EB006E08EA00080020006F08E700B9
:1007F8006E08E600080020006F08E9006E08E800AF
:10080800080020006F08E5006E08E40008002400D6
:10081800160E890C890C013908002000BC10BB0198
:100828000E30080084314F248431093008008431A7
:100838004F2484310A30080084314B248431053038
:1008480008008431672484310030080084316A2428
:1008580084310130080084316A2484310230080070
:1008680084316A248431013008002000BC10BB01A7
:100878000E300800F00070082400910008001630BF
:100888002100970008008131CB2184310800240021
:10089800961216160800240096161616080023004D
:1008A8001D121D1608008231B6228431080020006E
:1008B8009111080020009115080024001108080073
:1008C8002400961508002400161508002400961424
:0E08D800080005300800013008000800080084
:020000040001F9
:08000000FF3FFF3FFF3FFF3F00
:04000E00EC3FDF3EA6
:00000001FF
