:1000000080315228243400347E1480310B1F09289B
:100010000A2850282100111E0E280F281B28200016
:10002000111E132814281B28210060088A005F086D
:100030000A00803150282100911E1F2820282C28DA
:100040002000911E242825282C2821005E088A00E3
:100050005D080A00803150282100921D3028312887
:1000600037282000921D35283628372850282100AF
:10007000911D3B283C2842282000911D4028412802
:10008000422850282100111C4628472850282000CB
:10009000111C4B284C2850288F31C82780315028FC
:1000A0007E10090080315428803102208031ED001B
:1000B000803103208031EE00823084008F30850053
:1000C000E5308600003087000030FF000A308F31B5
:1000D000AF278031D4308400203085001C30FE00F2
:1000E0000130FF008F31A3278031FA01FB015A3024
:1000F0008400003085001330FE000030FF008F3197
:10010000A3278031A0308400003085003530FE0008
:100110000030FF008F31A327803120308400013070
:1001200085002030FE000030FF008F31A327803192
:100130007E1020008F31972FD2308600213087002B
:10014000010883317023803173082000B1007208E8
:10015000B0003108A900D2308600213087000108A4
:10016000AA00AB01D830AC002030AD002A082C0723
:10017000AE002B082D3DAF002E0886002F0887000B
:10018000290881000130A900D23086002130870083
:1001900029088107D2308600213087000108A90094
:1001A000AA01D830AB002030AC0029082B07AD00E5
:1001B0002A082C3DAE002D0886002E088700300846
:1001C00081000130A900D230860021308700290843
:1001D0008107D4308600203087004131023001028F
:1001E000031CF328F428F62822008E162000B20102
:1001F000B3010E29D8302000A9002030AA0032080F
:100200002907860033082A3D8700010886310F261A
:10021000803101302000B2070030B33DD23086007B
:10022000213087003308803AA90080302902031D5D
:100230001B2901083202031C1E291F29FA28D43069
:10024000860020308700413102300102031C292939
:100250002A2960298F3117278031003A0319312963
:1002600032292A29E630860021308700403F2000CD
:10027000B400413FB500423FB600433FB7000130F4
:100280002000A9000030AA000030AB000030AC0014
:100290002908B4022A08B53B2B08B63B2C08B73B0B
:1002A000340A031D5D29350A031D5D29360A031D25
:1002B0005D29370A031D5D295E293F2922008E1220
:1002C000D23086002130870081018F316E27803146
:1002D000E2308600213087007208C03F7308C13FBA
:1002E0007408C23F7508C33FD830860021308700AC
:1002F0000130810741310318810A08002000D6002F
:10030000EA308600213087004C08C03F4D08C13FCD
:100310006908D7005708031D8E298F2991290030BD
:10032000482AD33086002130870001085706031978
:100330009A299B29B129D33086002130870057089C
:1003400081008F316E278131DE30860021308700B9
:100350007208C03F7308C13F7408C23F7508C33FAD
:100360008F29DE30860021308700403FCE00413F9C
:10037000CF00423FD000433FD1008F316E27813103
:1003800072082000D2007308D3007408D4007508E6
:10039000D5004E08D2024F08D33B5008D43B510839
:1003A000D53B5508031DDF295408031DDF295308D9
:1003B000031DDF29033052020318DF29E029E12958
:1003C0008F29D33086002130870081018331CF23EC
:1003D00081312000D800D7308600203087005808AF
:1003E0008100073058020318F629F729FA2920005E
:1003F0005808482AD430860020308700D430840042
:10040000203085000431000801060319082A092A52
:100410000A2A8F298231EB2281312000D900590824
:100420000319132A142A292A590A0319182A192ADE
:10043000202A59088531E525813180319C20813180
:10044000D7308600203087002000590881005908E5
:10045000482A8F316E278131E230860021308700B3
:100460007208C03F7308C13F7408C23F7508C33F9C
:10047000D4308600203087004331810120004D08B0
:10048000F9004C08F8005608823149228131F729D9
:1004900008002000C400D430860020308700463198
:1004A0000108C700D430860020308700473101089A
:1004B000C6004708C3004608C200D430860020307A
:1004C000870048310108C900D430860020308700F9
:1004D00049310108C8004808C5004535B800DA3080
:1004E00086002030870038088100D2308600213015
:1004F0008700033081004308CB004208CA00D62A97
:100500004A354407B800380886008701403FB900E3
:10051000413FBA003A08BB00D23086002130870044
:100520000108BC00BD01D830BE002030BF003C082F
:100530003E07C0003D083F3DC1004008860041081D
:1005400087003B0881000130B800D230860021309E
:100550008700380881074A354407B8003808860004
:1005600087010108B900D2308600213087000108D8
:10057000BA00BB01D830BC002030BD003A083C07AF
:10058000BE003B083D3DBF003E0886003F08870097
:10059000390881000130B800D23086002130870050
:1005A000380881070130CA070030CB3D45084207B3
:1005B000B80043080318430AB90039084B02031D69
:1005C000E32A38084A02031CE62AE72A802A8031F7
:1005D0009C2082310800D23086002130870001083B
:1005E0002000A900AA01D730AB002030AC002908B8
:1005F0002B0786002A082C3D87000108AD00AE01BC
:10060000D2308600213087000108AF00B001D6301B
:10061000B1002030B2002F08310786003008323D8B
:1006200087000108B300B4013308B400B3012D08FA
:100630003304B6002E083404B700D23086002130CF
:1006400087000108FE3E8331702382312000370885
:100650007306031D2D2B360872060319302B312B20
:100660003C2BDA3086002130870001308107413190
:100670000318810AFF306F2BB801B901B901D430DA
:1006800086002030870045313908003E84009030D4
:100690000318013E850000080106031D502B512B55
:1006A000542BB801B80A5E2B0130A9002908B907FC
:1006B00008303902031C5D2B5E2B3F2B3808031DCD
:1006C000622B632B6E2BDA308600213087000130DD
:1006D000810741310318810A01306F2B0030080077
:1006E0002000A000FF30A700FF30A800A501A50151
:1006F000B02B2508F400F501D830F6002030F700C3
:100700007408760786007508773D8700270801067C
:10071000A7002808A800A601A60A01302705A30003
:1007200000302805A4000130A836A70C890B942BB3
:100730002308240403199D2B9E2BA22B0130A7060E
:10074000A030A8060130F4007408A607093026027C
:10075000031CAB2BAC2B8D2B0130F4007408A507C8
:1007600020082502031CB52BB62B792B2808F50091
:100770002708F4007508F400F5017408A100750855
:10078000A2002708F500F40121087404A70022083C
:100790007504A8002808F3002708F2000800F401F7
:1007A000D2308600213087008101062C86316126F7
:1007B00083312000A000D23086002130870001085C
:1007C000A100A201D830A3002030A40021082307F3
:1007D000A5002208243DA6002508860026088700DB
:1007E000200881000130A000D2308600213087002F
:1007F00020088107D230860021308700FA300102BC
:10080000031C032C042C062CF401F40A20006908B4
:10081000031D0B2C0C2CD62BD630860021308700E4
:100820000130810741310318810A74080319192C1A
:100830001A2C252CDA308600213087000130810700
:1008400041310318810AFD302A2CD2308600213034
:100850008700010808002000E7018F316E278431EE
:1008600021004D0872022000B20021004E08733BA7
:100870002000B30021004F08743B2000B400210089
:100880005008753B2000B5003508031D522C340874
:10089000031D522CD03032020730333B031C512C45
:1008A000522C7C2C8F316E27843175082100D000AA
:1008B0007408CF007308CE007208CD002000E70155
:1008C000E70A84317D2484312000DF1B682C692CE9
:1008D000722C02305E3E860087014131811F712CEF
:1008E000722C7C2C0030DE008030DF000030E00015
:1008F0008030E1000230E70008006D302000A000E9
:100900000230A1000030A20088308531BB2584313F
:100910008F316E27843175082000B1007408B00053
:100920007308AF007208AE008F316E27843120004B
:100930002E087202A4002F08733BA5003008743BF8
:10094000A6003108753BA7002708031DB32C260815
:10095000031DB32C2508031DB32C02302402031CF5
:10096000B22CB32C942C2830F6000630F70000305F
:10097000F800893087311327843120002808DF00F0
:100980002908DE002B08E1002C08E0000800F40034
:10099000F501F50A21003C19CE2CCF2C052D740849
:1009A000B600BC103C153C100E30BA00F430B40058
:1009B0000130B500BC150030A0000030A100AC0132
:1009C0000030A2000030A300AD010030A4000030D0
:1009D000A500AE010030A6000030A700AF01003036
:1009E000A8000030A900B0010030F2000030F30090
:1009F0008F312F2784318F31032784318F31D527D1
:100A000084318731FD278431F50175080800F20033
:100A1000D4308600203087007208C03FD530860071
:100A20002030870002308100DC30860021308700D2
:100A3000E830C03F0330C13FE630860021308700F8
:100A40000030C03FC13FC23FC33FD230860021309B
:100A500087008101D3308600213087008101DA30A0
:100A60008600213087000030C03FC13FD83086006B
:100A7000213087000030C03FC13FD6308600213092
:100A800087000030C03FC13F080021009112823032
:100A9000F2000530F3008F31472785312100111214
:100AA000D030F2000630F3008F314D278531083009
:100AB00023009F0090309D0024309E000C309B004E
:100AC0009C01FE30F2000E30F3008F313B27853160
:100AD0001330F2000F30F3008F31412785310F3092
:100AE000F2000F30F3008F31352785312000E80107
:100AF000EC01EB011030EA00FB01FA01E9012100F1
:100B0000911608007B08BD3E860087018101230005
:100B10001D1D8B2D8C2D972D7B08BD3E86008701DA
:100B2000811421005C088A005B080A0085312300DB
:100B30009D1C9B2D9C2DA72D7B08BD3E860087010B
:100B4000011521005A088A0059080A0085317B08DE
:100B5000BD3E8600870101080319AF2DB02DB72DCA
:100B6000210058088A0057080A008531BA2D8731BC
:100B70008027853108002000A3002000230884314D
:100B8000C7248531003A0319C62DC72DBD2D20007D
:100B90002208F3002108F20020088F31E227853176
:100BA0000030F600F7000030F800F9008F318C2794
:100BB00085318F31242785318731B1278531013A3D
:100BC0000319E32DE42DDC2D0800F300D43086005A
:100BD0002030870045310108F400D43086002030F1
:100BE00087000108F200D8308600203087007208A4
:100BF00081007408803EF200D930860020308700E2
:100C000072088100DA308600203087007308810086
:100C1000D230860021308700033081000800F300C5
:100C200020006A080319152E162E102E2100111A05
:100C30001A2E1B2E1F2E730823009A00352E111218
:100C400020006C08303E8600013087007308810068
:100C50000130F2007208EC0710306C02031C312ED8
:100C6000322E332EEC010130EA0221001116080069
:100C7000003020000C1801302100E400003020007A
:100C80008C1801302100E300003020000C190130E5
:100C90002100E200003020008C1901302100E10029
:100CA00008306105F20004306205F300023063058C
:100CB000F400640801397404730472042000EF0026
:100CC0000800200069080319662E672E612E7A0835
:100CD000BD3E860087010108E8007A08203E8600B4
:100CE000013087000108F3000130F2007208FA07B2
:100CF00010307A02031C7D2E7E2E7F2EFA012100F9
:100D0000911201302000E9022100911673080800B9
:100D1000F5007208730403198E2E8F2E9E2E7535E2
:100D2000A03E860087017208C03F7308C13F750866
:100D3000AC3E8600870174088100AB2E7535A03E5D
:100D4000860087010030C03F0030C13F7508AC3ECF
:100D50008600870181010800B92E22008E140E142E
:100D6000CF2E22008E100E14CF2E22008E140E10C5
:100D7000CF2E20006708F200F301F21BF303730883
:100D8000003A0319C42ECF2E7208003A0319AD2E73
:100D9000013A0319B12E033A0319B52ECF2E0800DC
:100DA000103020006A020318D62ED72EF02E6B08C2
:100DB000303E860001308700010823009A00013090
:100DC000F00070082000EB0710306B02031CE92EC6
:100DD000EA2EEB2EEB010130F0007008EA07F22E4C
:100DE00021001112080000340034003400340034B3
:100DF0000034003400340034003400340034003453
:100E00000034003400340034003400340034003442
:100E10000034003400340034003400340034003432
:100E2000003400340034F90079088431C724873154
:100E3000003A03191C2F1D2F142F7808F300770890
:100E4000F20076088F31E22787318F311F278731F3
:100E50008731B1278731013A03192F2F302F282FDF
:100E60000800220090018C018D0140308E00083076
:100E700021009000FF308C00FF308D009C308E00F0
:100E80003F3023008D0030308C00240090018D0114
:100E90002100951722009D01080020005F08210015
:100EA000D20020005E082100D1002000610821004E
:100EB000D400200060082100D30002302000CC00C4
:100EC0000030CD00D13081317E2187310800F20021
:100ED000F301F30A2100BC186E2F6F2F7E2FBC1474
:100EE000F30172080319752F762F792FBA01BA0A08
:100EF0007B2F0230BA008F310C278731730808002E
:100F00007B08203E860001308700230019088100FD
:100F10000130F0007008FB0710307B02031C912F9A
:100F2000922F932FFB010130F00070082000E90799
:100F3000080020009901FE3097000C309600111037
:100F40001708E3001608E20021001114FF30F20038
:100F50000E30F3008F31292787314130200098006F
:100F60000800F201F20A2100BC18B72FB82FC72FD2
:100F70003C11FF30B6008F31032787318F310927AD
:100F800087318F310627873121003B08F200720834
:100F9000080020006608031DCE2FCF2FD72F6F0823
:100FA0008531072587312000E601E60ADA2F8731EF
:100FB0004D278731080000302000DD000030DC00C4
:100FC0000030DB000030DA005A30F2000F30F3005E
:100FD0008F312927873108002000181DF02FF12FAD
:100FE000F82F181071089700700896001814FC2F3D
:100FF00071089700700896000800210091150800FC
:101DFC0008000800200018140800200091110800A9
:101E0C0024009512080021009111080024001614DA
:101E1C000800873180278F31080023001D121D1602
:101E2C00080023001E0C0139080016302100970011
:101E3C0008000130873167278F3108000030873167
:101E4C0067278F31080073082100D6007208D5006F
:101E5C00080073082000E5007208E400080073080D
:101E6C002100D8007208D700080073082100DC009C
:101E7C007208DB00080073082100DA007208D90030
:101E8C00080073082100DE007208DD0008007308EA
:101E9C002100E0007208DF0008007030210099007A
:101EAC00980122009601080001302000DA0700306A
:101EBC00DB3D0030DC3D0030DD3D0800863138264E
:101ECC008F318F3100278F318731DB278F3108001D
:101EDC0020005D08F5005C08F4005B08F3005A086C
:101EEC00F200080084312B248F318731C9278F31C0
:101EFC008631AC268F3108002434163424340B344C
:101F0C002C3410342C340D342C3406347708F30074
:101F1C007608F2007808F4000230863188268F317A
:101F2C0008008F31F0278F318F3164278F318F313B
:101F3C0078278F319D2F8031522864008001013128
:101F4C000130FE020030FF3B7F087E04031DA42FEE
:101F5C000034FE0012001E000130FE020030FF3B78
:101F6C007F087E04031DB02F003421005508560451
:101F7C000319C12FC22FC72F56088A0055080A0013
:101F8C008F310800200011106308F1006208F00086
:101F9C008731EC278F318F31BB278F31080024001C
:101FAC00951AD92FDA2FE12F94010830950096015C
:101FBC000330920095160800F4002100BC1DE72F99
:101FCC00E82FEF2F7408B7007308B9007208B80037
:101FDC00BC110800873131278F318F3153278F3156
:101FEC008F311B278F31873199278F3185314525CB
:101FFC008F310800013402340334043405340634C0
:04200C000F34103449
:020000040001F9
:08000000FF3FFF3FFF3FFF3F00
:04000E00FC3FDF3E96
:00000001FF
