:0400000080314728DC
:100008007E1480310B1F09280A2845282100111E5B
:100018000E280F281A282000111E132814281A2821
:100028006B088A006A080A00803145282100911E61
:100038001E281F282A282000911E232824282A2821
:1000480069088A0068080A00803145282100921D45
:100058002E282F283A282000921D332834283A28A1
:1000680061088A0060080A00803145282100911D36
:100078003E283F2845282000911D4328442845282C
:1000880034287E10090080314928F001F101F2017D
:10009800F301F401F501F6012030840000308500F9
:1000A80042308231A52280317E1020008231AB2A75
:1000B8008231CF228031003A0319632864289428BA
:1000C80071288231F8228031B3288231F3228031BD
:1000D800B3288231E9228031B32820003308F800A0
:1000E8003208F7000630203E86008701413F8A002B
:1000F800403F0A008031F800F9017908003A0319F5
:1001080086286D287808013A03196D28033A0319DF
:100118006528013A03196928073A03196D286D28DB
:10012800200043103E08F9003D08F800BD0A0319F5
:10013800BE0A7808860079088700010883310223FF
:10014800803101302000BF020030C03B3F0840042E
:10015800031DAF28B028B2280630B32803300800A2
:10016800833125238031F7001D30203E860087012A
:10017800403F8400413F850077088000013020001F
:10018800BD070030BE3D0130BF020030C03B3F0814
:1001980040040319D028D128D62883310F23803171
:1001A8000530FE28C315E0288231DA228031FE2886
:1001B8008231DF228031FE282D08F8002C08F70054
:1001C80021088A0020080A008031F700F801780821
:1001D800003A0319F028DC287708013A0319DC28CB
:1001E800033A0319D828013A0319D828073A0319FA
:1001F800DC28DC2808002100911240302000EC00A7
:100208000130ED008231B7228031210011121A30FD
:100218002000EC000230ED008231B122803108303C
:1002280023009F0090309D0024309E00CF309B001B
:100238009C0135302000EC000330ED008231C322F0
:10024800803117302000EC000330ED008231BD22F0
:1002580080311B302000EC000330ED008231C922D0
:100268008031F001F601F5010830F400F301F201E4
:10027800F1012100911608007308443E86008701A9
:10028800810123001D1D49294A2955297308443E27
:10029800860087018114200067088A0066080A0022
:1002A800813123009D1C59295A2965297308443E28
:1002B800860087010115200065088A0064080A0085
:1002C80081317308443E86008701010803196D29AE
:1002D8006E297529200063088A0062080A008131A6
:1002E800782982315622813108002000C3158929D6
:1002F8008231EE228131A7298331222381310330D3
:10030800A7298231E9228131A7292D08F8002C0874
:10031800F70021088A0020080A008131F700F80157
:100328007808003A0319992985297708013A0319A9
:100338008529033A03197C29013A03197C29073ACC
:100348000319802985290800200043100230C200C3
:10035800B5298231EE228131D1298231E9228131D8
:10036800D1293108F8003008F7000430203E860013
:100378008701413F8A00403F0A008131F700F801B8
:100388007808003A0319C929B1297708023A0319EC
:10039800AD29013A0319AD29B129080083311F237A
:1003A80081312000431CD929DA29E5298231CF225D
:1003B8008131003A0319E129E229E5290F302000AB
:1003C800C10020004108FA00FB01FA35FB0DFA30A4
:1003D8007A07840001307B3D80388500013F8A0020
:1003E800003F0A0081312000C1000800FD340234BA
:1003F800863402348F3402345C340034B43400342C
:100408009E34023479340134F8340234F33402343B
:10041800EE340234E9340234E4340234DF34023492
:10042800DA340234D5340234A83401340830740282
:1004380003181F2A202A372A7508543E8600870188
:10044800010823009A000130F7007708F507083003
:100458007502031C302A312A322AF5010130F700CF
:100468007708F407392A21001112080022009001A8
:100478008C018D0140308E00083021009000FF3043
:100488008C00FF308D009C308E003F3023008D00A3
:1004980030308C00240090018D0121009517220036
:1004A8009D01080073084C3E860087012300190847
:1004B80081000130F7007708F30708307302031C46
:1004C800662A672A682AF3010130F7007708F107DE
:1004D800080082317D22823182313A228231823192
:1004E800972282318331072382318031FF20823184
:1004F80008002400940108309500960113309200FA
:10050800951208002000431403143C0D8331022384
:10051800823105300800200043143C358331022322
:1005280082310330080070302100990098012200C0
:1005380096010800200043108331282382310430BB
:100548000800640080010131890BA62A0034823139
:100558006D228231AE2A8031472820006D08EB00D9
:100568006C08EA00080020006D08E9006C08E80043
:10057800080020006D08E5006C08E4000800200071
:100588006D08E7006C08E600080020006D08E3002D
:100598006C08E20008002400160E890C890C013949
:1005A80008002000C310C2010E3008008331132355
:1005B8008231093008008331132382310A30080060
:1005C80083310F2382310530080083312B23823198
:1005D8000030080083312E23823101300800833136
:1005E8002E2382310230080083312E2382310130DC
:1005F80008002000C310C2010E300800F700770879
:10060800240091000800163021009700080081316D
:10061800D2218331080024009612161608002400FF
:1006280096161616080023001D121D1608008231A2
:1006380056228331080020009111080020009115EE
:10064800080024001108080024009615080024005A
:10065800161508002400961408000530080001301B
:04066800080008007E
:020000040001F9
:08000000FF3FFF3FFF3FFF3F00
:04000E00E43FFF3E8E
:00000001FF
